:040000006F3040110C
:1000040000000000000000004E0E0000500E000032
:100014000000000012310000000000000000000099
:100024001231000012310000000000000000000046
:100034001231000000000000123100000000000036
:1000440012310000123100001231000012310000A0
:100054001231000012310000123100001231000090
:100064001231000012310000123100001231000080
:100074001231000012310000123100001231000070
:100084001231000012310000123100001231000060
:100094007E270000123100001231000012310000EE
:1000A4001231000012310000123100001231000040
:1000B4001231000012310000123100001231000030
:1000C4001231000012310000123100001231000020
:1000D4001231000012310000123100001231000010
:1000E40012310000123100007227000012310000AA
:0C00F40012310000123100001231000037
:10010000397101436EC619A0397141536AC866CA74
:1001100062CC5ECE19A0397101535AD056D252D456
:100120004ED64AD826DA22DC06DE330161408282CE
:1001300041114AC026C222C406C68282B24D410184
:10014000024D924C224CB24B4101024B924A224A40
:10015000B2494101024992442244B24041018280A5
:100160003D432A876373C3029377F700BDEFADE584
:10017000937606FF3D8ABA960CC34CC30CC74CC796
:100180004107E36BD7FE11E28280B306C3408A06C3
:100190009702000096966780A6002307B700A30683
:1001A000B7002306B700A305B7002305B700A304D3
:1001B000B7002304B700A303B7002303B700A302CB
:1001C000B7002302B700A301B7002301B700A300C3
:1001D000B7002300B700828093F5F50F9396850052
:1001E000D58D93960501D58D61B79396270097021B
:1001F000000096968682E78086FA9680C1171D8F4A
:100200003E96E374C3F8A5B73367B500FD530D8B75
:1002100079E7B7877F7F9387F7F710419441B372EF
:10022000F6003363F600BE92B3E262006395720C8F
:100230006318D6065041D441B372F6003363F6001A
:10024000BE92B3E262006396720A631BD604104545
:100250009445B372F6003363F600BE92B3E26200D7
:10026000639F7208631ED6025045D445B372F600F0
:100270003363F600BE92B3E26200639872086311C2
:10028000D60210499449B372F6003363F600BE9269
:10029000B3E26200639172085105D105E30FD6F60F
:1002A0001317060193970601631CF7001357060105
:1002B00093D706013305F7409375F50F91E98280D6
:1002C0004183C1833305F7409375F50F91E1828037
:1002D0001377F70F93F7F70F3305F740828010215C
:1002E0009421050585056313D60075FA3305D640BC
:1002F000828011059105E314D6FE01458280210517
:10030000A105E31ED6FC014582803105B105E31845
:10031000D6FC014582804105C105E312D6FC0145AA
:100320008280EFF2FFE037240140AA859D46054612
:1003300013050440EF209074854513050440EF2019
:1003400070729304044089452685EF30200165DDF5
:1003500013050440EF20107EF5BB03C781855DE7E0
:10036000EFF21FDD7971130600028145080813843E
:100370008185FD3385451305402002C202C402C6B3
:10038000EF3040372165EF30E029371501408947CC
:100390004C0013050580B72401407C8202C6EF3073
:1003A000C00313850440EF20505FB7070E000C0810
:1003B0003ECE1385044085472302F10202C802CADB
:1003C00002CC02D0EF2070610545EF2030778545E3
:1003D00013850440EF20D06513850440EF2050665C
:1003E000138904404A85EF2050666DFD1385044053
:1003F000B7240140EF20F065938404402685EF2068
:10040000F0656DFD85471CA04561A9B38280EFF2C0
:100410003FD2138481851C204111A9C73725014093
:10042000814513050540EF20B0600145EF201071B4
:10043000814513050020EF30E02B37150140894737
:100440004C0013050580231301002314010023151C
:10045000010023160100231701007C82EF20F077B2
:10046000230004004101FDB1EFF29FCC83C78185D9
:1004700091E3E535A144014405456535FD142A9411
:10048000E5FC0D8011494545693D7D19AA94E31CA1
:1004900009FE8980C16793960401FD17C182130785
:1004A000401F7D8C637DD7000565130505963305D8
:1004B000A402FD8C335595024205418161B909655D
:1004C0001305859C3305A4023181FDB7EFF25FC6A9
:1004D0001306000581451385018EA38C01844931E3
:1004E00095B9EFF2FFC159711389018E375A000097
:1004F000B75A0000B75B0000EF10802019E165617A
:1005000035B9EF102022E34C05FE13879185B546DF
:100510001C23938991856305D500A946631ED52ABE
:10052000E1DF1387018EBA9723800700814C130DFA
:10053000F004894DB30799018387070013F7FC0F77
:1005400089C76394AC091307F0049C183E97930580
:100550008A2A0810230807FA453949E93755000067
:100560001305052BEF30D02E375500001305C52D90
:10057000EF30102E3755000013050531EF30502DA8
:100580003755000013050534EF30902C3755000027
:1005900013050537EF30901A375500001305453B1A
:1005A000EF30102B375500001305453EEF30502A31
:1005B0003755000013058541EF309029375500006D
:1005C00013050544EF30D0289DA813FCF70FEF303A
:1005D000501262951831E2870D8B6314B7019307AF
:1005E0000CFE181066971CA3850CA9B793850A47C3
:1005F0000810193901C9B75500009385C546081080
:10060000213129E1EF0070522ACEEF0070522ACC3E
:10061000EF00704E2ACAEF0010522AC8EF00705344
:100620002AC6EF00705383A8C18142483247D246A0
:100630006246F245AA8713858B47EF30301023803E
:1006400009005DBDB755000025469385C54C0810CF
:10065000EF30D0200DED13059102EF30D008930755
:10066000803E9305803E63C6A700AA8563530500BC
:1006700081451395050141812EC6EF006066B245A4
:10068000375500001305854DEF30500B4DBFB75562
:10069000000025469385054F0810EF30301C1DE9FA
:1006A00013059102EF3030049307803E9305803E9E
:1006B00063C6A700AA85635305008145139505010C
:1006C00041812EC6EF00206537550000B245130565
:1006D000C54F5DBFB75500002546938545510810AD
:1006E000EF30D01715E513059102EF30C07F954725
:1006F0002AC663EAA700EF00704037550000B245F4
:100700001305055251B737550000130585535DBDDC
:10071000B75500003146938545550810EF30101449
:1007200005ED6810EF30207C85671307F5FF938790
:10073000F7E0AA8563EDE700420541812EC6EF0090
:10074000704037550000B2451305455635BF375543
:10075000000013054558BDB5B75500009385C55A2F
:1007600008105D3401C9B75500009385055B08107A
:10077000613C09ED375500001305C55BEF30500DA6
:1007800013052003EF30402D492055BDB75500001B
:100790009385C55E08108D3C01C9B755000093854F
:1007A000455F081095341DE1375500001305C55FFE
:1007B000EF30100A13052003EF30002AB707EFBE11
:1007C00037E700E0938707083CC795BD3755000021
:1007D000CA85130505614DBDA1466306D500930684
:1007E000F0076318D500E38907D0FD172380F900CF
:1007F00021B39306E004E3E1F6D09386170014A337
:100800001387018EBA9788A3C5B9EFF27F92375547
:10081000000013058564EF30B0030D2BCD3E1D4560
:10082000E9261305C012EF3020239307800873B028
:1008300007800F100000E124B7F700E023A00700B5
:1008400023A20700814694C70147D8C794CBD8CBD1
:10085000B7E500E08147FD562146139727002E9704
:100860002320D7182320D7288507E398C7FE85457E
:100870007D55EF20F06B81457D55EF20706B8545F0
:100880007D55EF20D06C81457D55EF20506CEF20D9
:10089000B05373105030B7220000938202807390DF
:1008A000023037510020B7F2FF1F828201A0EFF221
:1008B0003F8841118545114502C202C402C6EF209E
:1008C00070638547371401407C82930780023EC6DF
:1008D0004C008D47130504803EC4EF201030930771
:1008E00000047C824C0093078004130504803EC6FC
:1008F000EF20B02E23AE018423900186239D018436
:1009000041016FF03F85EFF2BF8237150140854509
:1009100013050580EF20903B7D15133515006FF012
:100920007F83EFF2FF80C5379386C18598422146C9
:100930006360E61095660A079386C6673697184384
:100940009387C185028719E1014599A0054798C39E
:1009500023900186D5BF71C9938601869A22050727
:10096000420741839AA28546E3F0E6FE094798C311
:10097000E1BF0DC1938601869A2205074207418394
:100980009AA293067007E3F1E6FC214798C311454C
:100990006FF04FFC0D4798C3239D018475B7938674
:1009A000A1859A220507420741839AA219C11147DE
:1009B00079BFF546E3FAE6F823A007000545C9BF6D
:1009C00065DD938601869A220507420741839AA234
:1009D0008546E3FBE6F6154759BF49FD194798C31D
:1009E000239D018475B79386A1859A220507420746
:1009F00041839AA219C11D4799BFF546E3F6E6F473
:100A000023A00700094569B765DD938601869A2210
:100A10000507420741839AA28546E3F7E6F221479C
:100A200098C30D45B5B7E31105F223A0070029BF10
:100A300023A0060011BFEFF2AFEF37150140930579
:100A4000000413050580EF207028B707002003C6B7
:100A5000072B85461387072B933715006308D600AD
:100A6000814709E689476303D500814708A33E858E
:100A70006FF04FEEEFF2CFEB2205498E1395050193
:100A8000518D9307800873B007800F10000003A3F7
:100A9000418003AE818003A8C18083A80181B71E75
:100AA0000140DD474147FD553356F50093860E80E2
:100AB000058A98CA15CA42867D167DFED8CAC686A2
:100AC000FD16FDFEFD17E391B7FE9307800873A0A6
:100AD0000780B7170140414723AAE78013050005A7
:100AE000EF2030746FF00FE71A867D167DFED8CAAE
:100AF000F286F9B7EFF2CFE3B53F6FF0AFE5EFF273
:100B00002FE3014623A201868145014523940186F6
:100B1000953737150140C14513050580EF20B01CFE
:100B20006FF04FE3EFF2CFE041118545114502C26E
:100B300002C402C6EF20103CC1477C823715014039
:100B4000C1473EC64C008D47130505803EC4EF20CB
:100B5000D00883A6C18137470F001306F723A147AA
:100B60006376D60093070724B3D7F6021303C012A7
:100B70008568138788BB13050032138841809388EA
:100B8000F87633836702B356E3023385A702232046
:100B9000D800B356E50223A4D18023A6D1809306C2
:100BA000E015B387D702938581801386C18033D740
:100BB000E70223A8E1809386018163E56800094785
:100BC0002320E8000D671307F7ED6365A7001147C1
:100BD00098C118C205671307F7766364F700894761
:100BE0009CC2313F41016FF0EFD693874186984315
:100BF0006306A70688C3239401869D4763E0A70682
:100C0000EFF20FD395679387076A0A053E951C415B
:100C10008287014681450145B13D6FF0AFD3014662
:100C20009305F00FCDBF1306F00F93058007E5B7CE
:100C300001469305000A1305F00FF9BF01468145EF
:100C4000DDBF1306F00FE9BF1306F00F8145130552
:100C5000800CD9B701469305800CF1BF8280EFF27A
:100C60002FCD138781861E2383A641868507C20761
:100C7000C1831EA31146638EC60215466386C60451
:100C80000D466396C602930620036396D70001467D
:100C90008145014521A89306300663FAF60023102A
:100CA000070001469305000A1305F00FE1336FF0CA
:100CB0006FCAB146E38DD7FCE146E3FAF6FE231096
:100CC000070001468145CDB7E383D7FCA546E3F095
:100CD000F6FE231007001306F00F9305F00F55BF23
:100CE000EFF20FC59307803E9305803E63E3A700B4
:100CF000AA8583A74181C205C181B385F502930707
:100D0000803E37050040B3D5F502C205C181EF2012
:100D100070416FF02FC4EFF2AFC19307803E93058F
:100D2000803E63E3A700AA8583A74181C205C181F4
:100D3000B385F5029307803E37050040B3D5F50231
:100D4000C205C181EF20503E6FF0CFC0EFF24FBE21
:100D5000814537050040EF20F03C814537050040D4
:100D6000EF20903C6FF00FBFEFF28FBC797185459B
:100D7000114502CA02CC02CE02C402C623180100E9
:100D800002D002D202D402D6EF20D0168545054506
:100D9000EF203018B147FC8237150140E1473ECEC5
:100DA0004C088D47130505803ECCEF20006303A758
:100DB000C181B756204E9567938707E29386F6E187
:100DC000B357F70263EBE606FD1701472C00370522
:100DD000004023AAF18078847C8623170100231524
:100DE0000100EF20B018C167938707060C10370584
:100DF00000403ED02313010223140102EF20301DD6
:100E0000A14537050040EF20B02F0C1037050040FA
:100E1000EF203025A14537050040EF20502F8545B4
:100E200037050040EF20302C854537050040EF2086
:100E3000102A293F45616FF0EFB1B706204E3357B6
:100E4000D70293061700B3D7D702FD1741B701A009
:100E5000B707EFBE37E700E0938707083CC701A05C
:100E6000EFF20FAD41112398A1862399B1862EC6CA
:100E7000853DB2452E85453541016FF0AFADEFF2AE
:100E80002FAB83C7618891CB03A7C1868947814572
:100E90001305803E6311F70281A083A7818781E754
:100EA0008145014509A803A7C18689466318D70073
:100EB0008145130520036D376FF0CFA9FD179146CB
:100EC000E3E0F6FE95668A079386066CB6979C4328
:100ED000828785476DBF81451305A00FE9BF854710
:100EE0009305803E75B783C72188DDDB85471305F1
:100EF000E0156304F7001305803E81456DBF83C78D
:100F0000C18793962700996793878799B6979C2303
:100F1000E9BFEFF2EFA1375500001305456DEF3043
:100F20002013EF0020701D35D93EEFF04FCEEFF0CB
:100F30009F9D05E513052003EF20103285453705F9
:100F40000010EF20007D0545EF20A0610545EF2052
:100F5000C066EF2060626FF0EF9F2945EF20D02F31
:100F6000F9B7EFF2EF9CEFF02FD0239CA1808567BB
:100F7000938757B82A841387418763E0A7041C230B
:100F8000850793F7F70F1CA30547637AF7023765C8
:100F9000000013054592EF30A00B4D3B0146814503
:100FA0001305F00FEFF01FB51305C012EF20D02A84
:100FB000EFF0FFB4B93F6FF0EF99230007008567AA
:100FC0009386B7C183A5C1861387C18663E2860471
:100FD00089471CC31043630AB60037650000A28628
:100FE00013054596EF209075593D85671387F7E007
:100FF0000545636D8700138777D4094563688700CB
:101000009387B7C10D4563E387001145F93E65B786
:10101000938677D463EB860089466396D5009387E1
:10102000D7C4E3F987FA85476DB7938797D7E3F37A
:1010300087FA2320070079BFEFF28F8FEFF03F8709
:101040002533EFF03FAE23AC018623A60186239023
:1010500001882392018823810188239501862383B7
:101060000188238A0186DD31EFF07FA93755000022
:1010700013050570EF20D07D6FF0CF8DEFF2AF89B3
:10108000EFF03F8AAA84EFF01F9B85471384818786
:101090006311F50A2383A188DD3301469305F00F20
:1010A0000145EFF03FA599C8239001880947638463
:1010B000E416636D97088547638CF40C14409147E0
:1010C000639EF61A138741881E238507C207C183D2
:1010D00063F8F61E9387218823100700982313379F
:1010E000170098A3693B1C400947FD17636BF71C69
:1010F0001387A1861E23CD468507C207C18363EDF2
:10110000F61A1EA31C4085E383C7618889EF138705
:1011100001881E238507C207C1831EA303D7A181AF
:1011200063E3E700FD33EFF09FB3EFF08FBB6FF0A9
:10113000CF818947E319F5F62383018889331C4061
:1011400081E7EFF0DF9B85B7293DB1BF8D4763860F
:10115000F40E9147E394F4F623200400EFF01FBF50
:10116000EFF0FF99EFF0AFAA376500001305058592
:10117000EF20106E81441309702AB7690000EFF068
:101180008FF8631E050C376500001305858C21A8B8
:101190001C4089EF04C0EFF04F9CE133CD3137554F
:1011A00000001305C571EF20B06A09BF639B97006B
:1011B00018C0F1313755000013050574EF201058A1
:1011C000F5BD639AE7008D471CC0553937550000BF
:1011D00013058576C9BF0D47639FE70023200400F0
:1011E000EFF0DFB6EFF0BF91EFF06FA237550000E0
:1011F000130505794DBFF117E3E2F4EC2320040059
:10120000EFF0DFB4EFF0BF8FEFF06FA037550000C5
:101210001305857C49BF91471CC00547239201886F
:101220002381E188EFF06F931545EFF01F9C813922
:10123000375500001305857FBDB795471CC0238E29
:101240000186239F0186EFF04F911945EFF0FF993A
:10125000EFF0FFC23765000013054582A9B785048A
:10126000C2042945C180EF20207FE37A99F01385DD
:101270000989EF20F05DEFF04FD911B79547E3945E
:10128000F6E69385C1879386E1879C219A221966A9
:10129000139527001306869905072A9642073222DE
:1012A00041839AA2636FC70085074947B3F7E702F6
:1012B000239006009CA13DB5231007005D3199B530
:1012C0001EA383C76188E39507E22DBDEFE25FE6C9
:1012D000054723ACE18623900188EFF00F88EFF0FB
:1012E0005FC8EFF0DFB93765000013054590EF20C8
:1012F00030566FE03FE603A581878280EFE25FE32F
:1013000023ACA1862390018811E98145EFF05FB5F8
:10131000EFF0EFFEEFF0AF8F6FE0DFE3EFF0EF8382
:10132000EFF03FC4EFF0BFB5C5BF03D58181828028
:1013300003C5C186828003D5A1819307400633553A
:10134000F5028280930740063305F502239DA180B4
:10135000828003D50187828003D521878280EFE2D6
:101360003FDD0545EF2060197922EF202069716586
:1013700013050520EF20A071B52CEFF02F953765F0
:1013800000001305059EEF20B04C376500001305E3
:10139000C5A0EF20F04B83A5C18137650000130580
:1013A00085A3EF20B03937650000130545A5EF2070
:1013B000304A3755000013050544EF2070493705C2
:1013C00000108545EF20E0340545EF20201E11C9AF
:1013D0000545EF20801E37650000130505A8EF20A6
:1013E0003047EFF07FC5EFF00FD239C93765000005
:1013F000130585AAEF20D04501449304F0313769E5
:101400000000EFF04FD011ED37650000130545B235
:10141000EF20D032653DEFF07FC62945EF20C06355
:10142000DDBF0504420429454180EF20E062E3FA74
:1014300084FC130589AEEF20B041EFF00FBDD1B7AA
:1014400037650000130505B5EF209040E9B7B717E1
:1014500002409843B706FFF01367170098C3D843BC
:10146000758FD8C39843B706F7FEFD16758F98C3DE
:101470009843B706FCFFFD16758F98C3D843B7068F
:1014800001FFFD16758FD8C337079F0098C7B74671
:10149000024003A706801367070123A0E680D84314
:1014A000B706C1FFFD16D8C3D843D8C3D8431367C6
:1014B0000740D8C3D843758FD8C3D843B706280090
:1014C000558FD8C39843B7060001558F98C39843EA
:1014D00093166700E3DD06FED843B7160240719B02
:1014E000D8C3D84313672700D8C32147DC42B18B48
:1014F000E39EE7FE8280B7160240DC421146B18BC4
:101500001387C1816385C70021466388C702B71767
:101510007A00938707201CC3B7170240DC439183EE
:1015200093F6F700B707002093870700B697942338
:101530001C43B3D7D7001CC38280DC42D44241662F
:10154000C983BD8BF18E890745466393C700C947A0
:1015500081EEB746024083A60680C18A89CEB716BF
:101560007A009386062021A8B7160240D44213962B
:10157000E600E35606FEB7163D0093860690B38755
:10158000D70251BF03A7418C95476314F70683C761
:10159000A18AA5E383D6C1889387E1889E23C206EA
:1015A000C182C207C1831387E1886384F604EFE236
:1015B0003FB8138501C30146138801A393080004B3
:1015C0003303F800034303000506850742062300A2
:1015D000650093F7F71F41826385F6000505E31167
:1015E00016FF938501C30D451EA3EF10E0366FE093
:1015F0007FB68280EFE2DFB32394018823950188D0
:1016000023960188239701882385018AEF1080178C
:10161000EF00301FEF10402085450545EF104024B6
:101620006FE05FB3EFE2DFB081450145EF1040238B
:10163000814537058000EF20C00DB7E700E0414746
:1016400023A2E7180F1000003707000423A2E718B1
:101650000F10000023A2018C2385018A6FE09FAF49
:1016600029C9A9C903A7418C95476315F704EFE27F
:101670003FAC0144138701A3638E85009386C18824
:101680009E221386E1881222850793F7F71F63973E
:10169000C700CD3DC53D22856FE0DFAB922233030D
:1016A0008500034303003A969EA2230066000504CA
:1016B000E1B781452E8582800147938601936313AC
:1016C000B7008280138681881E221388A188035860
:1016D0000800850793F7F70F638C0701035806008E
:1016E000330EE500034E0E0036981EA22300C801FB
:1016F0000507F1B7EFE2DFA3EFF0DFE86FE09FA5AA
:10170000938781881387A1889623122363E6C600F6
:101710008A231E231D8D82801A238A23198D130587
:101720000510828083D681889387A1889A237D556E
:1017300042074183630CD7009623138701933697A2
:1017400096230823850693F6F60F96A38280EFE290
:101750003F9E19E583A7818905479AAB6FE09F9F5C
:1017600083A7018A9C43829703A581892905FDB738
:10177000EFE21F9C19E583A7818905479AAB6FE0CB
:101780007F9D83A7018A9C47829703A581893105A4
:10179000FDB703A7818901E589471EAB8280EFE28F
:1017A0003F99239A01881C231384418993F7F707F3
:1017B0009DE718379377070299C389471CA01377D1
:1017C00007041C2019CB93E717001CA083A7018AEC
:1017D0009C4B829722856FE0FF97F99BFDB785466A
:1017E00013854189E389D7FE89460145E395D7FEF4
:1017F0005833B7660040938606C09377F7008A0790
:10180000B69762079C4361876359070093F7070304
:101810004147E39DE7FA85474DBF0D67F98F05679F
:10182000CDBFEFE25F8F83A481893E8A822831E8B1
:10183000982491476317F704138701891443854758
:10184000639CF602B767004083A707C5B736002040
:101850008906C207C183B697860723A007009307AE
:1018600000032394F18A23200700114983A781896B
:10187000238427016FE07F8DC1472394F18A1D499E
:10188000F5B7DE28114963F38700094963F3870040
:101890003E849C4C4204418022858297AA8A01455D
:1018A000EF00B0572286AA855685EF007034A285D6
:1018B0000145EF00305A9E280D67818F9EA8BE28F3
:1018C0003E94930700032394F18AA2A82393E18A0C
:1018D00071BF83A7818983C61183B833094563E04B
:1018E000E602B42389EED62399EAEFE27F84B8A713
:1018F00083A7018ADC43829701456FE0BF85828020
:10190000EFE21F8383A7818903A7C1894111AC330B
:10191000184FC833029783A78189B8270DC72AC6F5
:101920001DE1D8230DE3BC2399EF83A7018ADC478F
:10193000829783A781893245D833B8B7B833D8A7FF
:1019400041016FE03F810945E5BF83A78189942369
:1019500093F6F60781EA98371377F7FD98B70147B2
:101960003A85828009460947E39CC6FEB623EDFA14
:10197000D423FDF6EFE2CFFBD033376700401307E7
:1019800007C01375F6F7131425003A946206144045
:1019900061866356060493F6060383C501830947EF
:1019A000637CB50295CABC2785CB1C40635C0602EC
:1019B00093F707034147639CE7001374F50F2285F3
:1019C000EF00903E930500032285EF00902983A746
:1019D000018ADC4B829701473A856FE0AFF70D67CC
:1019E000F98E65BFC164FD140D67E58FF98F05673A
:1019F000E39FE7FC1DEDB707002083C5C708EF0094
:101A000050471C4071771307F7F8F98FC2070D672D
:101A1000C183B98F617713070708D98FC207C183C4
:101A20001CC08D661840658F758FE302D7FA1CC005
:101A3000D5BFEF0030341C4071771307F7F8F98FEA
:101A4000C2070D67C183B98F617713070708D98F64
:101A5000C207C1831CC08D661840658F758FE3086F
:101A6000D7F61CC0D5BF03A68189B767004093870E
:101A700007C0543293F5F6F713972500BA97E2069C
:101A80009843E18663DF06041377070303C80183E5
:101A9000094563F705092E22C1E559C3382649C314
:101AA000EFE20FE9984363D30604E5769386F6FBED
:101AB000758F42074183E176134707019386060835
:101AC000558F4207418398C34146944393F60603DA
:101AD000639CC60083A7018A9C4F829701456FE0F3
:101AE0006FE70D65698F5DB798C3C5B7F1769386CB
:101AF000F6F8758F420785664183358FE1769386C8
:101B00000608558F42074183416698C37D160D65CF
:101B100085659443F18EE98EE38EB6FA98C3D5BFFE
:101B20008280EFE2EFE003A781891C3793E7070289
:101B30001CB783A7018ADC4F829701456FE08FE1D4
:101B400003A781893E2B11E5CA211D8D0AAB0145F2
:101B5000828088413E958280EFE28FDDB7070020CA
:101B600083C5C7080145EF00D03083A78189882746
:101B7000A1476318F50005672393E18A4147239441
:101B8000E18A5D15133515006FE0CFDCEFE24FDA27
:101B900003A9818937660040832706C583468900EB
:101BA000254741116385E60441641307F4FFB73606
:101BB0000020F98F9106B69786078043798C06043A
:101BC00032941C202300F9001C30A300F9004A20A5
:101BD000EF0070342311A9000A2403A98189EF00C2
:101BE00090332312A9005A2483A78189FAA383A7DB
:101BF0008189054798A7FA2380336310070E98233D
:101C00001377F7075DE725476316E400EFF07FCC15
:101C100035E13DA015476318E40403873700635B93
:101C20000700A14703A781891CA7EFF0FFF241013C
:101C30006FE04FD2B82375F7DA2365F7BC27F5F3C9
:101C4000B767004083A707C5373700200907C207D9
:101C5000C183BA97860723A00700130700032394C4
:101C6000E18A9947C1B70D476316E402B4330547CB
:101C7000638DE60083A7C1892285DC4B82970D47DF
:101C8000A547E301E5FA4DDD69BFDE23E5F7EFF097
:101C90005FE9BDBF0547E31FE4FCB833E31C87FCE5
:101CA000DA2369FB9C3793F70702E9D7EFF0FFC906
:101CB00085B785476318F700AD47E31DF4FAEFF0E9
:101CC0003FC4B9B78946E317D7FAE301F4FE8D475D
:101CD000E312F4FAEFF03FD925BF19476319E40284
:101CE00098231377F70771EBBC23854603A7C189B7
:101CF0006395D7005C4FF1C389A089466394D700F0
:101D00001C53D5BF8D46639AD70A5C53EDB761E883
:101D1000BA2345E7D843C1769386F60F758FB70689
:101D20000200631CD70898231377F70705EFDE231B
:101D3000C9E7B71700009387277903A78189014571
:101D4000231907001CCF8297014583A78189C166AB
:101D5000FD169A2B630FD70689466303D50069EFFA
:101D600021478DA88546631ED70003A7C189C833C4
:101D70008145184F029731E183A78189BC27D5FBA4
:101D80002DA88946631BD702D833B76600409386D7
:101D900006C01376F70093172600B6979C43931658
:101DA0008701E18663DA060293F7070383C601839E
:101DB0006375D6001377070779D303A7818983A7B3
:101DC000C18908339C4B82978D47E310F5F883A7B0
:101DD0008189254798A791BD8D66F58FC1BF2147A1
:101DE000631BE4009C2393F7F707E1FBB7170000A0
:101DF0009387E77499B72947E311E4FC9823854654
:101E00001377F707E31BD7FAB82745DBBA2355F753
:101E1000D843C1769386F60F758FC166E31FD7F856
:101E200003A7C189C8338145184F029759F5B717E1
:101E300000009387077711B78386070063D20604F3
:101E400083A6C189EE2303C6C6022EC63245931669
:101E50000601C1826378E50032479AABD6ABEFF05A
:101E60005F9CE1B3E37CB7FE6375D70023A80188CC
:101E7000F5B73367C7027DF3054623A8C188F9BFCC
:101E80000D4798A70D672393E18A45B3EFE2AFA80A
:101E900003A48189A1441C241387E7FF1377D70F7C
:101EA0002DC71387D7FF1377D70F51EF1C4C85CB66
:101EB0000628B9C05A2863739700BA84C204C18047
:101EC000268582971E28AA890145858F1EA83E284F
:101ED000A6973EA88D27AA8526864E85252B1E28E7
:101EE00081CF0D67814501452393E18AEF0080761C
:101EF000130700032394E18A1E28562803A781892B
:101F000063ECD7008D471CA7042783A7818984A78A
:101F1000EFF09FC46FE06FA399C39547EDB7994762
:101F20001CA7B767004083A707C5B73600208906FE
:101F3000C207C183B697860723A007009306000354
:101F40002394D18AD1B71D47A144E390E7FC83A72E
:101F5000C189DC47829755BF03C3018337660040C0
:101F6000C1650568A1680147130606C0FD15130881
:101F7000F8F0938808086369670013650508B76778
:101F8000004023A6A7C4828093162700B2969C42E5
:101F9000ED8FB3F70701D98FB3E717019CC205078F
:101FA000D9BFEFE2EF9883A7818994271387E6FFD3
:101FB0001377D70F09EFEFF0DF8683A78189982782
:101FC00083A7818998A7EFF03FB96FE0AF981946D2
:101FD0002147E397C6FE94331547639DE600982397
:101FE0001377F70701EBA833EFF01FF783A7018AF8
:101FF0009C53829783A7C1899C4782972147C9B781
:102000008280EFE2EF92938701C723ACF188094702
:1020100098A7370700209306070623AED188B70795
:1020200000209387070B23A0F18A83270706829756
:102030006FE04F92EFE24F8D4111370A0020B70A4F
:102040000020E17923170100130A8A02938A4A04C7
:1020500093890908B765004083A745C41397070112
:102060004183239CE18A139707016358071683D79E
:10207000818B3A84BD8B238BF188938605C063984E
:10208000073003A705C09387618A420741839AA35B
:102090009A239386818A137707039AA29A238D66DF
:1020A0002166758F9AA303A705C0A5679387F7FBE1
:1020B0007D8F83A705C0B1669386F6F8F58F896694
:1020C000B58F1347070293160701130606085D8FA5
:1020D000518FC18223A0E5C033E7360142079384C4
:1020E000618A1389818A3766004093050002418323
:1020F000832606C093F606036394B60EB3E7370152
:10210000C166C20737660040FD160D658965C1834B
:10211000032706C0130406C0758F698F6315B70CBB
:1021200083D7818BC18BE9EB1C40A5691387F9F03C
:10213000F98F1CC0EFF0FFE618401440B167938799
:10214000F7F8F58F96209389F9FB337737011396CB
:102150003601635406008566B58F962013962601D6
:10216000635406008966B58F83560900C18A99C2F7
:10217000134707018356090093F6060299C21347D5
:102180000702216693160701130606085D8F518F1B
:10219000376600402320E6C06177C1821307070835
:1021A000558F42074183832606C08355090093F665
:1021B0000603639DB602617713070708D98FC166CE
:1021C000C20737660040FD160D65C183032706C0B0
:1021D0008E20758F698F631EB70041016FD05FF647
:1021E0002320E6C031B72320F6C01DB72320E6C068
:1021F0005DBF2320F6C0D9BF1C40856BC207C183D9
:102200007C873C87139747016350070C1C4013875A
:10221000FBF8F98F1CC0EFF07F971840A5679387F4
:10222000F7FB14407D8FB1679387F7F8F58F962001
:102230001396360163540600B3C7770196201396B0
:102240002601635406008966B58F83560900C18A4A
:1022500099C2134707018356090093F6060299C2F3
:1022600013470702216693160701130606085D8FC0
:10227000518F376600402320E6C06177C182130783
:102280000708558F42074183832606C083550900FE
:1022900093F606036397B602617713070708D98F91
:1022A000C166C20737660040FD160D65C18303276E
:1022B00006C08E20758F698FE301B7F22320F6C028
:1022C000FDB72320E6C0C9B73C87C207C187E3D367
:1022D00007D81C401387FBF8F98F1CC0EFF01FBB19
:1022E0001840A5679387F7FB14407D8FB1679387EC
:1022F000F7F8F58F96201396360163540600B3C79E
:102300007701962013962601635406008966B58FDF
:1023100083560900C18A99C21347070183560900F1
:1023200093F6060299C21347070221669316070126
:10233000130606085D8F518F376600402320E6C0E4
:102340006177C18213070708558F420741838326AF
:1023500006C08355090093F606036397B6026177BA
:1023600013070708D98FC166C20737660040FD16FC
:102370000D65C183032706C08E20758F698FE30E1C
:10238000B7E42320F6C0FDB72320E6C0C9B71397F2
:10239000270036971443C206C18274873487C20669
:1023A000C18663DD0600FD1714438A070566D697CC
:1023B0001306F6F89C43F18E14C382973C8793F77B
:1023C0000708E38907C883C76189B7660040938619
:1023D00006C0139727003697FD1714438A07D29734
:1023E00025661306F6F09C43F18E14C382979DB1C7
:1023F000B73700200506BE950586860511E2828066
:102400001C3118219105A207D98F239EF5FE0905DD
:102410007D16EDB7B73700200506BE950586860503
:1024200011E282809C4109057D16231FF5FE91056E
:10243000C5BF619942054181B767004023A8A7C481
:102440008280B7670040938707C00A053E951C410C
:1024500065771307F798F98FDD8DC205C1810CC12F
:102460008280B7670040938707C00A053E951C41EC
:1024700065771307F7FBF98FC20713F70501C183CF
:1024800019C393C7070113F7050219C393C70702BE
:10249000617713070708D98FC207C1831CC1184190
:1024A00013770703E31CB7FE8280B767004093876A
:1024B00007C00A053E951C4171771307F7F8F98F9D
:1024C000C20713973501C183635407000567B98FAD
:1024D00013972501635407000967B98F61771307C4
:1024E0000708D98FC207C183C1661CC1FD160D66DE
:1024F0001841758F718F6313B70082801CC1CDBFE7
:10250000B7670040938707C00A053E951C41717765
:102510001307F7F8F98FC2070D67C183B98F617789
:1025200013070708D98FC207C183C1661CC1FD16F6
:102530000D661841758F718F6313C70082801CC1AF
:10254000CDBFB7670040938707C00A053E951C4181
:1025500005671307F7E0F98F617713070708D98F2D
:10256000C207C1831CC18280EFD29FBCEFF07FFD08
:102570006FD05FBEB7670040938707C00A053E95DE
:102580001441C1671387F7FF9397160163DD0700B6
:102590001C41F98F05671307F7F0F98F31671307AF
:1025A0000708D98F1CC18280B7670040938707C096
:1025B0000A053E951C4193F7070491CF1C414167E2
:1025C0007D17F98F05671307F7F0F98F2167130758
:1025D000070CD98F1CC18280B767004083A707C54D
:1025E0000E058581C207C1833E95B73700203E9511
:1025F000060586050CC18280B767004083A707C522
:102600000E058581C207C1833E95B737002091072B
:102610003E95060586050CC18280B767004083A7FA
:1026200007C50E05C207C1833E95B73700203E950A
:1026300006050A218280B767004083A707C50E05FB
:10264000C207C1833E95B737002091073E95060526
:102650000A218280B767004083A707C50E05C2071D
:10266000C1833E95B737002089073E9506050CC10A
:102670008280B767004083A707C513173500C207DC
:10268000C183BA97373700201907BA971307E003B9
:1026900086076373B70413D75500FD8981E57D175D
:1026A000420741832A07A166558F98C30DE5B707F6
:1026B000002083C7C7081307E0036376F70213D728
:1026C0005700FD8B81E77D17420741832A07E17799
:1026D0005D8F2396E18A828013D71500858991C189
:1026E00005072A07D9B713D71700858B91C30507AC
:1026F0002A07C5B7B767004083A707C50E05C207FD
:10270000C1833E95B737002099073E9506050841DD
:102710001375F53F8280935785001375F50F2205D9
:102720005D8D828037670040F177232207C493874D
:1027300007F02392F18AB167938707F02320F7C44B
:1027400001458280EFD2DF9E32849374F50726859F
:1027500042042E894180EFF05FEC2286AA854A85EB
:10276000EFF01FC92685A285EFF0DFEE01456FD09F
:102770007F9E37050400EF00B04573002030312400
:1027800073002030EFD2DF9A0111680002C602C840
:1027900002CA02CC02CEEF00106A3247B747950852
:1027A0009387074009456300F702B7E7B8059387A9
:1027B000078005456309F700B777DC02938707C0F8
:1027C0006315F7000145EF0050648545370580002B
:1027D000EF00307405616FD0FF97EFD27F953765BA
:1027E0000000130545BAEF10B0060D4723A2E18C97
:1027F0006FD05F96EFD2DF9337650000130505BCFD
:10280000EF10100503C7A1C711C7154723A2E18C1C
:102810006FD05F940547DDBFEFD29F91011137055F
:102820000400EF00F03AB707040005443EC808086A
:10283000C1473ECC22CE02CAEF00F03293074012CD
:1028400028007C8422C623050100EF00704B93070B
:10285000A00328007C84EF00B04A05616FD09F8FF1
:10286000EFD21F8DAA842E8411458545EF00906814
:10287000B1CCB766004083A706C441677517F98FCE
:1028800023A0F6C4B717014003A74780B716F0FF8F
:10289000FD16758F23A2E78003A7C780F97693867C
:1028A000F67F758F23A6E78003A74780B74604000D
:1028B000558F23A2E780374702408327078021C82E
:1028C00093E727002320F7806FD0DF883767004029
:1028D000832707C4B716F0FFFD1693E72700C2074A
:1028E000C1832320F7C4B717014003A74780758F22
:1028F00023A2E78003A7C780F9769386F67F758FBA
:1029000023A6E78003A74780B736030055B7F59B9A
:1029100055BF8280EFD2DF8139710945EFF09FDD2D
:1029200011CD2A840945EFF01FD1AA8522860A8598
:10293000EFF05FAEA2850A85EFE01FD80945EFF002
:102940003FBC21616FD01F81EFD28FFE2385018AAA
:10295000EFE05FDA6FD01F80EFD28FFD8D476314F9
:10296000F5029384A18A802019EC13053008EFF05A
:102970007FDD8547930500030D459CA0EFF07FAEFA
:1029800022856FD02FFD0544E5BFEFD26FFA37687F
:102990000040032708C5C1651385F5FF83D6C18AAA
:1029A000B7370020698F13866700329706071843F0
:1029B000938505C00111F98D638CD500832708C567
:1029C00093F606C0E98FB29786079843D98E94C3D1
:1029D000B766004083A746C41387818BC207C183B3
:1029E0001EA31A2383D7418A1384818B7D8F13778B
:1029F000072009CF41671307F7DF23A2E6C49386B8
:102A0000E18A982205071377F70F98A21A20F98F09
:102A1000C207C18763D40700EFF0CFE11E2003D7C0
:102A2000418AF98F93F7074089CFC1679387F7BF32
:102A3000376700402322F7C4B707002083A7470663
:102A400082971A2083D7418A7D8F9316270163D8F6
:102A500006003967B76600407D1723A2E6C41A2036
:102A6000F98F13973701635A0700BD673767004036
:102A7000FD172322F7C40145C52303D7418A1E2031
:102A8000F98F13974701635E070083A7C183638FA4
:102A9000070EC521BD67376700409387F77F232264
:102AA000F7C41E2003D7418AF98F93F70710E1CFAF
:102AB000C167376700409386F7EF2322D7C4032608
:102AC00087C49386018B9315060163DA050A904249
:102AD000050690C28C420D466375B60A032607C4EC
:102AE000FD17218A59EE032607C49385418B7D8EFD
:102AF0003765004090C11387418B0146130305C021
:102B0000A1489315260033886500032808000010AB
:102B1000A2953378F80023A005FF0506E31316FFFE
:102B200010431366160010C310437D8E2320C5C4C6
:102B30001043799A10C31843F98F2320F5C43767DF
:102B40000040832747C493F70740E5DFC1679387B9
:102B5000F7BF37650040C1652322F7C4130505C0E0
:102B60008147FD1521481397270010103A96032638
:102B700006FE2A9785076D8E10C3E39607FF23A0F4
:102B800006001D45D12905616FD0CFDC0945E9213B
:102B900011B783C7A1C781C7154723A2E18C8280E3
:102BA000114723A2E18C8280828091E5854733B56D
:102BB000A700060582800945828011E583A78189E7
:102BC0001D479AAB8280138541838280EFD24FD616
:102BD000EFF0BFFE6FD00FD803A7818993061002D4
:102BE00009451C2393F7F707639CD70214336384CA
:102BF000F602930700026395F602B7370000938749
:102C0000C7BCEFD2EFD21CCF231907000145829732
:102C100001456FD02FD4B73700009387A7BBD5B736
:102C2000828003A781899306100201451C33182373
:102C30001377F707631AD7009387E7FD93F7F70F2A
:102C400005453335F50006058280EFD26FCE83A7A8
:102C5000818923850700CD2CB767004085663766DC
:102C60000040938707C09386F6F0930506C2984309
:102C70009107758F23AEE7FEE39BB7FE9307F00F36
:102C80002322F6C4EFF01FAA8145014523A2018C3F
:102C9000EFF01FBD5145EF00305C85450545EFF075
:102CA0003FBC6FD02FCBEFD2AFC81967034737BEF9
:102CB00083A78189014598B723950700EFF06FF747
:102CC000930500200145EFF0CFF7C1450145EFF036
:102CD0004FF9930500040145EFF01F92930500089A
:102CE0000145EFF07F8F0145EFF01F88B707002007
:102CF00083C5C7080145EFF0DF970145EFF05F801E
:102D000037670040032607C0C1679386F7FF931714
:102D1000160163DF0700832707C0F58F856693865A
:102D2000F6F0F58FB16693860608D58F2320F7C09D
:102D300037670040832707C093F7070485C38327BD
:102D400007C0C166FD16F58F85669386F6F0F58F90
:102D5000A1669386060CD58F2320F7C093050060EB
:102D60000545EFF00FEE930500020545EFF06FEF1C
:102D70009305000C0545EFF03F8681450545EFF0D2
:102D8000CFF237670040832747C093F7070485C316
:102D9000832747C0C166FD16F58F85669386F6F0DA
:102DA000F58FA1669386060CD58F2322F7C037676F
:102DB0000040032647C0C1679386F7FF93171601AB
:102DC00063DF0700832747C0F58F85669386F6F09B
:102DD000F58FB16693860608D58F2322F7C081450B
:102DE0000945EFF00FE681450945EFF08FE79305C0
:102DF00000100945EFF05F80930500040945EFF0EE
:102E00005F878D650945EFF04FEA3767004003267D
:102E100087C0C1679386F7FF9317160163DF07002A
:102E2000832787C0F58F85669386F6F0F58FB166A8
:102E300093860608D58F2324F7C037670040832781
:102E400087C093F7070485C3832787C0C166FD1633
:102E5000F58F85669386F6F0F58FA1669386060C4E
:102E6000D58F2324F7C081450D45EFF08FDD930505
:102E700000020D45EFF0EFDE930500140D45EFF075
:102E8000AFF581450D45EFF04FE2376700408327EE
:102E9000C7C093F7070485C38327C7C0C166FD1663
:102EA000F58F85669386F6F0F58FA1669386060CFE
:102EB000D58F2326F7C0376700400326C7C0C167F8
:102EC0009386F7FF9317160163DF07008327C7C0B8
:102ED000F58F85669386F6F0F58FB16693860608C2
:102EE000D58F2326F7C00145EFF00F872385018A90
:102EF000054723A2E18C6FD0EFA5EFD26FA3938596
:102F00008182EFE0FFC36FD0EFA4EFD26FA2938571
:102F10000182EFE0FFC26FD0EFA383A78189AC33BA
:102F2000914763EEB700EFD2AFA0B70700209387B9
:102F300007098E05BE95EFE0BFC06FD0AFA1014578
:102F40008280828082808280B7670040054723A00C
:102F5000E7C423A007C4096723A207C4130707C057
:102F60002392E18A0967130707C023A0E7C401453C
:102F70008280EFD2EF9BB767004083A707C4376713
:102F800000404168C207C1838146130307C07D1812
:102F90009385C1C8A14813962600330566000841F1
:102FA0002E9685063375050108C2E39616FF93E653
:102FB00007402320D7C493E61740F99BC207C1837B
:102FC0002320D7C493E607402320D7C4B766004028
:102FD00003A746C41377074065DF41671307F7BFB0
:102FE00023A2E6C44168376700408146130307C047
:102FF0007D18A148139626003385C50008411A960E
:1030000085063375050108C2E39616FF93E78740EE
:103010002320F7C4832707C4C207C18393E747006F
:103020002320F7C4EFF06FFB6FD0CF92EFD24F9019
:1030300037640040832704C4C207C183ED9BC207E5
:10304000C1832320F4C4EFF0EFFAB167938707F050
:103050002320F4C46FD00F90EFD28F8D9D4713843F
:10306000C18B6303F50008C01C401547636EF70071
:1030700019678A071307C7C5BA979C43828783A736
:10308000818C89E7EFF09FFA994711A095471CC002
:1030900001A8EFF0BFF991471CC0054723A4E18CBC
:1030A0006FD04F8B89475CA08D47D5B75C20FD174B
:1030B00093F7F70F5CA05C2093F7F70FF5F39147B8
:1030C000F9B737670040832707C4C207C18393E776
:1030D00007012320F7C495471CC0A9475CA0C9B7C6
:1030E0005C20FD1793F7F70F5CA05C2093F7F70FB8
:1030F000C5FB37670040832707C4C207C183BD9B58
:10310000C207C1832320F7C499471CC023A4018CA4
:1031100041BF01A097E1FF1F9381C19917210020B2
:10312000130141EE17350000130505E097D5FF1F89
:10313000938545ED1386818563FAC50083220500DA
:1031400023A0550011059105E3EAC5FE138581858D
:10315000938501CB6377B500232005001105E36D4E
:10316000B5FEFD42739002BC8D4273904280930283
:1031700080087390023097D2FFFF9382E2E893E2D7
:10318000320073905230EFE08FAC97E2FFFF9382F2
:10319000421D7390123473002030EFC27FF9B727BD
:1031A000014093870740631CF50085451305002007
:1031B0004123814513050020A52B6FC0BFF9B73708
:1031C000014093870780E31AF5FE8545130500400B
:1031D0008523814513050040C5B75C413707F1E001
:1031E0001307F7EF944D7D8F9C41D58FD44DD58F2C
:1031F000D441A206D58FD98F5CC11C4537F7F1FFAA
:103200001307D77FD4457D8F9C49D58F944586067B
:10321000D58FD98F1CC55C55370710FF7D177D8F63
:10322000DC29FD1793F7F70FD207D98F5CD5828081
:103230001C4589C593E717001CC58280F99BEDBF2B
:103240001C4593E787001CC5828008450D810589D0
:1032500082801C4593E747001CC582800845098190
:10326000058982801C4591C537075000D98F1CC540
:1032700082803707B0FF7D17F98FD5BFA54763F769
:10328000B7048D47138765FF3307F7020328C5008E
:103290009D47B397E70093C7F7FFB3F70701B396CE
:1032A000E600DD8E54C5994763E3C70495477D1654
:1032B0003306F6025859FD47B397C70093C7F7FF87
:1032C000F98F3396C5005D8E50D982800D473387C4
:1032D000E502032805019D47B397E70093C7F7FF71
:1032E000B3F70701B396E600DD8E14C96DBFB14791
:1032F00063E2C702954765163306F6021859FD4783
:10330000B397C70093C7F7FFF98F3396C5005D8E5B
:1033100010D9828095474D163306F6025855FD4761
:10332000B397C70093C7F7FFF98FB395C500DD8D3D
:103330004CD582806845420541818280B727014093
:1033400093870740984711C5B7068000558F98C7E7
:103350008280B70680FFFD16758FD5BF08416D8D41
:103360003335A00082805841032805004C453706BC
:103370000140930706403E979346F8FFB1C5832569
:103380000640F58D2320B640D043F18ED4C31443BC
:10339000B3E6060114C3184190479346F7FF758EB4
:1033A00090C7D047F18ED4C7144541466399C600F3
:1033B0009447D98E94C7D447558FD8C78280B69783
:1033C0009443558F98C382801C43F58F1CC3828021
:1033D000B707014023AAA74082809C4513F7070145
:1033E00013F8F70001C7D8413368E80037270240D7
:1033F000145B3707000F758F4DEB85462386D18C04
:10340000371701406315E5009A2135839AA18E2173
:1034100013F7F50F39C318418146854E3D4F930F81
:10342000800293028004214E3396DE00B3F8C5007B
:10343000631116039398260033131F011343F3FF00
:103440003377E300B318180133E7E8006397F70711
:1034500050C98506E39AC6FD18C11307F00F6375BE
:10346000B70454412146854E3D4F930F800293028D
:103470008004414EB398CE0033F715016392E80201
:103480001317260001173313EF001343F3FFB3762E
:10349000D3003317E800D98E6395F703232A15016B
:1034A0000506E319C6FD54C1828037170140E310B9
:1034B000E5F603C7C18C21DF81BFE39C57F810C933
:1034C00049BFE39F57FC23281501D9BFB717014017
:1034D0006316F50083C7C18C91C3B58108456D8D16
:1034E0003335A0008280B71701406316F50083C70B
:1034F000C18C91C3B5814CC9828023A8A18C8280E4
:1035000003A7018D854714216310F7021C31639CCA
:10351000E7023C21960793E707F837E700E093F7C7
:10352000F70F36972300F740054793D75600331718
:10353000D700544189CE938707048A07B7E600E095
:10354000B69798C38280EDF33C219607F9B793872D
:103550000706B7E600E08A07B69798C30F10000089
:103560008280377700405C4309C593E707105CC34E
:10357000828093F7F7EFE5BFB77700409843136772
:10358000470098C398431367270098C3B7F700E034
:1035900003A707D11367470023A8E7D003A707D1E4
:1035A0005D9B23A8E7D0730050108280B77700405E
:1035B000DC437D8D3335A0008280B777004098438F
:1035C0000A05598D88C38280B71702409843B70611
:1035D000FFF01367170098C3D843758FD8C398437B
:1035E000B706F7FEFD16758F98C39843B706FCFF24
:1035F000FD16758F98C3D843B70601FFFD16758F6A
:10360000D8C337079F0098C78280B7170240D843B6
:10361000B70640FFFD16758FD8C3D8435A05598D9C
:10362000C8C38280B7160240DC4251777D17F98FFC
:103630005D8DC8C28280371702405C439146B18BD2
:103640006385D700A1466382D706B7177A009387B0
:1036500007201CC1371602405C42370700201307C1
:10366000470D9183BD8BBA9794231C41B3D7D700E4
:103670005CC15442A1829D8ABA969422B3D6D700E7
:1036800014C55442AD829D8A36971823B3D7E700FC
:103690005CC5584239839376370013870184369787
:1036A0001823B3D7E7021CC982805C435843C16624
:1036B000C983BD8B758F8907C5466393D700C947FA
:1036C00001EF3747024003270780418B09CF3717A7
:1036D0007A001307072021A8371702405843931692
:1036E000E700E3D606FE37173D0013070790B387C0
:1036F000E70285B799C5371702401C4F5D8D08CF8B
:103700008280B7170240984F1345F5FF798D88CF17
:10371000828099C5371702405C4F5D8D48CF82800B
:10372000B7170240D84F1345F5FF798DC8CF828077
:1037300099C5371702405C475D8D48C78280B7172F
:103740000240D8471345F5FF798DC8C7828099C5D7
:10375000371702401C4B5D8D08CB8280B7170240A3
:10376000984B1345F5FF798D88CB82801E21373722
:103770000140130707C0C207C1836300E502370792
:103780000040630CE500130707406308E5003717A6
:103790000040130707806316E500BA2193F7F7F896
:1037A000D98FFA2193F7F7CFC207C183D98F1EA112
:1037B000DE215EB59E211EB5B7370140938707C055
:1037C0006314F5009C251EB985475EA982801E31D1
:1037D00003D88500C207C18393F7F7EFC207C183FF
:1037E0001EB11E3156215A2DC207139606014207FB
:1037F000962141831377C7F8558FB621C18393F77C
:10380000F7DFB3E60601A206D58FB7360140C2073F
:10381000938606C04182C183631FD502FD769386DD
:10382000F67FF58FB62503D8C500A206D58FD62121
:10383000C207C183A20693F7F7BFD58FF576FD16B1
:10384000F18EF225C207C183336606011206D18EBE
:1038500013960601418252A15AADFA215ABD1EB1FA
:1038600082801A31FD77FD17F98F1EB103580502CA
:1038700056215E2D657792211307F7CF7D8FF9775B
:103880002206FD17518FB3F70701B22103D8850037
:10389000C2064207336606013206D18F3736014031
:1038A000C207130606C0C1824183C183631AC500E3
:1038B00071767D16F18ED2251A06D18EC206C1828E
:1038C00056A15AADFA212310E5041EB182801E21B3
:1038D00089C593E717001EA18280C207C183F99BA7
:1038E000C207C183CDBF1E2189C593E707081EA16A
:1038F0008280C207C18393F7F7F7C207C183C5BFB0
:103900005E2DC207C183DD9BDD8D4EAD82805A2DB9
:10391000FD779387F77FF98FA205CD8FC207C1830B
:103920005EAD82804EBD82802310B5048280EFC2DE
:103930003F801A29F577FD17F98FFA2101112A84A2
:10394000D98F1EA99A25DE215625AE84D98FBA2596
:10395000D98F7D771307379F758FD98F5EA55E2925
:10396000DA25C207C18393F7F7CFD98F5EA9680024
:10397000EFF07FCCB7470140938707806316F404CC
:10398000E2476545B335F502904081460A063305A6
:10399000F502C922930640063357D5021207935702
:1039A0004700B387F6021D8D931745001385270343
:1039B0009307F06363FCA7001305070142054181EB
:1039C0000AA405616FC00FF9D24765BF3355D50210
:1039D000598DEDB791C55E250967D98F5EA58280A7
:1039E0005A25F977FD17F98FD5BF93F5F51F4EA12D
:1039F00082800A216D8D3335A000828083A7C1812A
:103A000037177A0013070720B3D7E70293F7F70FAA
:103A1000238BF18C1307803EB387E702239AF18C46
:103A20008280B7F700E0D8438146799BD8C303C7AB
:103A3000618D3306A70290CBD4CB9843136707015F
:103A400098C398431367170298C3D843058B75DF53
:103A50009843799B98C38280B7F700E0D8438146AA
:103A6000799BD8C303D7418D3306A70290CBD4CB23
:103A700098431367070198C398431367170298C3C5
:103A8000D843058B75DF9843799B98C38280EFC23A
:103A90002FEA2A841165011185451105EFF09FC5B4
:103AA000930700207C82371501408D473EC44C00AF
:103AB000E147130505803EC6EFF03F9222C8374428
:103AC0000140B70708000C08130504803ECC02CA69
:103AD000231E0100EFF0BFE5854513050480EFF0DC
:103AE0007FEF05616FC00FE7EFC2EFE2B74401401F
:103AF000AE89328901449384048063492401CA85D4
:103B00004E85EFD0FFB54A856FC02FE493050004C2
:103B10002685EFF01FEE7DD9B387890083850700E6
:103B200026850504C205C181EFF03FECF9B7138784
:103B300041841C43938601CB3E95636BD500B756F9
:103B400000209386068063E5A60008C33E85828038
:103B5000FD57EDBFB687B2882A832E88639B061473
:103B600063F8C50A4167636BE61AB7070001636033
:103B7000F63493568601E147172700001307C70F55
:103B800036971823BA97130700021D8F19CB339865
:103B9000E500B357F500B318E60033E80701331327
:103BA000E50013D608013355C80293960801C18277
:103BB000935703013377C802B385A60242073368DF
:103BC000F700637AB80046989307F5FF636418011D
:103BD0006365B8303E853308B8403357C8024203A6
:103BE000135303013378C802B386E60242083368F0
:103BF0006800637BD80046989307F7FF6365180158
:103C000079176363D8003E874205598D81458280CC
:103C100001E60547B358C702416763E8E80EB707F6
:103C2000000163EAF82893D68801E14717270000CE
:103C30001307870436971423BE9693070002958FC7
:103C4000FDE7939E08013387154113DF080193DEDA
:103C50000E018545935703013355E7033377E70397
:103C6000B306D5034207D98F63FAD700C697130767
:103C7000F5FF63E4170163E5D7263A85958F33D7BF
:103C8000E703420313530301B3F7E703B30ED7036C
:103C9000C207B3E7670063FBD701C6979306F7FF38
:103CA00063E51701791763E3D70136874205598D1C
:103CB000828063E1D504C16763E1F604B7070001C0
:103CC00063E3F61E13D786016148972700009387A8
:103CD000A7FABA979823130E00024297330EEE40CC
:103CE000631A0E0C63EDB61C3335C5001345150081
:103CF000814582808145014582809307F00F63F3FF
:103D0000D71C13D786002148C9B71307F00FC68602
:103D1000E37E17F193D68800A14709BF1307F00F80
:103D2000B286E37BC7E493568600A147B1B5B3984A
:103D3000F80033D6D50013DF0801335EE60333976E
:103D4000F500B356D500558F939E080193DE0E0102
:103D50003313F50093550701B376E603B387CE031B
:103D6000C206CD8E63FBF600C6961306FEFF63E423
:103D7000161763F2F616791EC6969D8E33D6E603A5
:103D800093170701C183B3F6E6033385CE02139779
:103D900006015D8F637BA70046979307F6FF636874
:103DA00017136376A7127916469793150E01098F9C
:103DB000D18D4DB5B357E600B396C601DD8E33D332
:103DC000E50013DF0601B357E303939E060193DE7C
:103DD0000E013398C5013357E50033680701935846
:103DE00008013316C6013373E303B385FE024203B1
:103DF000B368130163FBB800B6981387F7FF63EA53
:103E0000D80C63F8B80CF917B698B388B84033D714
:103E1000E803420813580801B3F8E8033383EE02BD
:103E2000C208B3E5080163FB6500B6951308F7FF08
:103E300063EDD50863FB65087917B695C207416F36
:103E4000D98F1307FFFFB3F6E70093D80701718FEF
:103E50004182B38EE602B3856540B386C60213D8AD
:103E60000E013387E802BA96C2963386C80263F31E
:103E7000E6007A9693D80601469663E2C50263850A
:103E8000C5003E858145828041677D17F98EC20657
:103E9000B3FEEE003315C501F696E374D5FE138527
:103EA000F7FF8145828013D70601414839BD9356FB
:103EB0000601C147D1B193D60801C14785BB8145F1
:103EC000054582803687014809B5428785BF3E8611
:103ED000E9BDBA871DBF328E4DB579154698E5B953
:103EE0007915C69761BB29468145D1AC0325C50E1E
:103EF0008280938781849C439C5389E797C7FF1FE7
:103F00009387871E03A5C70E828091ED41116C0037
:103F1000014501CA795591C61C229CC1082233353E
:103F2000A00041018280014509CA795599C61C2229
:103F30009CC108223335A0008280828039713EDA2C
:103F40002ED232D436D63AD842DC46DE93878184EC
:103F500022CC804326CA06CEAA8409C41C4C99E30D
:103F60002285712D0C4454102686228536C6EF001A
:103F7000702DF2406244D24421618280011126CA30
:103F80004AC806CE22CC4EC652C4AA842E8901C588
:103F90001C4D91E3AD259C4C804499E326858525F5
:103FA00097270000938787F0631BF402C0405E24CC
:103FB000A18BB1C71C48A1C7FD59294A1C448345A0
:103FC0000900FD17B1E91CC463DD07062286A94577
:103FD00026852924FD576308F502294535A0972732
:103FE00000009387A7EE6314F4008044C9B79727B5
:103FF00000009387A7E9E31CF4FAC0444DBFA285F3
:104000002685552C55D97D55F2406244D24442490B
:10401000B249224A056182801CC4050963D70700A2
:10402000184C63CAE700638845011C4013871700DA
:1040300018C08CA361B7228626854D22E31035F97E
:10404000D9B71C401387170018C0294798A371B728
:1040500093878184AA8588436FF05FF215C27D162D
:104060000147B307E500B386E5009C2394226396DD
:10407000D7006304C7000507EDF73385D74082807A
:104080000145828079714AD04ECE06D622D426D2FE
:10409000AA892E899304190003C4F4FF3A8536C611
:1040A00032C42EC23AC0EFF07FE422951C310247A1
:1040B0009245A18B2246B246D1E39307D002631109
:1040C000F4089C20054393042900E5C6414763900A
:1040D000E60213070003639CE7009C20130780059A
:1040E00093F7F70D6392E70C9C30C1468904B7083B
:1040F00000806314030093C8F8FF33FFD80201481F
:104100000145A54FE54EFD5233DED802138707FD6A
:1041100063E3EF04BA8763DED704630D58007D586C
:10412000636AAE006314AE006346FF000548338542
:10413000A6023E95850483C7F4FFC9BF268999BFAF
:104140009307B0026305F400A2870143BDBF9C2022
:1041500093042900DDBF1387F7FB63E5EE00938727
:1041600097FC55BF1387F7F963E5EE00938797FA3D
:104170005DB7FD57631FF8009307200223A0F900E5
:10418000468519EEB250225492540259F2494561C3
:104190008280630403003305A0406DD663040800E9
:1041A0009385F4FF0CC2F9BF93070003A9F2A1465F
:1041B0003DBF13070003E382E7F2A9460DBF9387D3
:1041C00081849C43B286985309E717C7FF1F1307E2
:1041D000A7F12E86AA853E856FF0DFEA011122CC79
:1041E00026CA4AC806CE4EC6AA842E89328401C584
:1041F0001C4D91E3292197270000938727CB631754
:10420000F406C0401C4C1CC45E24A18BC1C31C48D6
:10421000B5CF1C4808409379F90F1379F90F1D8D1C
:104220005C486346F500A2852685652C25E51C447F
:104230000505FD171CC41C401387170018C02380F8
:1042400037015C486388A7005E24858B81CBA94732
:104250006316F900A285268569240DEDF2406244BB
:104260004A85D2444249B2490561828097270000BD
:104270009387C7C56314F400804469B7972700008B
:104280009387C7C0E310F4F8C044ADBFA28526856C
:104290001D2041D17D59D9B789CD9307F00F63F720
:1042A000C7009307A0081CC17D55828090A10545D9
:1042B00082800145828041119387818426C2844394
:1042C00022C44AC006C62A892E8489C49C4C99E31C
:1042D0002685352697270000938747BD631BF40288
:1042E000C0400317C40093170701C18393F68700EA
:1042F000ADEA93F6070195EEA5472320F900136771
:1043000007045AA47D55B240224492440249410117
:10431000828097270000938767BB6314F400804472
:10432000C9B797270000938767B6E31CF4FAC04427
:104330004DBF918B9DC34C5889C993074404638436
:10434000F5004A85292B232A04025E242322040037
:1043500093F7B7FD5EA41C481CC05E2493E787005A
:104360005EA41C4899EB5E241307002093F70728EE
:104370006385E700A2854A8591295E2413F717001B
:104380001DC35C4823240400B307F0401CCC1C4828
:104390000145B5FB8317C40013F707082DD793E732
:1043A00007045EA485B7898B014791E3584818C478
:1043B000F9BFDE25011122CC26CA06CE4AC84EC658
:1043C00013F78700AA842E8479EBD841634DE0006F
:1043D000B841634AE0000145F2406244D244424998
:1043E000B2490561828058547DD703A90400939691
:1043F000370123A0040063DB060670485E24918B1E
:1044000099C75C401D8E5C5899C33C401D8E5C541E
:104410000C50814626858297FD575A24631DF5006E
:104420009440F54763E8D706B70740208507B3D720
:10443000D700858BA5C31C48232204001CC09317FA
:10444000370163D80700FD576314F5009C4091E3E2
:1044500068C84C5823A02401BDDD9307440463843D
:10446000F5002685ED2E232A0402B5B70C5001462F
:10447000854626850297FD572A86E311F5F89C406C
:10448000B5DF75476385E70059476393E70423A0C9
:10449000240191B7136707045AA47D5535BF83A93A
:1044A0000501E38A09F203A905008D8B23A03501DC
:1044B00033093941014791E3D84918C4E35D20F13C
:1044C0001C540C50CA864E86268582976347A000EE
:1044D0005E2493E707045EA4C9B7AA993309A940EB
:1044E000F1BF9C49A5C3011122CC06CE2A8411C577
:1044F0001C4D81E72EC62122B245972700009387E5
:10450000E79A639CF5004C408397C5009DC72285C0
:104510006244F24005616FF0DFE99727000093875E
:10452000E79A6394F5000C44C5B79727000093877A
:10453000E795E39BF5FC4C44C1BFF2406244014562
:104540000561828001458280411122C406C62A8409
:104550004EA572A523200500232205002324050073
:104560002322050623280500232A0500232C050005
:10457000214681451305C505EFB09FBE9717000082
:10458000938787B25CD0971700009387A7B41CD499
:1045900097170000938787B85CD49717000093871C
:1045A000E7BA00D01CD8B24022444101828097056E
:1045B0000000938545F391AA411126C21306800697
:1045C0009384F5FFB384C4024AC02E8922C406C670
:1045D000938544070D2E2A8401CD23200500232234
:1045E0002501310508C4138684068145EFB05FB705
:1045F0002285B240224492440249410182801C4DEE
:10460000A5E7411106C622C497070000938767FA01
:104610001CD5938701859C43232405042326050488
:10462000232805046314F50085471CCD2A8435280A
:1046300048C022851D2808C42285052848C4484052
:1046400001469145EFF05FF008440546A545EFF0BF
:10465000BFEF48440946C945EFF01FEF85471CCC22
:10466000B2402244410182808280411193870185BA
:1046700026C284434AC006C69C4C22C42A8981E7CC
:104680002685EFF0DFF7938484048044DC40FD1737
:1046900063D607009C40B9CF8440C5BF0317C40050
:1046A00039E7C1778507232204062320040023224B
:1046B0000400232404005CC423280400232A0400EB
:1046C000232C0400214681451305C405EFB05FA9E2
:1046D000232A0402232C0402232404042326040492
:1046E0002285B2402244924402494101828013044F
:1046F000840671BF91454A85EFF01FEC88C049FDE3
:10470000B1472320F9000144E1BF797122D44AD096
:1047100052CC56CA5AC85EC606D626D24ECE2A8A71
:10472000AE8A130485040149054BFD5B09ECB250C8
:1047300022544A8592540259F249624AD24A424B63
:10474000B24B45618280044483294400FD1963D43F
:1047500009000040E1BFDE24637BFB008397E40097
:1047600063877701A6855285829A3369A90093846D
:104770008406E9BF1971A6DAAE848395E500A2DC50
:1047800086DE328463DB0500DE2423A0060093F777
:10479000070885E7930700401DA0300836C6EF00E4
:1047A0007020B246E34205FE7247BD67F98F797704
:1047B000BA9793B717009CC2F1BF930700041CC0BF
:1047C000F6506654D654014509618280DE250111F8
:1047D00022CC06CE26CA4AC8898B2E8489CF93075D
:1047E00074041CC01CC885475CC8F2406244D244B3
:1047F00042490561828074003000AA84EFF09FF77F
:10480000A2452A892685012219E98317C40013F7D6
:10481000072061FFF19B93E727005EA4C9B79707C4
:104820000000938707D99CD45E2408C008C893E78A
:1048300007085EA4A2475CC8B24781CF8315E40095
:104840002685EF00D01811C55E24F19B93E7170071
:104850005EA45E243369F9002316240179B7DDC113
:1048600083A7C5FF411122C406C626C21384C5FF13
:1048700063D307003E94AA84EF00301C9387818D98
:104880009C4381EF2322040023AC818C2244B2405C
:104890002685924441016F00701A637EF400144033
:1048A0003307D4006396E7009843DC43369718C07B
:1048B0005CC0D9BFBA87D84319C3E37DE4FE9443F3
:1048C0003386D700631F86001040B29694C33386A8
:1048D000D700E31DC7FA10435843B29694C3D8C318
:1048E00075B76375C400B1479CC04DB71040B3069F
:1048F000C4006316D70014435843B29614C058C07E
:10490000C0C369B78280011126CA93843500F1982B
:1049100006CE22CC4AC84EC6A104B14763F3F404C4
:10492000B14463E2B4042A89EF0030119387818D8A
:1049300098433A8439E09387C18D9C4391E7814540
:104940004A85252F23AEA18CA6854A853D27FD5992
:1049500063193507B1472320F9004A85EF00100E8F
:1049600029A0E3D004FCB1471CC10145F2406244D8
:10497000D2444249B249056182801C40858F63CF91
:104980000702AD4663F6F6001CC03E9404C031A099
:104990005C406313870223ACF18C4A85EF00100A58
:1049A0001305B4009307440061993307F5405DDFB8
:1049B0003A94898F1CC05DBF5CC3C5B72287404055
:1049C00095BF130435007198E30285FCB305A4403C
:1049D0004A856525E31C35FBB5BF1C46FD171CC683
:1049E00063DA0700184E63C5E700A9476394F50032
:1049F0006FF0CFFE1C422E851387170018C28CA3C0
:104A00008280011122CC26CA4AC84EC652C406CEA4
:104A10002A89AE893284B304D6007D5A6314940087
:104A2000014509A80C204E864A85EFF01FFB0504BE
:104A3000E31645FFF2406244D2444249B249224A59
:104A400005618280357122CD26CB4AC94EC706CF7B
:104A500052C556C35AC1DEDEE2DCE6DAAA89AE846C
:104A60003289368409C51C4D99E3EFF05FB9971779
:104A700000009387A7436398F40C83A44900DE24C5
:104A8000A18BE5C79C48F5C393070002A304F1027C
:104A90009307000302D22305F10222C6930B5002B2
:104AA000971A0000938A8A44054C294B4A841C209B
:104AB00099C3639F770DB30C2441638E0C00E68687
:104AC0004A86A6854E85EFF0DFF3FD57630FF51C90
:104AD0009256E69636D21C206389071CFD571309AF
:104AE000140002C802CE3ECA02CCA309010482D43B
:104AF00083450900154656852D2713041900C24722
:104B000051E913F7070109C713070002A309E104DC
:104B100013F7870009C71307B002A309E10483460E
:104B200009001307A002638FE606F2474A84814614
:104B30002546182093051400130707FD6377E60A3E
:104B4000B5CA3ECE85A8971700009387273863958E
:104B5000F40083A4890025B79717000093870733D3
:104B6000E39FF4F083A4C90019BFA6854E85EFF03A
:104B70008FF419D97D55FA406A44DA444A49BA4952
:104B80002A4A9A4A0A4BF65B665CD65C0D618280C3
:104B9000050431BF330555413315AC00C98F3EC8FC
:104BA0002289B9B7324793064700184336C6634790
:104BB00007023ACE18209307E002631DF70418306D
:104BC0009307A002631BF702B2470904138747004B
:104BD0009C433AC663C107023ECA2DA83307E04092
:104BE00093E727003ACE3EC8F1B7B38767038546FF
:104BF0002E84BA973DBFFD57C5B7050402CA81464A
:104C000081472546182093051400130707FD637498
:104C1000E606F9F20C200D46171500001305852D48
:104C2000092511CD971700009387C72C1D8D930779
:104C30000004B397A700424505045D8D2AC80C20E7
:104C40001946171500001305252B1309140023041A
:104C5000B102C12B35C197B7FFFF9387A73A95E7FC
:104C60004247B2471377071009CF91073EC69257C4
:104C7000D2973ED225BDB387670385462E84BA9767
:104C800051B79D07E19BA107D5B7780097060000B3
:104C9000938666D726860C084E8597000000E700AD
:104CA0000000FD572A8AE314F5FCDE2493F707047D
:104CB000E39207EC1255C1B5780097060000938681
:104CC00086D426860C084E85012AE1BF797156CA22
:104CD0009C49BA8A984522D426D24ECE52CC06D6CA
:104CE0004AD05AC85EC6AA892E84B284368A63D353
:104CF000E700BA879CC00347340419C385079CC0EA
:104D00001C4093F7070281C79C4089079CC0032978
:104D1000040013796900631A0900130B9401FD5B09
:104D20005C449840998F634CF9041C4083463404DA
:104D300093F70702B336D000A5EB13063404D285EF
:104D40004E85829AFD576303F5041C401146984036
:104D5000998B544481446397C700B384E64063D37E
:104D6000040081441C4418486354F700998FBE9492
:104D7000014969047D5B63982405014509A88546BE
:104D80005A86D2854E85829A631E75017D55B25032
:104D9000225492540259F249624AD24A424BB24BCF
:104DA000456182800509ADBF3307D40013060003B7
:104DB000A301C7040347540493871600A2978906EA
:104DC000A381E7049DBF85462286D2854E85829ABF
:104DD000E30E65FB050945B7797122D426D24AD086
:104DE0004ECE06D652CC56CA5AC8B689942D9307D1
:104DF00090063289AA842E8413863504638DF602C8
:104E000063E2D706930780056386F61863EDD70043
:104E1000638E062093073004638EF60A930A2404F7
:104E20002301D404C9A0930730066385F60A9307CB
:104E30004006E395F6FE1C40084393F607089305E9
:104E40004500C5C61C410CC363D807001307D00238
:104E5000B307F040A301E404971600009386460AC6
:104E6000294765A8930700076382F61663E5D70212
:104E70009307E0066389F6189307F006E390F6FAC5
:104E80000C401C4313F80508138547006307080608
:104E900008C39C4385A893075007E383F6FE930756
:104EA00080076389F61293073007E399F6F61C43EF
:104EB000D04181459386470014C383AA07005685D5
:104EC0008D2601C53305554148C05C401CC8A3016F
:104ED000040461A81C43930A2404938647009C435E
:104EE00014C32301F4048547D5B793F607041C4186
:104EF0000CC3B9DAC207C18781BF93F5050408C3A3
:104F0000C9D99E231307F0066387E60E97160000A3
:104F1000938606FF2947A30104044C400CC463C5D3
:104F2000050008406D9908C099E3B28A89CDB28A1C
:104F3000B3F5E702FD1AB6958C212380BA00B3D5EC
:104F4000E70263F0E70CA147631EF7001C40858B66
:104F500091CB58401C4863C7E70093070003A38F19
:104F6000FAFEFD1A3306564110C84E87CA867000F5
:104F7000A2852685EFF09FD57D5A631D450B7D5593
:104F8000B250225492540259F249624AD24A424BD8
:104F900045618280A382D50497160000938646F669
:104FA0000C40084313F805081C411105630D080265
:104FB00008C313F7150001C793E505020CC041476C
:104FC000B9FB0C4093F5F5FD0CC0B1B79C4193E7DC
:104FD00007029CC193078007A302F4049716000000
:104FE000938646F375BF13F8050408C3E30308FC72
:104FF000C207C1837DBF97160000938666F02147E4
:1050000019BFAE8735B794411C43CC4913F8060845
:10501000138547006306080008C39C438CC339A06E
:1050200008C393F606049C43F5DA8EA323280400F4
:10503000B28A25BF14485686CA8526858299E30020
:1050400045F51C40898B8DE7B2474844E35AF5F299
:105050003E853DB785465686CA8526858299E300FA
:1050600065F3050A5C443247998FE345FAFEE9BFD0
:10507000014A930A94017D5BF5B7411122C42A8449
:105080002E8523A601CA06C6EFE07FAAFD57631747
:10509000F5009387C1CA9C4391C31CC0B24022440F
:1050A00041018280411122C42E848395E50006C609
:1050B0007922634905007C48AA977CC8B240224403
:1050C000410182805E247D777D17F98F5EA4FDB754
:1050D000DE25011122CC26CA4AC84EC606CE93F759
:1050E0000710AA842E843289B68991C78395E5007A
:1050F0008946014609225E247D777D17F98F5EA4DB
:105100008315E4006244F240CE864A86B2494249A1
:105110002685D244056125A8411122C42E84839599
:10512000E50006C6C928FD575A24631AF500FD7725
:10513000FD17F98F5EA4B240224441018280856749
:10514000D98F5EA468C8C5BF8395E50005A8411145
:1051500022C42A842E85B285368623A601CA06C6B5
:10516000EFE09F98FD576317F5009387C1CA9C43F2
:1051700091C31CC0B240224441018280411122C42B
:105180002A842E8523A601CA06C6C520FD576317AB
:10519000F5009387C1CA9C4391C31CC0B24022440E
:1051A00041018280411122C42A842E85B28523A622
:1051B00001CA06C6C920FD576317F5009387C1CA07
:1051C0009C4391C31CC0B2402244410182804111E2
:1051D00022C42A842E8523A601CA06C65D20FD5757
:1051E0006317F5009387C1CA9C4391C31CC0B240AA
:1051F000224441018280411122C42A842E85B28535
:10520000368623A601CA06C65920FD576317F50046
:105210009387C1CA9C4391C31CC0B2402244410140
:10522000828093F5F50F2A966314C50001458280AC
:105230001C21E38EB7FE0505C5BF82808280411127
:1052400022C42A842E85B285368623A601CA06C6C4
:10525000A920FD576317F5009387C1CA9C4391C3EA
:105260001CC0B2402244410182809307800523A6DE
:10527000F1CA7D5582809307800523A6F1CA7D552A
:1052800082809307800523A6F1CA01458280930797
:10529000800523A6F1CA7D5582809307800523A649
:1052A000F1CA7D558280000048454C500000000046
:1052B0000D0A3D3D3D2043483332563230332054B1
:1052C0006163746963616C20574D4C20446562755D
:1052D0006720434C49203D3D3D0D0000535441544F
:1052E00055532020202020202020202020202D2049
:1052F00051756572792073797374656D207374616B
:1053000074757320696E204A534F4E0D00000000E3
:105310005345542050574D31203C302D31303030E2
:105320003E202D20536574203335333520574C45AE
:1053300044206272696768746E6573730D000000C3
:105340005345542050574D32203C302D31303030B1
:105350003E202D20536574203635306E6D204C6113
:10536000736572206272696768746E6573730D008D
:10537000534554204D4F4445203C302D353E202090
:1053800020202D20303A4F464620313A313030250A
:105390002520323A3235252520333A4455414C20D8
:1053A000343A5354524F424520353A534F530D0A25
:1053B000000000005345542054494D454F5554209A
:1053C0003C7365633E202D20536574206175746FB6
:1053D0002D7374616E6462792074696D656F757484
:1053E0000D000000495350202020202020202020A4
:1053F0002020202020202D204A756D7020746F20E1
:10540000666163746F72792055534220426F6F74E6
:105410006C6F616465720D005245424F4F542020FD
:10542000202020202020202020202D20536F667453
:105430002073797374656D2072657365740D000057
:105440003D3D3D3D3D3D3D3D3D3D3D3D3D3D3D3D8C
:105450003D3D3D3D3D3D3D3D3D3D3D3D3D3D3D3D7C
:105460003D3D3D3D3D3D3D3D0D0000004745542047
:1054700053544154555300007B226261745F6D7632
:10548000223A25642C2274696572223A25642C2202
:105490007374617465223A25642C2270776D312211
:1054A0003A25642C2270776D32223A25642C2274BE
:1054B000696D656F7574223A25642C227379736364
:1054C0006C6B223A25647D0D0A0000005345542080
:1054D00050574D31200000004F4B3A2050574D316E
:1054E0002073657420746F2025640D0A000000008D
:1054F0005345542050574D32200000004F4B3A2066
:1055000050574D322073657420746F2025640D0A46
:1055100000000000534554204D4F4445200000003A
:105520004F4B3A204D4F44452073657420746F20D3
:1055300025640D0A000000004552523A20496E765B
:10554000616C6964206D6F64652028307E35290D9B
:10555000000000005345542054494D454F555420F8
:10556000000000004F4B3A2054494D454F55542000
:1055700073657420746F202564207365636F6E6497
:10558000730D0A004552523A2054696D656F757467
:10559000206D75737420626520317E333630302083
:1055A0007365636F6E64730D000000004953500013
:1055B000424F4F544C4F4144455200004F4B3A200C
:1055C0004A756D70696E6720746F2055534220498B
:1055D000535020426F6F746C6F6164657220696E06
:1055E0002035306D732E2E2E0D0000005245424F97
:1055F0004F54000052455345540000004F4B3A2091
:105600005265626F6F74696E672E2E2E0D0000005A
:105610004552523A20556E6B6E6F776E20636F6DF8
:105620006D616E6420272573272E205479706520C4
:105630002748454C502720666F7220636F6D6D615F
:105640006E64732E0D0A00000D0A5B4953505D20F5
:10565000456E746572696E6720466163746F727916
:105660002049535020426F6F746C6F6164657220E3
:105670004D6F64652E2E2E0D0000000046090000BF
:1056800056090000720900009E090000C0090000D0
:10569000DA090000E6090000080A0000260A0000F6
:1056A000120C00001E0C0000260C0000300C000044
:1056B0003C0C0000420C0000480C0000540C0000A0
:1056C000D20E0000D60E0000DE0E0000E60E000036
:1056D000FE0E00005B5057525D20456E7465726986
:1056E0006E67204C6F772D506F7765722053746111
:1056F0006E646279204D6F64652E2E2E0D000000C1
:105700005B47554E4C494748545D20496E697420AB
:10571000436F6D706C657465642E0D005B47554E6C
:105720004C494748545D20436C69636B3A204D6F88
:1057300064652031205475726E6564204F6E0D00D3
:105740005B47554E4C494748545D20436C69636B39
:105750003A204D6F6465203220284D61696E2032F9
:105760003525290D0A0000005B47554E4C49474836
:10577000545D20436C69636B3A204D6F6465203340
:1057800020284D61696E202B20417578290D00007D
:105790005B47554E4C494748545D20436C69636BE9
:1057A0003A20416C6C204F66662C203130732063A8
:1057B0006F756E74646F776E20746F205374616EB2
:1057C0006462792E2E2E0D005B47554E4C4947489A
:1057D000545D20436C69636B3A20457869742053AB
:1057E00070656369616C204D6F6465202D3E2041BA
:1057F0006C6C204F66660D005B47554E4C49474820
:10580000545D20446F75626C6520436C69636B3A2C
:10581000203130487A205374726F6265204D6F6476
:10582000650D00005B47554E4C494748545D205478
:105830007269706C6520436C69636B3A20534F53F7
:10584000204469737472657373204D6F64650D0035
:105850005B47554E4C494748545D204C6F6E672D51
:1058600070726573733A20416C6C204F666621201C
:10587000436865636B696E6720666F7220387320BA
:1058800049535020686F6C642E2E2E0D00000000CE
:105890005B47554E4C494748545D20387320686F2C
:1058A0006C642072656163686564202D3E20456EDE
:1058B0007465722049535020426F6F746C6F61643D
:1058C0006572210D000000005B47554E4C4947486A
:1058D000545D20416C6C204F666620636F6E666974
:1058E000726D65642C2031307320636F756E746443
:1058F0006F776E20746F205374616E6462792E2E00
:105900002E0D00005B47554E4C494748545D2054CE
:1059100075726E6564204F6E202D3E204D6F64655C
:1059200020310D005B5057525D20426174746572E6
:105930007920437269746963616C20283C20322E9F
:105940003935562921204375746F66662070726F51
:1059500074656374696F6E207472696767657265D8
:10596000642E0D005B5057525D2042617474657265
:10597000792054696572205377697463683A2025E9
:1059800064202D3E2025642028566261743D2564E4
:10599000206D56290D0A00000100140000001400BB
:1059A00001001400000014000100140000003C007D
:1059B00001003C000000140001003C000000140045
:1059C00001003C0000003C00010014000000140035
:1059D00001001400000014000100140000008C00FD
:1059E0000D0A3D3D3D3D3D3D3D3D3D3D3D3D3D3D4A
:1059F0003D3D3D3D3D3D3D3D3D3D3D3D3D3D3D3DD7
:105A00003D3D3D3D3D3D3D3D3D3D0D00202043485C
:105A10003332563230334638553620546163746918
:105A200063616C2047756E6C696768742028574DF8
:105A30004C2920200D000000202053797374656DDF
:105A400020436C6F636B203A20256420487A0D0A4E
:105A50000000000020205553422043444320564379
:105A60005020203A2052656164792028504131311C
:105A70003A444D2C20504131323A4450290D000017
:105A80005B5057525D2057616B6575702066726F71
:105A90006D204C6F772D506F776572205374616E57
:105AA000646279210D0000005B5057525D204B6508
:105AB000792050726573736564206F6E2057616B37
:105AC0006575702F426F6F743A20436865636B6928
:105AD0006E6720387320686F6C6420666F7220498F
