:040000006F10E00697
:100004000000000000000000E6090000E80900000C
:10001400000000006C100000000000000000000060
:100024006C1000006C1000000000000000000000D4
:100034006C100000000000006C10000000000000C4
:100044006C1000006C1000006C1000006C100000BC
:100054006C1000006C1000006C1000006C100000AC
:100064006C1000006C1000006C1000006C1000009C
:100074006C1000006C1000006C1000006C1000008C
:100084006C1000006C1000006C1000006C1000007C
:100094006C1000006C1000006C1000006C1000006C
:1000A4006C1000006C1000006C1000006C1000005C
:1000B4006C1000006C1000006C1000006C1000004C
:1000C4006C1000006C1000006C1000006C1000003C
:1000D4006C1000006C1000006C1000006C1000002C
:1000E4006C1000006C1000006C1000006C1000001C
:0C00F4006C1000006C1000006C1000008C
:10010000397101436EC619A0397141536AC866CA74
:1001100062CC5ECE19A0397101535AD056D252D456
:100120004ED64AD826DA22DC06DE330161408282CE
:1001300041114AC026C222C406C68282B24D410184
:10014000024D924C224CB24B4101024B924A224A40
:10015000B2494101024992442244B24041018280A5
:100160003D432A876373C3029377F700BDEFADE584
:10017000937606FF3D8ABA960CC34CC30CC74CC796
:100180004107E36BD7FE11E28280B306C3408A06C3
:100190009702000096966780A6002307B700A30683
:1001A000B7002306B700A305B7002305B700A304D3
:1001B000B7002304B700A303B7002303B700A302CB
:1001C000B7002302B700A301B7002301B700A300C3
:1001D000B7002300B700828093F5F50F9396850052
:1001E000D58D93960501D58D61B79396270097021B
:1001F000000096968682E78086FA9680C1171D8F4A
:100200003E96E374C3F8A5B7EFF29FF2372401409E
:10021000AA859D46054613050440EF00D07B854521
:1002200013050440EF00B079930404408945268506
:10023000EF10600865DD13050440EF10400519BF9D
:1002400003C701835DE7EFF2BFEE79711306000289
:100250008145080813840183213785451305402013
:1002600002C202C402C6EF10802F2165EF102022C7
:100270003715014089474C0013050580B72401401C
:100280007C8202C6EF10C00313850440EF00906625
:10029000B7070E000C083ECE1385044085472302A5
:1002A000F10202C802CA02CC02D0EF00B0680545D4
:1002B000EF00707E854513850440EF00106D1385B7
:1002C0000440EF00906D138904404A85EF00906D63
:1002D0006DFD13850440B7240140EF00306D938419
:1002E00004402685EF00306D6DFD85471CA04561FB
:1002F00095B58280EFF2DFE3138401831C20411166
:10030000A9C737250140814513050540EF00F06777
:100310000145EF005078814513050020EF1020249F
:100320003715014089474C00130505802313010050
:1003300023140100231501002316010023170100D7
:100340007C82EF00F07723000400410121B5EFF239
:100350003FDE83C7018391E3E535A14401440545B0
:100360006535FD142A94E5FC0D8011494545693D2C
:100370007D19AA94E31C09FE8980C1679396040144
:10038000FD17C1821307401F7D8C637DD700056573
:10039000130505963305A402FD8C335595024205DD
:1003A00041814DBB09651305859C3305A40231814C
:1003B000FDB7EFF2FFD737350000130585EFEF10DB
:1003C00070290D23053F1D456D2E1305C012EF103A
:1003D000404F9307800873B007800F100000752C02
:1003E000B7F700E023A0070023A20700814694C7C7
:1003F0000147D8C794CBD8CBB7E500E08147FD567D
:100400002146139727002E972320D7182320D7287B
:100410008507E398C7FE85457D55EF100018814597
:100420007D55EF10801785457D55EF10E01881450B
:100430007D55EF106018EF10600173105030B72237
:100440000000938202807390023037510020B7F28F
:10045000FF1F828201A0EFF2BFCD411185451145FA
:1004600002C202C402C6EF10800F85473714014054
:100470007C82930780023EC64C008D4713050480A2
:100480003EC4EF00F063930700047C824C009307A6
:100490008004130504803EC6EF00906223AA018207
:1004A000239C01822399018241016DB1EFF25FC863
:1004B00037150140854513050580EF00906F7D15C8
:1004C0001335150041B9EFF2BFC6CD37938641838E
:1004D00098422146636FE60E8D660A079386C6F240
:1004E0003697184393874183028719E1014599A004
:1004F000054798C3239C0182D5BF69C99386818330
:100500009A220507420741839AA28546E3F0E6FE58
:10051000094798C3E1BF05C1938681839A220507E5
:10052000420741839AA293067007E3F1E6FC214754
:1005300098C3114505B10D4798C3239901827DB732
:10054000938621839A220507420741839AA219C103
:10055000114745B7F546E3FBE6F823A0070005453C
:10056000D1BF65DD938681839A22050742074183C7
:100570009AA28546E3FCE6F6154761BF51FD19478F
:1005800098C3239901827DB7938621839A22050718
:10059000420741839AA219C11D47A1BFF546E3F75F
:1005A000E6F423A00700094571B765DD93868183D2
:1005B0009A220507420741839AA28546E3F8E6F2AC
:1005C000214798C30D45BDB7E31205F223A00700EC
:1005D00031BF23A0060019BFEFF29FB537150140C8
:1005E0009305000413050580EF00B05CB7070020F9
:1005F00003C6070885461387070893371500630865
:10060000D600814709E689476303D500814708A3DF
:100610003E8589B6EFF2DFB12205498E13950501BB
:10062000518D9307800873B007800F10000003A35B
:10063000418003AE818003A8C18083A80181B71ED9
:100640000140DD474147FD553356F50093860E8046
:10065000058A98CA0DCA42867D167DFED8CAC6860E
:10066000FD16FDFEFD17E391B7FE9307800873A00A
:100670000780B7170140414723AAE780130500050B
:10068000EF10C020C1BC1A867D167DFED8CAF28646
:10069000C1BFEFF2FFA9BD3F75BCEFF27FA90146D4
:1006A00023AE01828145014523900184A53737158A
:1006B0000140C14513050580EF00505161BCEFF2C8
:1006C0003FA741118545114502C202C402C6EF0091
:1006D0001069C1477C8237150140C1473EC64C00B6
:1006E0008D47130505803EC4EF00903D83A68181B0
:1006F00037470F001306F723A1476376D600930709
:100700000724B3D7F6021303C0128568138788BB8A
:1007100013050032138841809388F876338367028B
:10072000B356E3023385A7022320D800B356E5026F
:1007300023A4D18023A6D1809306E015B387D702E6
:10074000938581801386C18033D7E70223A8E18097
:100750009386018163E5680009472320E8000D675F
:100760001307F7ED6365A700114798C118C2056725
:100770001307F7766364F70089479CC2393F41014C
:10078000D1BA9387C18398436306A70688C3239091
:1007900001849D4763E0A706EFF29F998D679387D9
:1007A00007F50A053E951C418287014681450145B2
:1007B00095356FF03F9A01469305F00FCDBF1306B4
:1007C000F00F93058007E5B701469305000A13056E
:1007D000F00FF9BF01468145DDBF1306F00FE9BFF9
:1007E0001306F00F81451305800CD9B70146930518
:1007F000800CF1BF8280EFF2BF93138701841E2328
:1008000083A6C1838507C207C1831EA31146638ED9
:10081000C60215466386C6040D466396C602930655
:1008200020036396D70001468145014521A8930620
:10083000300663FAF6002310070001469305000A0C
:100840001305F00FC13B6FF0FF90B146E38DD7FC6D
:10085000E146E3FAF6FE2310070001468145CDB7D5
:10086000E383D7FCA546E3F0F6FE2310070013064A
:10087000F00F9305F00F55BFEFF29F8B9307803E6B
:100880009305803E63E3A700AA8583A74181C20543
:10089000C181B385F5029307803E37050040B3D58B
:1008A000F502C205C181EF00906E6FF0BF8AEFF2D2
:1008B0003F889307803E9305803E63E3A700AA85A7
:1008C00083A74181C205C181B385F5029307803EAC
:1008D00037050040B3D5F502C205C181EF00706B4A
:1008E0006FF05F87EFF2DF84814537050040EF004E
:1008F000106A814537050040EF00B0696FF09F85B1
:10090000EFF21F8379718545114502CA02CC02CEF0
:1009100002C402C62318010002D002D202D402D6B9
:10092000EF00F04385450545EF005045B147FC8297
:1009300037150140E1473ECE4C088D471305058031
:100940003ECCEF00F01703A78181B756204E956784
:10095000938707E29386F6E1B357F70263EBE60667
:10096000FD1701472C003705004023AAF180788449
:100970007C862317010023150100EF00D045C167D5
:10098000938707060C10370500403ED02313010261
:1009900023140102EF00504AA14537050040EF0043
:1009A000D05C0C1037050040EF005052A1453705D0
:1009B0000040EF00705C854537050040EF0050595E
:1009C000854537050040EF003057293F45616FF0FE
:1009D0006FF8B706204E3357D70293061700B3D7E8
:1009E000D702FD1741B701A0B707EFBE37E700E018
:1009F000938707083CC701A0EFF28FF383C7A18557
:100A000099CB03A7418489476316F7061305A00F06
:100A1000A5350145A1A083A7C18499E3E13581A053
:100A200003A74184894613052003E303D7FEFD177E
:100A30009146E3E5F6FE8D668A07938606F7B6973C
:100A40009C4382878547C9B785471305A00F630478
:100A5000F7001305803E0D351305803E893D6FF08C
:100A60006FEF83C761850145C5D785471305E0153D
:100A7000E300F7FA1305803E61BF83C701859396B3
:100A800027008D6793878724B6979C23F9FF79B752
:100A9000EFF20FEA37350000130545F8EF10803B01
:100AA0009135E53EEFF01F85EFF05FA005E51305FA
:100AB0002003EF001061854537050010EF00102C72
:100AC0000545EF0050120545EF007017EF001013B9
:100AD0006FF04FE82945EF00D05EF9B7EFF24FE530
:100AE000EFF0FF868567938757B82A841387818440
:100AF00063EEA7021C23850793F7F70F1CA3054796
:100B00006378F702373500001305451DEF10803478
:100B1000D13B014681451305F00FA53E1305C012D8
:100B2000EF00305A9D3EAD376FF0CFE22300070053
:100B300085679386B7C183A541841387418463E2A7
:100B4000860489471CC31043630AB600373500008A
:100B5000A28613054521EF10A01E793D85671387F6
:100B6000F7E00545636D8700138777D4094563680F
:100B700087009387B7C10D4563E3870011451131A5
:100B800065B7938677D463EB860089466396D50074
:100B90009387D7C4E3F987FA85476DB7938797D7CB
:100BA000E3F387FA2320070079BFEFF26FD8EFF065
:100BB0009F8AB933EFF0BFB023A6018423A201843A
:100BC000239A0184239C0184238B01842391018433
:100BD000238D0184238401843133EFF01FAC37353A
:100BE0000000130505FBEF10E0266FF0AFD6EFF223
:100BF0008FD2EFF05F8DAA84EFF01F9E854713849C
:100C0000C184631EF508238DA184FD33014693053D
:100C1000F00F0145EFF0FFA799C8239A0184094717
:100C2000638EE414636A970885476388F40C144064
:100C300091476397F61A138781851E238507C2079C
:100C4000C18363F1F61E9387618523100700982303
:100C50001337170098A34D331C400947FD176364F1
:100C6000F71C138721841E23CD468507C207C18345
:100C700063E6F61A1EA31C4085E383C7A18589EFAE
:100C8000138741851E238507C207C1831EA313074F
:100C9000703E6373F700ED3BB93E6FF00FCB8947B1
:100CA000E31CF5F6238D0184813B1C4081E7EFF0C6
:100CB000DF9E9DB725358DB78D476383F40E914731
:100CC000E397F4F6232004003139EFF01F9DEFF095
:100CD0006FE23735000013050510EF10A0178144AF
:100CE0001309702AB7390000EFF04FFC631B050CA5
:100CF000373500001305851721A81C4089EF04C073
:100D0000EFF00FD4E13BCD39373500001305C5FCBA
:100D1000EF10401429BF639B970018C0F139373595
:100D20000000130505FFEF10A00111B7639AE7005B
:100D30008D471CC0D1313735000013058501C9BF6F
:100D40000D47639EE70023200400693EEFF0FF9407
:100D5000EFF04FDA373500001305050455BFF117E2
:100D6000E3E7F4EC23200400B53EEFF01F93EFF02F
:100D70006FD8373500001305850759BF91471CC050
:100D80000547239C0184238BE184EFF06FCB15454D
:100D9000EFF03F9F9531373500001305850A8DBF71
:100DA00095471CC02388018423990184EFF04FC923
:100DB0001945EFF01F9D8931373500001305450DAA
:100DC00081BF8504C2042945C180EF00902FE37DD7
:100DD00099F013850914EF10E007EFF08FDD29B7C4
:100DE0009547E39BF6E693850185938621859C21B3
:100DF0009A220D66139527001306862405072A9666
:100E00004207322241839AA2636FC7008507494790
:100E1000B3F7E702239006009CA135BD231007001D
:100E2000753991BD1EA383C7A185E39C07E2A1B5D7
:100E3000EFF20FB0054723A6E184239A0184EFF077
:100E40002FC06939EFF05FBB373500001305451B34
:100E5000EF1040006FF00FB0EFF28FAD0545492362
:100E6000BD2AEF005020716513050520EF00D02842
:100E70003735000013050529EF00D07D3735000018
:100E80001305C52BEF00107D83A581813735000048
:100E90001305852EEF00D06A3735000013050530A5
:100EA000EF00507B370500108545C92D05454923C6
:100EB00015E1E539EFF08FDF1DE53735000013054B
:100EC0004535EF003079EFF0BFBC15332945EF0011
:100ED000501FE5BF0545A523373500001305C53272
:100EE000EF005077D931EFF06FDC65D13735000076
:100EF0001305C538EF00107601449304F0313739FB
:100F00000000EFF0AFDA09E937350000130585403E
:100F1000EF001063313F55BF05044204294541806D
:100F2000EF00301AE3FF84FC1305C93CEF00907218
:100F3000EFF02FC8F9B7B71702409843B706FFF094
:100F40001367170098C3D843758FD8C39843B70663
:100F5000F7FEFD16758F98C39843B706FCFFFD1684
:100F6000758F98C3D843B70601FFFD16758FD8C398
:100F700037079F0098C7B746024003A7068013674C
:100F8000070123A0E680D843B706C1FFFD16D8C3EA
:100F9000D843D8C3D84313670740D8C3D843758F05
:100FA000D8C3D843B7061C00558FD8C39843B7069B
:100FB0000001558F98C3984393166700E3DD06FE42
:100FC000D843B7160240719BD8C3D8431367270094
:100FD000D8C32147DC42B18BE39EE7FE8280B7167F
:100FE0000240DC421146B18B138781816385C700C3
:100FF00021466388C702B7177A00938707201CC36E
:10100000B7170240DC43918393F6F700B70700203F
:1010100093870700B69794231C43B3D7D7001CC30C
:101020008280DC42D4424166C983BD8BF18E890740
:1010300045466393C700C94781EEB746024083A681
:101040000680C18A89CEB7167A009386062021A829
:10105000B7160240D4421396E600E35606FEB716D2
:101060003D0093860690B387D70251BF01A0970138
:10107000002093812181174100201301A1F8172539
:1010800000001305255597F5FF1F9385A5F71386D7
:10109000018363FAC5008322050023A055001105D2
:1010A0009105E3EAC5FE1385018393850187637784
:1010B000B500232005001105E36DB5FEFD427390D8
:1010C00002BC8D427390428093028008739002307C
:1010D00097F2FFFF938242F393E232007390523013
:1010E000EFF07FE597020000938242D773901234AD
:1010F00073002030EFF2CF83B7270140938707407A
:10110000631CF50085451305002041298145130521
:10111000002061216FF00F84B7370140938707806B
:10112000E31AF5FE85451305004085298145130521
:101130000040C5B75C413707F1E01307F7EF944D66
:101140007D8F9C41D58FD44DD58FD441A206D58FAC
:10115000D98F5CC11C4537F7F1FF1307D77FD44502
:101160007D8F9C49D58F94458606D58FD98F1CC518
:101170005C55370710FF7D177D8FDC29FD1793F72E
:10118000F70FD207D98F5CD582801C4589C593E7BC
:1011900017001CC58280F99BEDBF1C4593E78700B3
:1011A0001CC5828008450D81058982801C4593E716
:1011B00047001CC5828008450981058982801C453D
:1011C00091C537075000D98F1CC582803707B0FF03
:1011D0007D17F98FD5BFA54763F7B7048D471387F0
:1011E00065FF3307F7020328C5009D47B397E70063
:1011F00093C7F7FFB3F70701B396E600DD8E54C53A
:10120000994763E3C70495477D163306F60258599C
:10121000FD47B397C70093C7F7FFF98F3396C50013
:101220005D8E50D982800D473387E5020328050182
:101230009D47B397E70093C7F7FFB3F70701B3964E
:10124000E600DD8E14C96DBFB14763E2C702954762
:1012500065163306F6021859FD47B397C70093C7C2
:10126000F7FFF98F3396C5005D8E10D982809547C0
:101270004D163306F6025855FD47B397C70093C77E
:10128000F7FFF98FB395C500DD8D4CD58280684599
:10129000420541818280B7270140938707409847E4
:1012A00011C5B7068000558F98C78280B70680FFAA
:1012B000FD16758FD5BF08416D8D3335A000828036
:1012C0009C4513F7070113F8F70001C7D8413368AD
:1012D000E80037270240145B3707000F758F4DEB8E
:1012E0008546A38DD184371701406315E5009A2107
:1012F00035839AA18E2113F7F50F39C31841814622
:10130000854E3D4F930F800293028004214E339609
:10131000DE00B3F8C500631116039398260033135B
:101320001F011343F3FF3377E300B318180133E7CA
:10133000E8006397F70750C98506E39AC6FD18C110
:101340001307F00F6375B70454412146854E3D4F96
:10135000930F800293028004414EB398CE0033F77E
:1013600015016392E8021317260001173313EF00EB
:101370001343F3FFB376D3003317E800D98E639598
:10138000F703232A15010506E319C6FD54C182801F
:1013900037170140E310E5F603C7B18521DF81BFB0
:1013A000E39C57F810C949BFE39F57FC2328150158
:1013B000D9BFB71701406316F50083C7B18591C344
:1013C000B58108456D8D3335A0008280B717014087
:1013D0006316F50083C7B18591C3B5814CC982807E
:1013E00023AEA1848280377700405C4309C593E730
:1013F00007105CC3828093F7F7EFE5BFB777004033
:1014000098431367470098C398431367270098C30E
:10141000B7F700E003A707D11367470023A8E7D079
:1014200003A707D15D9B23A8E7D0730050108280EB
:10143000B7770040DC437D8D3335A0008280B777DD
:10144000004098430A05598D88C38280B71702402F
:101450009843B706FFF01367170098C3D843758FFA
:10146000D8C39843B706F7FEFD16758F98C3984307
:10147000B706FCFFFD16758F98C3D843B70601FF6A
:10148000FD16758FD8C337079F0098C78280B7169F
:101490000240DC4251777D17F98F5D8DC8C2828092
:1014A000371702405C439146B18B6385D700A14654
:1014B0006382D706B7177A00938707201CC13716B7
:1014C00002405C4237070020130707019183BD8B60
:1014D000BA9794231C41B3D7D7005CC15442A18270
:1014E0009D8ABA969422B3D6D70014C55442AD82D1
:1014F0009D8A36971823B3D7E7005CC558423983D5
:10150000937637001387C18136971823B3D7E70244
:101510001CC982805C435843C166C983BD8B758FEB
:101520008907C5466393D700C94701EF3747024093
:1015300003270780418B09CF37177A00130707204D
:1015400021A83717024058439316E700E3D606FE5A
:1015500037173D0013070790B387E70285B799C592
:10156000371702401C4F5D8D08CF8280B7170240AD
:10157000984F1345F5FF798D88CF828099C537172D
:1015800002405C4F5D8D48CF8280B7170240D84F34
:101590001345F5FF798DC8CF828099C53717024072
:1015A0005C475D8D48C78280B7170240D847134516
:1015B000F5FF798DC8C7828099C5371702401C4B4B
:1015C0005D8D08CB8280B7170240984B1345F5FF1D
:1015D000798D88CB82801E2137370140130707C0E1
:1015E000C207C1836300E50237070040630CE500D2
:1015F000130707406308E50037170040130707800B
:101600006316E500BA2193F7F7F8D98FFA2193F71B
:10161000F7CFC207C183D98F1EA1DE215EB59E21FF
:101620001EB5B7370140938707C06314F5009C25AA
:101630001EB985475EA982801E3103D88500C20786
:10164000C18393F7F7EFC207C1831EB11E31562144
:101650005A2DC2071396060142079621418313773C
:10166000C7F8558FB621C18393F7F7DFB3E60601BC
:10167000A206D58FB7360140C207938606C04182C5
:10168000C183631FD502FD769386F67FF58FB6255D
:1016900003D8C500A206D58FD621C207C183A206F2
:1016A00093F7F7BFD58FF576FD16F18EF225C207B9
:1016B000C183336606011206D18E1396060141825C
:1016C00052A15AADFA215ABD1EB182801A31FD775E
:1016D000FD17F98F1EB10358050256215E2D65775F
:1016E00092211307F7CF7D8FF9772206FD17518FCF
:1016F000B3F70701B22103D88500C206420733665B
:1017000006013206D18F37360140C207130606C0E4
:10171000C1824183C183631AC50071767D16F18E43
:10172000D2251A06D18EC206C18256A15AADFA211F
:101730002310E5041EB182801E2189C593E717009E
:101740001EA18280C207C183F99BC207C183CDBF9E
:101750001E2189C593E707081EA18280C207C183A5
:1017600093F7F7F7C207C183C5BF5E2DC207C183D8
:10177000DD9BDD8D4EAD82805A2DFD779387F77FFF
:10178000F98FA205CD8FC207C1835EAD82804EBDA9
:1017900082802310B5048280EFE29F991A29F577A1
:1017A000FD17F98FFA2101112A84D98F1EA99A25D4
:1017B000DE215625AE84D98FBA25D98F7D771307C0
:1017C000379F758FD98F5EA55E29DA25C207C18341
:1017D00093F7F7CFD98F5EA96800EFF07FCCB747BA
:1017E0000140938707806316F404E2476545B335EB
:1017F000F502904081460A063305F5024D2A93060C
:1018000040063357D502120793574700B387F602B5
:101810001D8D93174500138527039307F06363FC21
:10182000A70013050701420541810AA405616FE085
:101830007F92D24765BF3355D502598DEDB791C51B
:101840005E250967D98F5EA582805A25F977FD1735
:10185000F98FD5BF93F5F51F4EA182800A216D8DBA
:101860003335A000828083A7818137177A00130760
:101870000720B3D7E70293F7F70F2381F186130709
:10188000803EB387E7022390F1868280B7F700E0BD
:10189000D8438146799BD8C303C721863306A70264
:1018A00090CBD4CB98431367070198C39843136731
:1018B000170298C3D843058B75DF9843799B98C36B
:1018C0008280B7F700E0D8438146799BD8C303D71D
:1018D00001863306A70290CBD4CB98431367070148
:1018E00098C398431367170298C3D843058B75DFD5
:1018F0009843799B98C38280EFE29F832A84116585
:10190000011185451105EFF09FC5930700207C82EA
:10191000371501408D473EC44C00E1471305058053
:101920003EC6EFF0FF9922C837440140B7070800D0
:101930000C08130504803ECC02CA231E0100A93DF9
:10194000854513050480E53D05616FE0BF80EFE24A
:101950008FFCB7440140AE893289014493840480EE
:10196000634524014A856FE04FFE930500042685F8
:10197000F53565DDB3878900838507002685050475
:10198000C205C181C13DE9BF138701821C43938613
:1019900001873E95636BD500B7560020938606807D
:1019A00063E5A60008C33E858280FD57EDBFB6877C
:1019B000B2882A832E88639B061463F8C50A4167A0
:1019C000636BE61AB70700016360F634935686012D
:1019D000E14717270000130727A636971823BA9761
:1019E000130700021D8F19CB3398E500B357F5009C
:1019F000B318E60033E807013313E50013D60801F6
:101A00003355C80293960801C18293570301337777
:101A1000C802B385A60242073368F700637AB800AC
:101A200046989307F5FF636418016365B8303E85F7
:101A30003308B8403357C8024203135303013378C5
:101A4000C802B386E602420833686800637BD800A8
:101A500046989307F7FF6365180179176363D80009
:101A60003E874205598D8145828001E60547B3587E
:101A7000C702416763E8E80EB707000163EAF82888
:101A800093D68801E147172700001307E79A369796
:101A90001423BE9693070002958FFDE7939E0801DD
:101AA0003387154113DF080193DE0E0185459357F7
:101AB00003013355E7033377E703B306D503420742
:101AC000D98F63FAD700C6971307F5FF63E41701B0
:101AD00063E5D7263A85958F33D7E703420313533F
:101AE0000301B3F7E703B30ED703C207B3E76700F9
:101AF00063FBD701C6979306F7FF63E517017917D4
:101B000063E3D70136874205598D828063E1D504AE
:101B1000C16763E1F604B707000163E3F61E13D75C
:101B2000860161489727000093870791BA97982309
:101B3000130E00024297330EEE40631A0E0C63ED53
:101B4000B61C3335C500134515008145828081459B
:101B5000014582809307F00F63F3D71C13D78600EB
:101B60002148C9B71307F00FC686E37E17F193D655
:101B70008800A14709BF1307F00FB286E37BC7E4D3
:101B800093568600A147B1B5B398F80033D6D50077
:101B900013DF0801335EE6033397F500B356D50033
:101BA000558F939E080193DE0E013313F500935574
:101BB0000701B376E603B387CE03C206CD8E63FB7F
:101BC000F600C6961306FEFF63E4161763F2F616D8
:101BD000791EC6969D8E33D6E60393170701C183FF
:101BE000B3F6E6033385CE02139706015D8F637B60
:101BF000A70046979307F6FF636817136376A7124B
:101C00007916469793150E01098FD18D4DB5B357AF
:101C1000E600B396C601DD8E33D3E50013DF06017F
:101C2000B357E303939E060193DE0E013398C5017B
:101C30003357E50033680701935808013316C6018E
:101C40003373E303B385FE024203B368130163FBFE
:101C5000B800B6981387F7FF63EAD80C63F8B80C9E
:101C6000F917B698B388B84033D7E8034208135839
:101C70000801B3F8E8033383EE02C208B3E50801B4
:101C800063FB6500B6951308F7FF63EDD50863FBAA
:101C900065087917B695C207416FD98F1307FFFF03
:101CA000B3F6E70093D80701718F4182B38EE60245
:101CB000B3856540B386C60213D80E013387E802A8
:101CC000BA96C2963386C80263F3E6007A9693D832
:101CD0000601469663E2C5026385C5003E858145DF
:101CE000828041677D17F98EC206B3FEEE00331580
:101CF000C501F696E374D5FE1385F7FF8145828012
:101D000013D70601414839BD93560601C147D1B1E9
:101D100093D60801C14785BB81450545828036873A
:101D2000014809B5428785BF3E86E9BDBA871DBF18
:101D3000328E4DB579154698E5B97915C69761BBD0
:101D400039713EDA2ED232D436D63AD842DC46DE6B
:101D50009387418222CC804326CA06CEAA8409C436
:101D60001C4C99E32285ED290C44541026862285CB
:101D700036C6EF007012F2406244D2442161828084
:101D8000011126CA4AC806CE22CC4EC652C4AA8425
:101D90002E8901C51C4D91E3E1219C4C804499E3BF
:101DA00026857D29971700009387077B631BF40224
:101DB000C0405E24A18BB1C71C48A1C7FD59294A68
:101DC0001C4483450900FD17B1E91CC463DD070607
:101DD0002286A94526856120FD576308F50229451D
:101DE00035A097170000938727796314F400804487
:101DF000C9B79717000093872774E31CF4FAC0440F
:101E00004DBFA2852685112A55D97D55F2406244E1
:101E1000D2444249B249224A056182801CC4050964
:101E200063D70700184C63CAE700638845011C406C
:101E30001387170018C08CA361B72286268505205A
:101E4000E31035F9D9B71C401387170018C029478C
:101E500098A371B793874182AA85884315B701116A
:101E600022CC26CA4AC806CE4EC6AA842E893284FF
:101E700001C51C4D91E3ED26971700009387C76DB0
:101E80006317F406C0401C4C1CC45E24A18BC1C364
:101E90001C48B5CF1C4808409379F90F1379F90F06
:101EA0001D8D5C486346F500A2852685692C25E5D5
:101EB0001C440505FD171CC41C401387170018C0DF
:101EC000238037015C486388A7005E24858B81CB23
:101ED000A9476316F900A2852685B5240DEDF240C9
:101EE00062444A85D2444249B249056182809717CB
:101EF0000000938767686314F400804469B79717FC
:101F0000000093876763E310F4F8C044ADBFA28577
:101F10002685212041D17D59D9B74111938741822E
:101F200026C2844322C44AC006C62A892E8489C494
:101F30009C4C99E326852D26971700009387C7614F
:101F4000631BF402C0400317C40093170701C18349
:101F500093F68700ADEA93F6070195EEA547232097
:101F6000F900136707045AA47D55B24022449244F5
:101F7000024941018280971700009387E75F63144D
:101F8000F4008044C9B7971700009387E75AE31C11
:101F9000F4FAC0444DBF918B9DC34C5889C9930737
:101FA00044046384F5004A853123232A04025E2415
:101FB0002322040093F7B7FD5EA41C481CC05E24D6
:101FC00093E787005EA41C4899EB5E24130700206A
:101FD00093F707286385E700A2854A85A1215E243F
:101FE00013F717001DC35C4823240400B307F04017
:101FF0001CCC1C480145B5FB8317C40013F7070828
:102000002DD793E707045EA485B7898B014791E339
:10201000584818C4F9BFDE25011122CC26CA06CEC5
:102020004AC84EC613F78700AA842E8479EBD8419C
:10203000634DE000B841634AE0000145F24062446C
:10204000D2444249B2490561828058547DD703A9E0
:1020500004009396370123A0040063DB0606704852
:102060005E24918B99C75C401D8E5C5899C33C409F
:102070001D8E5C540C50814626858297FD575A244C
:10208000631DF5009440F54763E8D706B707402085
:102090008507B3D7D700858BA5C31C48232204002E
:1020A0001CC09317370163D80700FD576314F50070
:1020B0009C4091E368C84C5823A02401BDDD9307E0
:1020C00044046384F5002685F526232A0402B5B767
:1020D0000C500146854626850297FD572A86E31156
:1020E000F5F89C40B5DF75476385E7005947639372
:1020F000E70423A0240191B7136707045AA47D5570
:1021000035BF83A90501E38A09F203A905008D8B78
:1021100023A0350133093941014791E3D84918C457
:10212000E35D20F11C540C50CA864E8626858297AA
:102130006347A0005E2493E707045EA4C9B7AA9989
:102140003309A940F1BF9C49B9CF011122CC06CE79
:102150002A8411C51C4D81E72EC61922B245971756
:1021600000009387673F639BF5004C408397C50051
:1021700095C722856244F240056171BD9717000042
:102180009387873F6394F5000C44CDB79717000001
:102190009387873AE39CF5FC4C44C9BFF240624404
:1021A00001450561828001458280411122C406C635
:1021B0002A844EA572A5232005002322050023248E
:1021C00005002322050623280500232A0500232CC9
:1021D0000500214681451305C505EFD07FF8971707
:1021E0000000938787B15CD0971700009387A7B34F
:1021F0001CD497170000938787B75CD4971700000B
:102200009387E7B900D01CD8B240224441018280B4
:1022100097050000938565F3A9A2411126C2130614
:1022200080069384F5FFB384C4024AC02E8922C479
:1022300006C6938544071D262A8401CD2320050068
:1022400023222501310508C4138684068145EFD079
:102250003FF12285B24022449244024941018280EA
:102260001C4DADE3411106C622C4970700009387B9
:1022700067FA1CD5938781829C4323240504232677
:102280000504232805046314F50085471CCD2A8422
:102290001D2848C02285052808C422852D2048C451
:1022A000484001469145113708440546A545F53D8E
:1022B00048440946C945D53D85471CCCB240224417
:1022C00041018280828041119387818226C28443AA
:1022D0004AC006C69C4C22C42A8999E32685493700
:1022E000938484048044DC40FD1763D607009C403F
:1022F000B9CF8440C5BF0317C40039E7C17785074C
:1023000023220406232004002322040023240400A3
:102310005CC423280400232A0400232C0400214643
:1023200081451305C405EFD0BFE3232A0402232C03
:10233000040223240404232604042285B2402244F8
:1023400092440249410182801304840671BF914581
:102350004A85E13588C051FDB1472320F900014489
:10236000E9BF797122D44AD052CC56CA5AC85EC647
:1023700006D626D24ECE2A8AAE8A13048504014997
:10238000054BFD5B09ECB25022544A859254025928
:10239000F249624AD24A424BB24B456182800444C0
:1023A00083294400FD1963D409000040E1BFDE2405
:1023B000637BFB008397E40063877701A6855285E2
:1023C000829A3369A90093848406E9BF1971A6DA59
:1023D000AE848395E500A2DC86DE328463DB0500F3
:1023E000DE2423A0060093F7070885E79307004043
:1023F0001DA0300836C6EF001020B246E34205FEAD
:102400007247BD67F98F7977BA9793B717009CC267
:10241000F1BF930700041CC0F6506654D654014522
:1024200009618280DE25011122CC06CE26CA4AC867
:10243000898B2E8489CF930774041CC01CC88547E0
:102440005CC8F2406244D244424905618280740013
:102450003000AA84A53FA2452A892685012219E9D0
:102460008317C40013F7072069FFF19B93E7270048
:102470005EA4D1B7970700009387C7D99CD45E2488
:1024800008C008C893E707085EA4A2475CC8B24723
:1024900081CF8315E4002685EF00901811C55E24D6
:1024A000F19B93E717005EA45E243369F9002316BD
:1024B000240141BFDDC183A7C5FF411122C406C667
:1024C00026C21384C5FF63D307003E94AA84EF009D
:1024D000F01B938741869C4381EF2322040023A2B3
:1024E00081862244B2402685924441016F00301A11
:1024F000637EF40014403307D4006396E7009843EA
:10250000DC43369718C05CC0D9BFBA87D84319C31B
:10251000E37DE4FE94433386D700631F86001040BA
:10252000B29694C33386D700E31DC7FA10435843CD
:10253000B29694C3D8C375B76375C400B1479CC045
:102540004DB71040B306C4006316D7001443584378
:10255000B29614C058C0C0C369B78280011126CAA0
:1025600093843500F19806CE22CC4AC84EC6A10409
:10257000B14763F3F404B14463E2B4042A89EF0081
:10258000F0109387418698433A8439E09387818697
:102590009C4391E781454A85152F23A4A186A685F2
:1025A0004A852D27FD5963193507B1472320F900C6
:1025B0004A85EF00D00D29A0E3D004FCB1471CC12F
:1025C0000145F2406244D2444249B24905618280E9
:1025D0001C40858F63CF0702AD4663F6F6001CC032
:1025E0003E9404C031A05C406313870223A2F186AD
:1025F0004A85EF00D0091305B400930744006199A0
:102600003307F5405DDF3A94898F1CC05DBF5CC322
:10261000C5B72287404095BF130435007198E30287
:1026200085FCB305A4404A855525E31C35FBB5BFA1
:102630001C46FD171CC663DA0700184E63C5E70089
:10264000A9476394F5006FF09F811C422E85138784
:10265000170018C28CA38280011122CC26CA4AC856
:102660004EC652C406CE2A89AE893284B304D6003F
:102670007D5A63149400014501A80C204E864A85BA
:10268000453F0504E31745FFF2406244D244424906
:10269000B249224A05618280357122CD26CB4AC9D2
:1026A0004EC706CF52C556C35AC1DEDEE2DCE6DABB
:1026B000AA89AE843289368409C51C4D99E3EFF0AE
:1026C0003FBA97170000938727E96397F40C83A418
:1026D0004900DE24A18BFDC39C48EDC39307000293
:1026E000A304F1029307000302D22305F10222C6DC
:1026F000930B5002971A0000938A0AEA054C294B63
:102700004A841C2099C3639E770DB30C2441638DCA
:102710000C00E6864A86A6854E853D3FFD57630F31
:10272000F51C9256E69636D21C206389071CFD578D
:102730001309140002C802CE3ECA02CCA309010448
:1027400082D483450900154656852D2713041900A8
:10275000C24751E913F7070109C713070002A3098C
:10276000E10413F7870009C71307B002A309E104C6
:10277000834609001307A002638FE606F2474A84E6
:1027800081462546182093051400130707FD63773B
:10279000E60AB5CA3ECE85A8971700009387C7DD25
:1027A0006395F40083A489002DB7971700009387E1
:1027B000A7D8E390F4F283A4C90021BFA6854E8573
:1027C000EFF0AFF501DD7D55FA406A44DA444A493D
:1027D000BA492A4A9A4A0A4BF65B665CD65C0D6196
:1027E0008280050439BF330555413315AC00C98FCC
:1027F0003EC82289B9B7324793064700184336C608
:10280000634707023ACE18209307E002631DF704DE
:1028100018309307A002631BF702B247090413871D
:1028200047009C433AC663C107023ECA2DA833073E
:10283000E04093E727003ACE3EC8F1B7B38767037D
:1028400085462E84BA973DBFFD57C5B7050402CA19
:10285000814681472546182093051400130707FD7C
:102860006374E606F9F20C200D46171500001305F7
:1028700025D3092511CD97170000938767D21D8DA9
:1028800093070004B397A700424505045D8D2AC84D
:102890000C201946171500001305C5D013091400A4
:1028A0002304B102C12B35C197D7FFFF93878775EA
:1028B00095E74247B2471377071009CF91073EC605
:1028C0009257D2973ED22DBDB387670385462E849B
:1028D000BA9751B79D07E19BA107D5B77800970636
:1028E00000009386A6D726860C084E859700000028
:1028F000E7000000FD572A8AE314F5FCDE2493F775
:102900000704E39207EC1255C1B578009706000062
:102910009386C6D426860C084E85012AE1BF7971BC
:1029200056CA9C49BA8A984522D426D24ECE52CC59
:1029300006D64AD05AC85EC6AA892E84B284368A80
:1029400063D3E700BA879CC00347340419C38507E3
:102950009CC01C4093F7070281C79C4089079CC01C
:102960000329040013796900631A0900130B940109
:10297000FD5B5C449840998F634CF9041C4083468E
:10298000340493F70702B336D000A5EB13063404E2
:10299000D2854E85829AFD576303F5041C4011468B
:1029A0009840998B544481446397C700B384E640B0
:1029B00063D3040081441C4418486354F700998F82
:1029C000BE94014969047D5B63982405014509A80B
:1029D00085465A86D2854E85829A631E75017D553D
:1029E000B250225492540259F249624AD24A424B9E
:1029F000B24B456182800509ADBF3307D400130691
:102A00000003A301C7040347540493871600A29749
:102A10008906A381E7049DBF85462286D2854E851F
:102A2000829AE30E65FB050945B7797122D426D257
:102A30004AD04ECE06D652CC56CA5AC8B689942D24
:102A4000930790063289AA842E8413863504638DF9
:102A5000F60263E2D706930780056386F61863EDF6
:102A6000D700638E062093073004638EF60A930A1C
:102A700024042301D404C9A0930730066385F60A11
:102A800093074006E395F6FE1C40084393F60708BB
:102A900093054500C5C61C410CC363D80700130746
:102AA000D002B307F040A301E40497160000938618
:102AB000E6AF294765A8930700076382F61663E52A
:102AC000D7029307E0066389F6189307F006E390B0
:102AD000F6FA0C401C4313F80508138547006307FA
:102AE000080608C39C4385A893075007E383F6FEB6
:102AF000930780076389F61293073007E399F6F688
:102B00001C43D04181459386470014C383AA070024
:102B100056858D2601C53305554148C05C401CC80B
:102B2000A301040461A81C43930A2404938647006C
:102B30009C4314C32301F4048547D5B793F60704D7
:102B40001C410CC3B9DAC207C18781BF93F50504E4
:102B500008C3C9D99E231307F0066387E60E9716AC
:102B600000009386A6A42947A30104044C400CC48A
:102B700063C5050008406D9908C099E3B28A89CD04
:102B8000B28AB3F5E702FD1AB6958C212380BA000C
:102B9000B3D5E70263F0E70CA147631EF7001C40C2
:102BA000858B91CB58401C4863C7E700930700030F
:102BB000A38FFAFEFD1A3306564110C84E87CA8607
:102BC0007000A2852685EFF09FD57D5A631D450BC9
:102BD0007D55B250225492540259F249624AD24A67
:102BE000424B45618280A382D504971600009386EC
:102BF000E69B0C40084313F805081C411105630DC2
:102C0000080208C313F7150001C793E505020CC0BD
:102C10004147B9FB0C4093F5F5FD0CC0B1B79C41A1
:102C200093E707029CC193078007A302F404971659
:102C300000009386E69875BF13F8050408C3E30304
:102C400008FCC207C1837DBF9716000093860696D5
:102C5000214719BFAE8735B794411C43CC4913F8BF
:102C60000608138547006306080008C39C438CC30D
:102C700039A008C393F606049C43F5DA8EA32328F3
:102C80000400B28A25BF14485686CA8526858299D3
:102C9000E30045F51C40898B8DE7B2474844E35A71
:102CA000F5F23E853DB785465686CA8526858299CA
:102CB000E30065F3050A5C443247998FE345FAFE69
:102CC000E9BF014A930A94017D5BF5B7411122C423
:102CD0002A842E8523A6018606C6EFE0FFCAFD578B
:102CE0006317F5009387C1869C4391C31CC0B24013
:102CF000224441018280411122C42E848395E50043
:102D000006C67922634905007C48AA977CC8B24070
:102D10002244410182805E247D777D17F98F5EA475
:102D2000FDB7DE25011122CC26CA4AC84EC606CE02
:102D300093F70710AA842E843289B68991C78395A8
:102D4000E5008946014609225E247D777D17F98FCB
:102D50005EA48315E4006244F240CE864A86B249FE
:102D600042492685D244056125A8411122C42E84FA
:102D70008395E50006C6C928FD575A24631AF50055
:102D8000FD77FD17F98F5EA4B24022444101828095
:102D90008567D98F5EA468C8C5BF8395E50005A87F
:102DA000411122C42A842E85B285368623A6018647
:102DB00006C6EFE0DFB9FD576317F5009387C186BC
:102DC0009C4391C31CC0B240224441018280411106
:102DD00022C42A842E8523A6018606C6C520FD5757
:102DE0006317F5009387C1869C4391C31CC0B24012
:102DF000224441018280411122C42A842E85B28559
:102E000023A6018606C6C920FD576317F5009387E0
:102E1000C1869C4391C31CC0B240224441018280C0
:102E2000411122C42A842E8523A6018606C65D2070
:102E3000FD576317F5009387C1869C4391C31CC05F
:102E4000B240224441018280411122C42A842E854D
:102E5000B285368623A6018606C65920FD5763171C
:102E6000F5009387C1869C4391C31CC0B2402244A5
:102E70004101828093F5F50F2A966314C500014540
:102E800082801C21E38EB7FE0505C5BF828082804B
:102E9000411122C42A842E85B285368623A6018656
:102EA00006C6A920FD576317F5009387C1869C438A
:102EB00091C31CC0B2402244410182809307800527
:102EC00023A6F1867D5582809307800523A6F1868F
:102ED0007D5582809307800523A6F1860145828077
:102EE0009307800523A6F1867D5582809307800590
:102EF00023A6F1867D5582800D0A5B4953505D20E3
:102F0000456E746572696E6720466163746F72798D
:102F10002049535020426F6F746C6F61646572205A
:102F20004D6F64652E2E2E0D00000000EA04000097
:102F3000FA040000160500004005000062050000CC
:102F40007C05000088050000AA050000C8050000F7
:102F5000AA070000B6070000BE070000C80700006F
:102F6000D4070000DA070000E0070000EC070000CB
:102F7000440A00000C0A0000480A0000620A00002F
:102F80007A0A00005B5057525D20456E7465726985
:102F90006E67204C6F772D506F7765722053746188
:102FA0006E646279204D6F64652E2E2E0D00000038
:102FB0005B47554E4C494748545D20496E69742023
:102FC000436F6D706C657465642E0D005B47554EE4
:102FD0004C494748545D20436C69636B3A204D6F00
:102FE00064652031205475726E6564204F6E0D004B
:102FF0005B47554E4C494748545D20436C69636BB1
:103000003A204D6F6465203220284D61696E203270
:103010003525290D0A0000005B47554E4C494748AD
:10302000545D20436C69636B3A204D6F64652033B7
:1030300020284D61696E202B20417578290D0000F4
:103040005B47554E4C494748545D20436C69636B60
:103050003A20416C6C204F66662C2031307320631F
:103060006F756E74646F776E20746F205374616E29
:103070006462792E2E2E0D005B47554E4C49474811
:10308000545D20436C69636B3A2045786974205322
:1030900070656369616C204D6F6465202D3E204131
:1030A0006C6C204F66660D005B47554E4C49474897
:1030B000545D20446F75626C6520436C69636B3AA4
:1030C000203130487A205374726F6265204D6F64EE
:1030D000650D00005B47554E4C494748545D2054F0
:1030E0007269706C6520436C69636B3A20534F536F
:1030F000204469737472657373204D6F64650D00AD
:103100005B47554E4C494748545D204C6F6E672DC8
:1031100070726573733A20416C6C204F6666212093
:10312000436865636B696E6720666F722038732031
:1031300049535020686F6C642E2E2E0D0000000045
:103140005B47554E4C494748545D20387320686FA3
:103150006C642072656163686564202D3E20456E55
:103160007465722049535020426F6F746C6F6164B4
:103170006572210D000000005B47554E4C494748E1
:10318000545D20416C6C204F666620636F6E6669EB
:10319000726D65642C2031307320636F756E7464BA
:1031A0006F776E20746F205374616E6462792E2E77
:1031B0002E0D00005B47554E4C494748545D205446
:1031C00075726E6564204F6E202D3E204D6F6465D4
:1031D00020310D005B5057525D204261747465725E
:1031E0007920437269746963616C20283C20322E17
:1031F0003935562921204375746F66662070726FC9
:1032000074656374696F6E2074726967676572654F
:10321000642E0D005B5057525D20426174746572DC
:10322000792054696572205377697463683A202560
:1032300064202D3E2025642028566261743D25645B
:10324000206D56290D0A0000010014000000140032
:1032500001001400000014000100140000003C00F4
:1032600001003C000000140001003C0000001400BC
:1032700001003C0000003C000100140000001400AC
:1032800001001400000014000100140000008C0074
:103290000D0A3D3D3D3D3D3D3D3D3D3D3D3D3D3DC1
:1032A0003D3D3D3D3D3D3D3D3D3D3D3D3D3D3D3D4E
:1032B0003D3D3D3D3D3D3D3D3D3D0D0020204348D4
:1032C0003332563230334638553620576561706F89
:1032D0006E204D6F756E746564204C69676874204C
:1032E00028574D4C29200D00202053797374656DAB
:1032F00020436C6F636B3A20256420487A0D0A00E6
:103300003D3D3D3D3D3D3D3D3D3D3D3D3D3D3D3DED
:103310003D3D3D3D3D3D3D3D3D3D3D3D3D3D3D3DDD
:103320003D3D3D3D3D3D3D3D0D0000005B50575254
:103330005D2057616B6575702066726F6D204C6FF4
:10334000772D506F776572205374616E64627921B6
:103350000D0000005B5057525D20436F6C642042AB
:103360006F6F743A204E6F204B65792050726573F1
:10337000736564202D3E2044656661756C7420532E
:1033800074616E6462792E0D000000005B5057522C
:103390005D204B65792050726573736564206F6E94
:1033A0002057616B6575702F426F6F743A204368C8
:1033B00065636B696E6720387320686F6C64206684
:1033C0006F72204953502E2E2E0D00005B50575225
:1033D0005D2038207365636F6E647320686F6C6462
:1033E0002072656163686564202D3E20456E7465BA
:1033F00072696E672049535020426F6F746C6F6121
:10340000646572210D0000005B5057525D204E6FC5
:10341000726D616C205475726E204F6E202D3E20AF
:103420004D6F6465203120283130302525292E0D3F
:103430000A00000000010202030303030404040461
:103440000404040405050505050505050505050530
:103450000505050506060606060606060606060610
:1034600006060606060606060606060606060606FC
:1034700006060606070707070707070707070707E0
:1034800007070707070707070707070707070707CC
:1034900007070707070707070707070707070707BC
:1034A00007070707070707070707070707070707AC
:1034B0000707070708080808080808080808080890
:1034C000080808080808080808080808080808087C
:1034D000080808080808080808080808080808086C
:1034E000080808080808080808080808080808085C
:1034F000080808080808080808080808080808084C
:10350000080808080808080808080808080808083B
:10351000080808080808080808080808080808082B
:10352000080808080808080808080808080808081B
:10353000080808080000000000000000000000006B
:10354000000000000000000000000000000000007B
:10355000000000000000000000000000000000006B
:10356000000000000000000000000000000000005B
:10357000000000000000000000000000000000004B
:10358000000000000000000000000000000000003B
:1035900000000000232D302B20000000686C4C0040
:1035A000656667454647000030313233343536377B
:1035B000383941424344454600000000303132333F
:1035C000343536373839616263646566000000005F
:1035D00000000000000000000102030406070809C3
:1035E00000000000010203040102030406070809A9
:1035F0000000000054350000743500003435000030
:1036000000000000000000000000000000000000BA
:1036100000000000000000000000000000000000AA
:10362000000000000000000000000000000000009A
:10363000000000000000000000000000000000008A
:10364000000000000000000000000000000000007A
:10365000010000000900000019000000190000002E
:103660000B000000E703000000A24A040204060861
:10367000F0000020200000202000002000000000BA
:00000001FF
