:040000006F10D0317C
:1000040000000000000000004E0E0000500E000032
:10001400000000001A1B00000000000000000000A7
:100024001A1B00001A1B0000000000000000000062
:100034001A1B0000000000001A1B00000000000052
:100044001A1B00001A1B00001A1B00001A1B0000D8
:100054001A1B00001A1B00001A1B00001A1B0000C8
:100064001A1B00001A1B00001A1B00001A1B0000B8
:100074001A1B00001A1B00001A1B00001A1B0000A8
:100084001A1B00001A1B00001A1B00001A1B000098
:100094001A1B00001A1B00001A1B00001A1B000088
:1000A4001A1B00001A1B00001A1B00001A1B000078
:1000B4001A1B00001A1B00001A1B00001A1B000068
:1000C4001A1B00001A1B00001A1B00001A1B000058
:1000D4001A1B00001A1B00001A1B00001A1B000048
:1000E4001A1B00001A1B00001A1B0000DA1700007C
:0C00F4001A1B00001A1B00001A1B000061
:10010000397101436EC619A0397141536AC866CA74
:1001100062CC5ECE19A0397101535AD056D252D456
:100120004ED64AD826DA22DC06DE330161408282CE
:1001300041114AC026C222C406C68282B24D410184
:10014000024D924C224CB24B4101024B924A224A40
:10015000B2494101024992442244B24041018280A5
:100160003D432A876373C3029377F700BDEFADE584
:10017000937606FF3D8ABA960CC34CC30CC74CC796
:100180004107E36BD7FE11E28280B306C3408A06C3
:100190009702000096966780A6002307B700A30683
:1001A000B7002306B700A305B7002305B700A304D3
:1001B000B7002304B700A303B7002303B700A302CB
:1001C000B7002302B700A301B7002301B700A300C3
:1001D000B7002300B700828093F5F50F9396850052
:1001E000D58D93960501D58D61B79396270097021B
:1001F000000096968682E78086FA9680C1171D8F4A
:100200003E96E374C3F8A5B73367B500FD530D8B75
:1002100079E7B7877F7F9387F7F710419441B372EF
:10022000F6003363F600BE92B3E262006395720C8F
:100230006318D6065041D441B372F6003363F6001A
:10024000BE92B3E262006396720A631BD604104545
:100250009445B372F6003363F600BE92B3E26200D7
:10026000639F7208631ED6025045D445B372F600F0
:100270003363F600BE92B3E26200639872086311C2
:10028000D60210499449B372F6003363F600BE9269
:10029000B3E26200639172085105D105E30FD6F60F
:1002A0001317060193970601631CF7001357060105
:1002B00093D706013305F7409375F50F91E98280D6
:1002C0004183C1833305F7409375F50F91E1828037
:1002D0001377F70F93F7F70F3305F740828010215C
:1002E0009421050585056313D60075FA3305D640BC
:1002F000828011059105E314D6FE01458280210517
:10030000A105E31ED6FC014582803105B105E31845
:10031000D6FC014582804105C105E312D6FC0145AA
:100320008280EFF2FFE037240140AA859D46054612
:1003300013050440EF101015854513050440EF1018
:10034000F0129304044089452685EF10B02165DD45
:1003500013050440EF10901EF5BB03C781845DE7D1
:10036000EFF21FDD7971130600028145080813843E
:100370008184FD3385451305402002C202C402C6B4
:10038000EF10504C2165EF10103D371501408947A3
:100390004C0013050580B72401407C8202C6EF1093
:1003A000101D13850440EF10C07FB7070E000C0826
:1003B0003ECE1385044085472302F10202C802CADB
:1003C00002CC02D0EF10F0010545EF10B0178545C3
:1003D00013850440EF10500613850440EF10D0063B
:1003E000138904404A85EF10D0066DFD1385044043
:1003F000B7240140EF107006938404402685EF1067
:1004000070066DFD85471CA04561A9B38280EFF29F
:100410003FD2138481841C204111A9C73725014094
:10042000814513050540EF1030010145EF10901193
:10043000814513050020EF10F04037150140894732
:100440004C0013050580231301002314010023151C
:10045000010023160100231701007C82EF103011E8
:10046000230004004101FDB1EFF29FCC83C78184DA
:1004700091E3E535A144014405456535FD142A9411
:10048000E5FC0D8011494545693D7D19AA94E31CA1
:1004900009FE8980C16793960401FD17C182130785
:1004A000401F7D8C637DD7000565130505963305D8
:1004B000A402FD8C335595024205418161B909655D
:1004C0001305859C3305A4023181FDB7EFF25FC6A9
:1004D0001306000581451385818AA384018449316F
:1004E00095B9EFF2FFC159711389818A374A00002B
:1004F000B74A0000B74B0000EF10402119E16561D9
:1005000035B9EF10A022E34C05FE13879184B54660
:100510001C23938991846305D500A946631ED52ABF
:10052000E1DF1387818ABA9723800700814C130D7E
:10053000F004894DB30799018387070013F7FC0F77
:1005400089C76394AC091307F0049C183E97930580
:100550008ACA0810230807FA453949E937450000D7
:10056000130505CBEF20E04E374500001305C5CD40
:10057000EF20204E37450000130505D1EF20604DD8
:1005800037450000130505D4EF20A04C3745000087
:10059000130505D7EF20A03A37450000130545DBCA
:1005A000EF20204B37450000130545DEEF20604A61
:1005B00037450000130585E1EF20A04937450000CD
:1005C000130505E4EF20E0489DA813FCF70FEF208A
:1005D000402762951831E2870D8B6314B7019307AA
:1005E0000CFE181066971CA3850CA9B793850AE723
:1005F0000810193901C9B74500009385C5E60810F0
:10060000213129E1EF0070522ACEEF0070522ACC3E
:10061000EF00704E2ACAEF0010522AC8EF00705344
:100620002AC6EF00705383A8C18142483247D246A0
:100630006246F245AA8713858BE7EF20403023807E
:1006400009005DBDB745000025469385C5EC08103F
:10065000EF20E0400DED13059102EF20C01D930740
:10066000803E9305803E63C6A700AA8563530500BC
:1006700081451395050141812EC6EF006066B245A4
:1006800037450000130585EDEF20602B4DBFB745C2
:1006900000002546938505EF0810EF20403C1DE93A
:1006A00013059102EF2020199307803E9305803EA9
:1006B00063C6A700AA85635305008145139505010C
:1006C00041812EC6EF00206537450000B245130575
:1006D000C5EF5DBFB74500002546938545F108107D
:1006E000EF20E03715E513059102EF20C014954780
:1006F0002AC663EAA700EF00704037450000B24504
:10070000130505F251B737450000130585F35DBDAC
:10071000B74500003146938545F50810EF20203499
:1007200005ED6810EF20201185671307F5FF93870B
:10073000F7E0AA8563EDE700420541812EC6EF0090
:10074000704037450000B245130545F635BF3745C3
:100750000000130545F8BDB5B74500009385C5FAFF
:1007600008105D3401C9B7450000938505FB0810EA
:10077000613C09ED374500001305C5FBEF20602DF6
:1007800013052003EF105042492055BDB745000026
:100790009385C5FE08108D3C01C9B74500009385BF
:1007A00045FF081095341DE1374500001305C5FFCE
:1007B000EF20202A13052003EF10103FB707EFBEEC
:1007C00037E700E0938707083CC795BD3745000031
:1007D000CA85130505014DBDA1466306D5009306E4
:1007E000F0076318D500E38907D0FD172380F900CF
:1007F00021B39306E004E3E1F6D09386170014A337
:100800001387818ABA9788A3C5B9EFF27F923745DB
:10081000000013058504EF20C0230D2BCD3E1D45A0
:10082000E9261305C012EF1030389307800873B023
:1008300007800F100000E124B7F700E023A00700B5
:1008400023A20700814694C70147D8C794CBD8CBD1
:10085000B7E500E08147FD562146139727002E9704
:100860002320D7182320D7288507E398C7FE85457E
:100870007D55EF10F00081457D55EF1070008545E6
:100880007D55EF10D00181457D55EF105001EF10DF
:10089000C06673105030B7220000938202807390BC
:1008A000023037510020B7F2FF1F828201A0EFF221
:1008B0003F8841118545114502C202C402C6EF10AE
:1008C00060788547371401407C82930780023EC6DA
:1008D0004C008D47130504803EC4EF104049930738
:1008E00000047C824C0093078004130504803EC6FC
:1008F000EF10E04723A60184239801842395018407
:1009000041016FF03F85EFF2BF8237150140854509
:1009100013050580EF10C0547D15133515006FF0D9
:100920007F83EFF2FF80C5379386C18498422146CA
:100930006360E61091660A079386C60736971843E8
:100940009387C184028719E1014599A0054798C39F
:1009500023980184D5BF71C9938601859A22050722
:10096000420741839AA28546E3F0E6FE094798C311
:10097000E1BF0DC1938601859A2205074207418395
:100980009AA293067007E3F1E6FC214798C311454C
:100990006FF04FFC0D4798C32395018475B793867C
:1009A000A1849A220507420741839AA219C11147DF
:1009B00079BFF546E3FAE6F823A007000545C9BF6D
:1009C00065DD938601859A220507420741839AA235
:1009D0008546E3FBE6F6154759BF49FD194798C31D
:1009E0002395018475B79386A1849A22050742074F
:1009F00041839AA219C11D4799BFF546E3F6E6F473
:100A000023A00700094569B765DD938601859A2211
:100A10000507420741839AA28546E3F7E6F221479C
:100A200098C30D45B5B7E31105F223A0070029BF10
:100A300023A0060011BFEFF2AFEF37150140930579
:100A4000000413050580EF10A041B707002003C67E
:100A5000071F85461387071F933715006308D600C5
:100A6000814709E689476303D500814708A33E858E
:100A70006FF04FEEEFF2CFEB2205498E1395050193
:100A8000518D9307800873B007800F10000003A3F7
:100A9000418003AE818003A8C18083A80181B71E75
:100AA0000140DD474147FD553356F50093860E80E2
:100AB000058A98CA15CA42867D167DFED8CAC686A2
:100AC000FD16FDFEFD17E391B7FE9307800873A0A6
:100AD0000780B7170140414723AAE78013050005A7
:100AE000EF1030096FF00FE71A867D167DFED8CA29
:100AF000F286F9B7EFF2CFE3B53F6FF0AFE5EFF273
:100B00002FE3014623AA018481450145239C0184EA
:100B1000953737150140C14513050580EF10E035C5
:100B20006FF04FE3EFF2CFE041118545114502C26E
:100B300002C402C6EF100051C1477C823715014044
:100B4000C1473EC64C008D47130505803EC4EF10DB
:100B5000002283A6C18137470F001306F723A14760
:100B60006376D60093070724B3D7F6021303C012A7
:100B70008568138788BB13050032138841809388EA
:100B8000F87633836702B356E3023385A702232046
:100B9000D800B356E50223A4D18023A6D1809306C2
:100BA000E015B387D702938581801386C18033D740
:100BB000E70223A8E1809386018163E56800094785
:100BC0002320E8000D671307F7ED6365A7001147C1
:100BD00098C118C205671307F7766364F700894761
:100BE0009CC2313F41016FF0EFD693874185984316
:100BF0006306A70688C3239C01849D4763E0A7067C
:100C0000EFF20FD391679387070A0A053E951C41BF
:100C10008287014681450145B13D6FF0AFD3014662
:100C20009305F00FCDBF1306F00F93058007E5B7CE
:100C300001469305000A1305F00FF9BF01468145EF
:100C4000DDBF1306F00FE9BF1306F00F8145130552
:100C5000800CD9B701469305800CF1BF8280EFF27A
:100C60002FCD138781851E2383A641858507C20763
:100C7000C1831EA31146638EC60215466386C60451
:100C80000D466396C602930620036396D70001467D
:100C90008145014521A89306300663FAF60023102A
:100CA000070001469305000A1305F00FE1336FF0CA
:100CB0006FCAB146E38DD7FCE146E3FAF6FE231096
:100CC000070001468145CDB7E383D7FCA546E3F095
:100CD000F6FE231007001306F00F9305F00F55BF23
:100CE000EFF20FC59307803E9305803E63E3A700B4
:100CF000AA8583A74181C205C181B385F502930707
:100D0000803E37050040B3D5F502C205C181EF1022
:100D100060566FF02FC4EFF2AFC19307803E93058A
:100D2000803E63E3A700AA8583A74181C205C181F4
:100D3000B385F5029307803E37050040B3D5F50231
:100D4000C205C181EF1040536FF0CFC0EFF24FBE2C
:100D5000814537050040EF10E051814537050040DF
:100D6000EF1080516FF00FBFEFF28FBC79718545A6
:100D7000114502CA02CC02CE02C402C623180100E9
:100D800002D002D202D402D6EF10C02B8545054511
:100D9000EF10202DB147FC8237150140E1473ECED0
:100DA0004C088D47130505803ECCEF00507C03A70F
:100DB000C181B756204E9567938707E29386F6E187
:100DC000B357F70263EBE606FD1701472C00370522
:100DD000004023AAF18078847C8623170100231524
:100DE0000100EF10A02DC167938707060C1037058F
:100DF00000403ED02313010223140102EF102032E1
:100E0000A14537050040EF10A0440C103705004005
:100E1000EF10203AA14537050040EF1040448545CA
:100E200037050040EF102041854537050040EF10A1
:100E3000003F293F45616FF0EFB1B706204E3357B1
:100E4000D70293061700B3D7D702FD1741B701A009
:100E5000B707EFBE37E700E0938707083CC701A05C
:100E6000EFF20FAD41112390A1862391B1862EC6DA
:100E7000853DB2452E85453541016FF0AFADEFF2AE
:100E80002FAB83C7618791CB03A7C1858947814574
:100E90001305803E6311F70281A083A7818681E755
:100EA0008145014509A803A7C18589466318D70074
:100EB0008145130520036D376FF0CFA9FD179146CB
:100EC000E3E0F6FE91668A079386060CB6979C438C
:100ED000828785476DBF81451305A00FE9BF854710
:100EE0009305803E75B783C72187DDDB85471305F2
:100EF000E0156304F7001305803E81456DBF83C78D
:100F0000C18693962700916793878739B6979C236C
:100F1000E9BFEFF2EFA1374500001305450DEF10D3
:100F20005033EF00207B1D35D93EEFF04FCEEFF070
:100F30009F9D05E513052003EF1000478545370504
:100F40000010EF1000120545EF00D0740545EF00CA
:100F5000F079EF0090756FF0EF9F2945EF10C044D6
:100F6000F9B7EFF2EF9CEFF02FD0239CA1808567BB
:100F7000938757B82A841387418663E0A7041C230C
:100F8000850793F7F70F1CA30547637AF7023745E8
:100F9000000013054532EF10D02B4D3B0146814533
:100FA0001305F00FEFF01FB51305C012EF10C03F8F
:100FB000EFF0FFB4B93F6FF0EF99230007008567AA
:100FC0009386B7C183A5C1851387C18563E2860473
:100FD00089471CC31043630AB60037450000A28648
:100FE00013054536EF10B015593D85671387F7E0B7
:100FF0000545636D8700138777D4094563688700CB
:101000009387B7C10D4563E387001145F93E65B786
:10101000938677D463EB860089466396D5009387E1
:10102000D7C4E3F987FA85476DB7938797D7E3F37A
:1010300087FA2320070079BFEFF28F8FEFF03F8709
:101040002533EFF03FAE23A4018623AE018423981D
:101050000186239A018623890186239D0184238B9F
:10106000018623820186DD31EFF07FA9374500003C
:1010700013050510EF10F01D6FF0CF8DEFF2AF8963
:10108000EFF03F8AAA84EFF01F9B85471384818687
:101090006311F50A238BA186DD3301469305F00F1A
:1010A0000145EFF03FA599C823980186094763845D
:1010B000E416636D97088547638CF40C14409147E0
:1010C000639EF61A138741871E238507C207C183D3
:1010D00063F8F61E938721872310070098231337A0
:1010E000170098A3693B1C400947FD17636BF71C69
:1010F0001387A1851E23CD468507C207C18363EDF3
:10110000F61A1EA31C4085E383C7618789EF138706
:1011100001871E238507C207C1831EA303D7A181B0
:1011200063E3E700FD33EFF09FB3EFF08FBB6FF0A9
:10113000CF818947E319F5F6238B018689331C405B
:1011400081E7EFF0DF9B85B7293DB1BF8D4763860F
:10115000F40E9147E394F4F623200400EFF01FBF50
:10116000EFF0FF99EFF0AFAA374500001305052512
:10117000EF10300E81441309702AB7490000EFF0D8
:101180008FF8631E050C374500001305852C21A838
:101190001C4089EF04C0EFF04F9CE133CD3137455F
:1011A00000001305C511EF10D00A09BF639B97001B
:1011B00018C0F1313745000013050514EF102078F1
:1011C000F5BD639AE7008D471CC0553937450000CF
:1011D00013058516C9BF0D47639FE7002320040050
:1011E000EFF0DFB6EFF0BF91EFF06FA237450000F0
:1011F000130505194DBFF117E3E2F4EC23200400B9
:10120000EFF0DFB4EFF0BF8FEFF06FA037450000D5
:101210001305851C49BF91471CC00547239A0186C9
:101220002389E186EFF06F931545EFF01F9C81391C
:10123000374500001305851FBDB795471CC02386A1
:10124000018623970186EFF04F911945EFF0FF9942
:10125000EFF0FFC23745000013054522A9B785040A
:10126000C2042945C180EF102014E37A99F0138558
:101270000929EF10007EEFF04FD911B79547E3949D
:10128000F6E69385C1869386E1869C219A221166B3
:10129000139527001306863905072A96420732223E
:1012A00041839AA2636FC70085074947B3F7E702F6
:1012B000239006009CA13DB5231007005D3199B530
:1012C0001EA383C76187E39507E22DBDEFE25FE6CA
:1012D000054723A4E18623980186EFF00F88EFF0FD
:1012E0005FC8EFF0DFB93745000013054530EF1058
:1012F00040766FE03FE603A581868280EFE25FE300
:1013000023A4A1862398018611E98145EFF05FB5FA
:10131000EFF0EFFEEFF0AF8F6FE0DFE3EFF0EF8382
:10132000EFF03FC4EFF0BFB5C5BF03D58181828028
:1013300003C5C185828003D5A1819307400633553B
:10134000F5028280930740063305F502239DA180B4
:10135000828003D50186828003D521868280EFE2D8
:101360003FDD0545EF00B0327922EF00307E716538
:1013700013050520EF10A0064D24EFF02F953745FB
:1013800000001305053EEF10C06C37450000130543
:10139000C540EF10006C83A5C181374500001305DF
:1013A0008543EF10C0593745000013054545EF1040
:1013B000406A37450000130505E4EF1080693705E2
:1013C00000108545EF00F0490545EF00503111C987
:1013D0000545EF00B0313745000013050548EF1013
:1013E0004067EFF07FC5EFF00FD239C937450000F5
:1013F0001305854AEF10E06501449304F031374945
:101400000000EFF04FD011ED3745000013054552B5
:10141000EF10E052653DEFF07FC62945EF00D07830
:10142000DDBF0504420429454180EF00F077E3FA6F
:1014300084FC1305894EEF10C061EFF00FBDD1B7EA
:101440003745000013050555EF10A060E9B7B71741
:1014500002409843B706FFF01367170098C3D843BC
:10146000758FD8C39843B706F7FEFD16758F98C3DE
:101470009843B706FCFFFD16758F98C3D843B7068F
:1014800001FFFD16758FD8C337079F0098C7B74671
:10149000024003A706801367070123A0E680D84314
:1014A000B706C1FFFD16D8C3D843D8C3D8431367C6
:1014B0000740D8C3D843758FD8C3D843B706280090
:1014C000558FD8C39843B7060001558F98C39843EA
:1014D00093166700E3DD06FED843B7160240719B02
:1014E000D8C3D84313672700D8C32147DC42B18B48
:1014F000E39EE7FE8280B7160240DC421146B18BC4
:101500001387C1816385C70021466388C702B71767
:101510007A00938707201CC3B7170240DC439183EE
:1015200093F6F700B707002093870700B697942338
:101530001C43B3D7D7001CC38280DC42D44241662F
:10154000C983BD8BF18E890745466393C700C947A0
:1015500081EEB746024083A60680C18A89CEB716BF
:101560007A009386062021A8B7160240D44213962B
:10157000E600E35606FEB7163D0093860690B38755
:10158000D70251BF938741889C239388418893F762
:10159000F70FB5E3938701898E23938621899622DD
:1015A0001386018993872189C206C1826385B604A7
:1015B00003C791871377F70F1DCF014713858193D9
:1015C000138881AB130E000403D307000E22931679
:1015D0000701C182C205C1816390650289CE85473A
:1015E0002380F800B707005096BF03C7A7031377FF
:1015F000C70F238DE70282809623B305E500050718
:10160000C296942294A19623850693F6F61F96A37C
:10161000E31CC7FB93060004D9B7EFE27FB1054591
:10162000EF00D01185450565EF00F01F370400502D
:1016300099471CA02945EF00D0532300040093874D
:10164000818F1CC89387C1875CC8938781931CCC0A
:10165000938781975CCC930700045CA4930740F8C0
:101660005CB42318040289472309F402A309040285
:10167000231A0402A947230BF402231C0402230D9E
:10168000F402A147A30FF402A3010400930710F88A
:101690001CB0930790021CA0FD577CA09D473CA066
:1016A000B7E700E0A38D07423707000823A2E71041
:1016B000A38B0186A38C0186238C0186238201885B
:1016C0002393018823940188239801882399018812
:1016D0006FE05FA8EFE2DFA5B7E700E0370700089B
:1016E00023A2E7180F100000B7070050238107005E
:1016F00023800700A380070081450565EF00B01235
:10170000A38C0186238201886FE0DFA403D5618862
:1017100083D7818842054181C207C1836364F50094
:101720001D8D82801D8D13050510828083D66188F2
:10173000938781889A237D5542074183630CD700A4
:1017400096231387819B369796230823850693F665
:10175000F60F96A3828083C7918793F7F70FBDCBCF
:10176000BDC9EFE2FF9C41110144138681AB138791
:1017700001891E23938621899622850793F7F71FF7
:10178000639DD7029304800873B004800F1000009B
:10179000EFF05FDF73A00480A2852EC613048008DB
:1017A000733004800F100000EFF0DFDD7320048041
:1017B000B24541012E856FE0FF991623330885005D
:1017C00003480800B2961EA3238006010504E39097
:1017D00085FAE1B781452E858280011122CE26CC83
:1017E0004ACA4EC852C656C4370400500349640062
:1017F0001379F90F9377290085C77C30854693F7D5
:10180000F70F13F7F700630FD72635CB894763042B
:10181000F7288D476305F72AB70700500947F8A353
:101820009377190085CFB7070050A3810700A38BDA
:101830000186A38C0186238C0186238201880947B7
:101840002389E702A38907022947238BE702238D17
:10185000E7022147A38FE7020547F8A31379490060
:1018600063060900B70700501147F8A37244E24429
:101870005249C249324AA24A05617300203093F7A7
:101880000703130700036399E71483C7818F138746
:10189000A18823A601882310070093F70706138762
:1018A000818F938AC188138AA188F9EF1C33A546DA
:1018B00063E5F60291668A079386465AB6979C437B
:1018C00082873E23094693D68700638CC60C8D45DC
:1018D0006388B6008547638CF60C014481473DA8B8
:1018E00093F7F70FE9CB8545638BB70C638DC70C76
:1018F000E395D7FE11641304C464C94705A03C23D3
:1019000093F7F707A38BF1868546238CD186F1B731
:1019100083C791871384818F1CA38547662363F354
:101920009700BE849399040193D909019307000499
:1019300063F4370193040004C204C18059C8630AE8
:10194000E408B3899940C209A28526861385818F50
:10195000269493D90901EF00707323A08A00231005
:101960003A01B707005086BB11472389E702A389D4
:10197000E7025DB53423A38CD18685B72310070019
:101980001384818F894759BF93060002E397D7F4E8
:10199000143393071002E392F6F4138401829D47F7
:1019A000B5BF11641304C45C9307300485BF116490
:1019B0001304046199B713844183914785B7138455
:1019C0008183A147A1BF116413044462930760029D
:1019D000B1B723100A0071B713070002639FE7082D
:1019E0009387818798231377F70F01CB03C77187FC
:1019F0001377F70F38B0238007009387A1889E23C1
:101A00001384A188C207C183BDC31E20130700042D
:101A1000C207C1833E8A6374F700130A00049384EB
:101A2000C18883A90400931A0A0193DA0A01568631
:101A3000CE851385818FEF0070651220D69923A083
:101A40003401330656414206418212A0B7070050C6
:101A50002398470303C72703134747002389E70257
:101A600003C727031377F70F2389E70275B3B70777
:101A70000050239807020947C5BFE39F07D8A30971
:101A8000040259BB8347640393F7C70F93E727000A
:101A9000230BF40251B39384418823800400EFF0B8
:101AA0007FAE9C2093F7F70FE39807D68347A403F4
:101AB00093F7C70F93E72700230DF402B1BB14443B
:101AC000C206C18201471386819B93858197931734
:101AD0000701C18363EBD700370700508347F70343
:101AE00093F7C70FA30FF70205BB138561881E216B
:101AF0001388818803580800850793F7F70F638CD4
:101B0000070103580500338EE500034E0E0032989E
:101B10001EA12300C80105075DBF01A097F1FF1FAB
:101B2000938141ED173100201301C14D173500009D
:101B3000130545DE97E5FF1F9385C54C1386818409
:101B400063FAC5008322050023A055001105910505
:101B5000E3EAC5FE138581849385C1CB6377B50025
:101B6000232005001105E36DB5FEFD42739002BC14
:101B70008D4273904280930280087390023097E206
:101B8000FFFF9382624893E2320073905230EFF08D
:101B90001F8C97F2FFFF9382C27C73901234730004
:101BA0002030EFE2EFD8B727014093870740631C4E
:101BB000F500854513050020E1218145130500202E
:101BC000C1216FE02FD9B737014093870780E31A0F
:101BD000F5FE85451305004065218145130500404C
:101BE000C5B75C413707F1E01307F7EF944D7D8FE0
:101BF0009C41D58FD44DD58FD441A206D58FD98F96
:101C00005CC11C4537F7F1FF1307D77FD4457D8FA3
:101C10009C49D58F94458606D58FD98F1CC55C55B8
:101C2000370710FF7D177D8FDC29FD1793F7F70F1E
:101C3000D207D98F5CD582801C4589C593E71700F0
:101C40001CC58280F99BEDBF1C4593E787001CC52E
:101C5000828008450D81058982801C4593E74700F5
:101C60001CC5828008450981058982801C4591C573
:101C700037075000D98F1CC582803707B0FF7D170A
:101C8000F98FD5BFA54763F7B7048D47138765FF65
:101C90003307F7020328C5009D47B397E70093C7B2
:101CA000F7FFB3F70701B396E600DD8E54C59947F9
:101CB00063E3C70495477D163306F6025859FD477E
:101CC000B397C70093C7F7FFF98F3396C5005D8EB2
:101CD00050D982800D473387E502032805019D47CF
:101CE000B397E70093C7F7FFB3F70701B396E60092
:101CF000DD8E14C96DBFB14763E2C7029547651613
:101D00003306F6021859FD47B397C70093C7F7FF8C
:101D1000F98F3396C5005D8E10D9828095474D1698
:101D20003306F6025855FD47B397C70093C7F7FF30
:101D3000F98FB395C500DD8D4CD58280684542058D
:101D400041818280B727014093870740984711C59A
:101D5000B7068000558F98C78280B70680FFFD16B2
:101D6000758FD5BF08416D8D3335A00082809C45AD
:101D700013F7070113F8F70001C7D8413368E800EB
:101D800037270240145B3707000F758F4DEB8546F0
:101D9000238AD188371701406315E5009A213583DE
:101DA0009AA18E2113F7F50F39C318418146854E4C
:101DB0003D4F930F800293028004214E3396DE0044
:101DC000B3F8C500631116039398260033131F015F
:101DD0001343F3FF3377E300B318180133E7E80048
:101DE0006397F70750C98506E39AC6FD18C1130724
:101DF000F00F6375B70454412146854E3D4F930F54
:101E0000800293028004414EB398CE0033F715014F
:101E10006392E8021317260001173313EF001343F0
:101E2000F3FFB376D3003317E800D98E6395F70339
:101E3000232A15010506E319C6FD54C18280371710
:101E40000140E310E5F603C7418921DF81BFE39C30
:101E500057F810C949BFE39F57FC23281501D9BF84
:101E6000B71701406316F50083C7418991C3B58157
:101E700008456D8D3335A0008280B7170140631689
:101E8000F50083C7418991C3B5814CC9828023ACD9
:101E9000A1888280377700405C4309C593E707102B
:101EA0005CC3828093F7F7EFE5BFB77700409843B4
:101EB0001367470098C398431367270098C3B7F781
:101EC00000E003A707D11367470023A8E7D003A7C3
:101ED00007D15D9B23A8E7D0730050108280B777AD
:101EE0000040DC437D8D3335A0008280B777004011
:101EF00098430A05598D88C38280B71702409843DA
:101F0000B706FFF01367170098C3D843758FD8C37F
:101F10009843B706F7FEFD16758F98C39843B7062A
:101F2000FCFFFD16758F98C3D843B70601FFFD1659
:101F3000758FD8C337079F0098C78280B7170240B4
:101F4000D843B70640FFFD16758FD8C3D8435A054E
:101F5000598DC8C38280B7160240DC4251777D1785
:101F6000F98F5D8DC8C28280371702405C4391466D
:101F7000B18B6385D700A1466382D706B7177A0075
:101F8000938707201CC1371602405C4237070020A8
:101F9000130707019183BD8BBA9794231C41B3D7D4
:101FA000D7005CC15442A1829D8ABA969422B3D6CE
:101FB000D70014C55442AD829D8A36971823B3D7F3
:101FC000E7005CC5584239839376370013878182D6
:101FD00036971823B3D7E7021CC982805C43584365
:101FE000C166C983BD8B758F8907C5466393D700CA
:101FF000C94701EF3747024003270780418B09CFCC
:1020000037177A001307072021A8371702405843D3
:102010009316E700E3D606FE37173D001307079037
:10202000B387E70285B799C5371702405C4B5D8DD2
:1020300048CB8280B7170240D84B1345F5FF798D06
:10204000C8CB828099C5371702401C4F5D8D08CFE1
:102050008280B7170240984F1345F5FF798D88CFDE
:10206000828099C5371702405C4F5D8D48CF8280D2
:10207000B7170240D84F1345F5FF798DC8CF82803E
:1020800099C5371702405C475D8D48C78280B717F6
:102090000240D8471345F5FF798DC8C7828099C59E
:1020A000371702401C4B5D8D08CB8280B71702406A
:1020B000984B1345F5FF798D88CB82801E213737E9
:1020C0000140130707C0C207C1836300E502370759
:1020D0000040630CE500130707406308E50037176D
:1020E0000040130707806316E500BA2193F7F7F85D
:1020F000D98FFA2193F7F7CFC207C183D98F1EA1D9
:10210000DE215EB59E211EB5B7370140938707C01B
:102110006314F5009C251EB985475EA982801E3197
:1021200003D88500C207C18393F7F7EFC207C183C5
:102130001EB11E3156215A2DC207139606014207C1
:10214000962141831377C7F8558FB621C18393F742
:10215000F7DFB3E60601A206D58FB7360140C20706
:10216000938606C04182C183631FD502FD769386A4
:10217000F67FF58FB62503D8C500A206D58FD621E8
:10218000C207C183A20693F7F7BFD58FF576FD1678
:10219000F18EF225C207C183336606011206D18E85
:1021A00013960601418252A15AADFA215ABD1EB1C1
:1021B00082801A31FD77FD17F98F1EB10358050291
:1021C00056215E2D657792211307F7CF7D8FF97722
:1021D0002206FD17518FB3F70701B22103D88500FE
:1021E000C2064207336606013206D18F37360140F8
:1021F000C207130606C0C1824183C183631AC500AA
:1022000071767D16F18ED2251A06D18EC206C18254
:1022100056A15AADFA212310E5041EB182801E2179
:1022200089C593E717001EA18280C207C183F99B6D
:10223000C207C183CDBF1E2189C593E707081EA130
:102240008280C207C18393F7F7F7C207C183C5BF76
:102250005E2DC207C183DD9BDD8D4EAD82805A2D80
:10226000FD779387F77FF98FA205CD8FC207C183D2
:102270005EAD82804EBD82802310B5048280EFD295
:102280003FEB1A29F577FD17F98FFA2101112A84FE
:10229000D98F1EA99A25DE215625AE84D98FBA255D
:1022A000D98F7D771307379F758FD98F5EA55E29EC
:1022B000DA25C207C18393F7F7CFD98F5EA96800EB
:1022C000EFF09FCAB7470140938707806316F40475
:1022D000E2476545B335F502904081460A0633056D
:1022E000F502C922930640063357D50212079357C9
:1022F0004700B387F6021D8D93174500138527030A
:102300009307F06363FCA7001305070142054181B1
:102310000AA405616FD01FE4D24765BF3355D502CB
:10232000598DEDB791C55E250967D98F5EA582806D
:102330005A25F977FD17F98FD5BF93F5F51F4EA1F3
:1023400082800A216D8D3335A000828083A7C181F0
:1023500037177A0013070720B3D7E70293F7F70F71
:10236000238FF1881307803EB387E702239EF1880D
:102370008280B7F700E0D8438146799BD8C303C772
:10238000E1893306A70290CBD4CB984313670701AA
:1023900098C398431367170298C3D843058B75DF1A
:1023A0009843799B98C38280B7F700E0D843814671
:1023B000799BD8C303D7C1893306A70290CBD4CB6E
:1023C00098431367070198C398431367170298C38C
:1023D000D843058B75DF9843799B98C38280EFD2F1
:1023E0003FD52A841165011185451105EFF09FC580
:1023F000930700207C82371501408D473EC44C0076
:10240000E147130505803EC6EFF07F9622C83744AA
:102410000140B70708000C08130504803ECC02CA2F
:10242000231E0100EFF0BFE5854513050480EFF0A2
:102430007FEF05616FD01FD2EFD2FFCDB7440140CF
:10244000AE89328901449384048063492401CA859A
:102450004E85EFF04FB04A856FD03FCF9305000413
:102460002685EFF01FEE7DD9B387890083850700AD
:1024700026850504C205C181EFF03FECF9B713874B
:10248000C1821C439386C1CB3E95636BD500B75682
:1024900000209386068063E5A60008C33E858280FF
:1024A000FD57EDBFB687B2882A832E88639B06143A
:1024B00063F8C50A4167636BE61AB70700016360FA
:1024C000F63493568601E147172700001307871952
:1024D00036971823BA97130700021D8F19CB33982C
:1024E000E500B357F500B318E60033E807013313EE
:1024F000E50013D608013355C80293960801C1823E
:10250000935703013377C802B385A60242073368A5
:10251000F700637AB80046989307F5FF63641801E3
:102520006365B8303E853308B8403357C80242036C
:10253000135303013378C802B386E60242083368B6
:102540006800637BD80046989307F7FF636518011E
:1025500079176363D8003E874205598D8145828093
:1025600001E60547B358C702416763E8E80EB707BD
:10257000000163EAF82893D68801E1471727000095
:102580001307470E36971423BE9693070002958FC4
:10259000FDE7939E08013387154113DF080193DEA1
:1025A0000E018545935703013355E7033377E7035E
:1025B000B306D5034207D98F63FAD700C69713072E
:1025C000F5FF63E4170163E5D7263A85958F33D786
:1025D000E703420313530301B3F7E703B30ED70333
:1025E000C207B3E7670063FBD701C6979306F7FFFF
:1025F00063E51701791763E3D70136874205598DE3
:10260000828063E1D504C16763E1F604B707000186
:1026100063E3F61E13D7860161489727000093876E
:102620006704BA979823130E00024297330EEE40C8
:10263000631A0E0C63EDB61C3335C5001345150047
:10264000814582808145014582809307F00F63F3C5
:10265000D71C13D786002148C9B71307F00FC686C9
:10266000E37E17F193D68800A14709BF1307F00F47
:10267000B286E37BC7E493568600A147B1B5B39811
:10268000F80033D6D50013DF0801335EE603339735
:10269000F500B356D500558F939E080193DE0E01C9
:1026A0003313F50093550701B376E603B387CE03E2
:1026B000C206CD8E63FBF600C6961306FEFF63E4EA
:1026C000161763F2F616791EC6969D8E33D6E6036C
:1026D00093170701C183B3F6E6033385CE02139740
:1026E00006015D8F637BA70046979307F6FF63683B
:1026F00017136376A7127916469793150E01098F63
:10270000D18D4DB5B357E600B396C601DD8E33D3F8
:10271000E50013DF0601B357E303939E060193DE42
:102720000E013398C5013357E5003368070193580C
:1027300008013316C6013373E303B385FE02420377
:10274000B368130163FBB800B6981387F7FF63EA19
:10275000D80C63F8B80CF917B698B388B84033D7DB
:10276000E803420813580801B3F8E8033383EE0284
:10277000C208B3E5080163FB6500B6951308F7FFCF
:1027800063EDD50863FB65087917B695C207416FFD
:10279000D98F1307FFFFB3F6E70093D80701718FB6
:1027A0004182B38EE602B3856540B386C60213D874
:1027B0000E013387E802BA96C2963386C80263F3E5
:1027C000E6007A9693D80601469663E2C5026385D1
:1027D000C5003E858145828041677D17F98EC2061E
:1027E000B3FEEE003315C501F696E374D5FE1385EE
:1027F000F7FF8145828013D70601414839BD9356C2
:102800000601C147D1B193D60801C14785BB8145B7
:10281000054582803687014809B5428785BF3E86D7
:10282000E9BDBA871DBF328E4DB579154698E5B919
:102830007915C69761BB2946814559A60325C50E62
:102840008280938701839C439C5389E797D7FF1F1E
:102850009387477D03A5C70E828091ED41116C00DF
:10286000014501CA795591C61C229CC10822333505
:10287000A00041018280014509CA795599C61C22F0
:102880009CC108223335A00082808280B3C7A50096
:102890008D8B3307C50081E78D4763EDC700AA879D
:1028A000637EE508942185078505A38FD7FEE3EBBA
:1028B000E7FE828093763500AA8789CA942185072E
:1028C0008505A38FD7FE93F63700C5BF9376C7FF64
:1028D000138606FE63F0C70683A3050083A24500A6
:1028E00083AF850003AFC50083AE050103AE45018C
:1028F00003A3850183A8C5019385450223A0770022
:1029000003A8C5FF23A2570023A4F70123A6E701CC
:1029100023A8D70123AAC70123AC670023AE170160
:102920009387470223AE07FF75B790419107910542
:1029300023AEC7FEE3EBD7FEE3E6E7F6828039710C
:102940003EDA2ED232D436D63AD842DC46DE9387EF
:10295000018322CC804326CA06CEAA8409C41C4C1B
:1029600099E32285712D0C4454102686228536C6A3
:10297000EF00702DF2406244D24421618280011147
:1029800026CA4AC806CE22CC4EC652C4AA842E8974
:1029900001C51C4D91E3AD259C4C804499E32685EF
:1029A000852597270000938727EF631BF402C0401B
:1029B0005E24A18BB1C71C48A1C7FD59294A1C44FC
:1029C00083450900FD17B1E91CC463DD07062286B3
:1029D000A94526852924FD576308F502294535A018
:1029E00097270000938747ED6314F4008044C9B72C
:1029F00097270000938747E8E31CF4FAC0444DBFD3
:102A0000A2852685552C55D97D55F2406244D24485
:102A10004249B249224A056182801CC4050963D734
:102A20000700184C63CAE700638845011C40138700
:102A3000170018C08CA361B7228626854D22E310AB
:102A400035F9D9B71C401387170018C0294798A338
:102A500071B793870183AA8588436FF05FF215C22F
:102A60007D160147B307E500B386E5009C23942259
:102A70006396D7006304C7000507EDF73385D74099
:102A800082800145828079714AD04ECE06D622D40A
:102A900026D2AA892E899304190003C4F4FF3A852B
:102AA00036C632C42EC23AC0EFF05FD922951C312F
:102AB00002479245A18B2246B246D1E39307D0024A
:102AC0006311F4089C20054393042900E5C641479F
:102AD0006390E60213070003639CE7009C20130742
:102AE000800593F7F70D6392E70C9C30C14689048B
:102AF000B70800806314030093C8F8FF33FFD802BF
:102B000001480145A54FE54EFD5233DED80213873B
:102B100007FD63E3EF04BA8763DED704630D580053
:102B20007D58636AAE006314AE006346FF0005483B
:102B30003385A6023E95850483C7F4FFC9BF268965
:102B400099BF9307B0026305F400A2870143BDBF9C
:102B50009C2093042900DDBF1387F7FB63E5EE009B
:102B6000938797FC55BF1387F7F963E5EE009387CA
:102B700097FA5DB7FD57631FF8009307200223A063
:102B8000F900468519EEB250225492540259F24986
:102B900045618280630403003305A0406DD6630461
:102BA00008009385F4FF0CC2F9BF93070003A9F254
:102BB000A1463DBF13070003E382E7F2A9460DBF1C
:102BC000938701839C43B286985309E717D7FF1F69
:102BD000130747452E86AA853E856FF0DFEA01116F
:102BE00022CC26CA4AC806CE4EC6AA842E89328472
:102BF00001C51C4D91E32921972700009387C7C980
:102C00006317F406C0401C4C1CC45E24A18BC1C3D6
:102C10001C48B5CF1C4808409379F90F1379F90F78
:102C20001D8D5C486346F500A2852685652C25E54B
:102C30001C440505FD171CC41C401387170018C051
:102C4000238037015C486388A7005E24858B81CB95
:102C5000A9476316F900A285268569240DEDF24087
:102C600062444A85D2444249B2490561828097272D
:102C70000000938767C46314F400804469B7972702
:102C80000000938767BFE310F4F8C044ADBFA2858E
:102C900026851D2041D17D59D9B789CD9307F00FE5
:102CA00063F7C7009307A0081CC17D55828090A1DF
:102CB000054582800145828041119387018326C2A8
:102CC000844322C44AC006C62A892E8489C49C4CE7
:102CD00099E326853526972700009387E7BB631B7A
:102CE000F402C0400317C40093170701C18393F691
:102CF0008700ADEA93F6070195EEA5472320F9007A
:102D0000136707045AA47D55B240224492440249F5
:102D10004101828097270000938707BA6314F4006B
:102D20008044C9B797270000938707B5E31CF4FADE
:102D3000C0444DBF918B9DC34C5889C9930744042F
:102D40006384F5004A85292B232A04025E2423226A
:102D5000040093F7B7FD5EA41C481CC05E2493E7F3
:102D600087005EA41C4899EB5E241307002093F7AC
:102D700007286385E700A2854A8591295E2413F719
:102D800017001DC35C4823240400B307F0401CCC8B
:102D90001C480145B5FB8317C40013F707082DD75E
:102DA00093E707045EA485B7898B014791E35848F0
:102DB00018C4F9BFDE25011122CC26CA06CE4AC8A6
:102DC0004EC613F78700AA842E8479EBD841634D51
:102DD000E000B841634AE0000145F2406244D24459
:102DE0004249B2490561828058547DD703A9040045
:102DF0009396370123A0040063DB060670485E2427
:102E0000918B99C75C401D8E5C5899C33C401D8EC8
:102E10005C540C50814626858297FD575A24631DC9
:102E2000F5009440F54763E8D706B70740208507CB
:102E3000B3D7D700858BA5C31C48232204001CC030
:102E40009317370163D80700FD576314F5009C40C2
:102E500091E368C84C5823A02401BDDD93074404C6
:102E60006384F5002685ED2E232A0402B5B70C50A5
:102E70000146854626850297FD572A86E311F5F817
:102E80009C40B5DF75476385E70059476393E704C6
:102E900023A0240191B7136707045AA47D5535BFB9
:102EA00083A90501E38A09F203A905008D8B23A0FC
:102EB000350133093941014791E3D84918C4E35D2D
:102EC00020F11C540C50CA864E8626858297634793
:102ED000A0005E2493E707045EA4C9B7AA9933094A
:102EE000A940F1BF9C49A5C3011122CC06CE2A847A
:102EF00011C51C4D81E72EC62122B245972700003F
:102F000093878799639CF5004C408397C5009DC7C4
:102F100022856244F24005616FF0DFE997270000E7
:102F2000938787996394F5000C44C5B797270000F1
:102F300093878794E39BF5FC4C44C1BFF240624405
:102F400001450561828001458280411122C406C687
:102F50002A844EA572A523200500232205002324E0
:102F600005002322050623280500232A0500232C1B
:102F70000500214681451305C505EFD06F9E9717C3
:102F80000000938787B25CD0971700009387A7B49F
:102F90001CD497170000938787B85CD4971700005C
:102FA0009387E7BA00D01CD8B24022444101828006
:102FB00097050000938545F391AA411126C2130697
:102FC00080069384F5FFB384C4024AC02E8922C4CC
:102FD00006C6938544070D2E2A8401CD23200500C3
:102FE00023222501310508C4138684068145EFD0CC
:102FF0002F972285B24022449244024941018280A7
:103000001C4DA5E7411106C622C49707000093870F
:1030100067FA1CD5938701849C4323240504232647
:103020000504232805046314F50085471CCD2A8474
:10303000352848C022851D2808C42285052848C493
:10304000484001469145EFF05FF008440546A5452C
:10305000EFF0BFEF48440946C945EFF01FEF854741
:103060001CCCB2402244410182808280411193876E
:10307000018426C284434AC006C69C4C22C42A89C5
:1030800081E72685EFF0DFF7938484048044DC40F9
:10309000FD1763D607009C40B9CF8440C5BF031716
:1030A000C40039E7C17785072322040623200400E2
:1030B00023220400232404005CC423280400232AC0
:1030C0000400232C0400214681451305C405EFD0DC
:1030D0002F89232A0402232C0402232404042326F8
:1030E00004042285B2402244924402494101828074
:1030F0001304840671BF91454A85EFF01FEC88C028
:1031000049FDB1472320F9000144E1BF797122D480
:103110004AD052CC56CA5AC85EC606D626D24ECE21
:103120002A8AAE8A130485040149054BFD5B09EC2C
:10313000B25022544A8592540259F249624AD24A04
:10314000424BB24B45618280044483294400FD19FF
:1031500063D409000040E1BFDE24637BFB0083975A
:10316000E40063877701A6855285829A3369A900B6
:1031700093848406E9BF1971A6DAAE848395E500CD
:10318000A2DC86DE328463DB0500DE2423A0060099
:1031900093F7070885E7930700401DA0300836C65F
:1031A000EF007020B246E34205FE7247BD67F98F1B
:1031B0007977BA9793B717009CC2F1BF93070004C1
:1031C0001CC0F6506654D654014509618280DE2544
:1031D000011122CC06CE26CA4AC8898B2E8489CFFB
:1031E000930774041CC01CC885475CC8F240624445
:1031F000D24442490561828074003000AA84EFF015
:103200009FF7A2452A892685012219E98317C40060
:1032100013F7072061FFF19B93E727005EA4C9B76E
:1032200097070000938707D99CD45E2408C008C87C
:1032300093E707085EA4A2475CC8B24781CF831515
:10324000E4002685EF00D01811C55E24F19B93E7BA
:1032500017005EA45E243369F9002316240179B7B0
:10326000DDC183A7C5FF411122C406C626C213844F
:10327000C5FF63D307003E94AA84EF00301C9387F8
:10328000018A9C4381EF2322040023A0818A2244E7
:10329000B2402685924441016F00701A637EF400AB
:1032A00014403307D4006396E7009843DC43369715
:1032B00018C05CC0D9BFBA87D84319C3E37DE4FE08
:1032C00094433386D700631F86001040B29694C3A0
:1032D0003386D700E31DC7FA10435843B29694C310
:1032E000D8C375B76375C400B1479CC04DB71040D3
:1032F000B306C4006316D70014435843B29614C0F3
:1033000058C0C0C369B78280011126CA93843500B2
:10331000F19806CE22CC4AC84EC6A104B14763F349
:10332000F404B14463E2B4042A89EF0030119387B6
:10333000018A98433A8439E09387418A9C4391E714
:1033400081454A85252F23A2A18AA6854A853D2746
:10335000FD5963193507B1472320F9004A85EF006D
:10336000100E29A0E3D004FCB1471CC10145F24076
:103370006244D2444249B249056182801C40858F33
:1033800063CF0702AD4663F6F6001CC03E9404C04E
:1033900031A05C406313870223A0F18A4A85EF00C5
:1033A000100A1305B4009307440061993307F540F0
:1033B0005DDF3A94898F1CC05DBF5CC3C5B72287AF
:1033C000404095BF130435007198E30285FCB305B6
:1033D000A4404A856525E31C35FBB5BF1C46FD1797
:1033E0001CC663DA0700184E63C5E700A94763945B
:1033F000F5006FF0CFFE1C422E851387170018C210
:103400008CA38280011122CC26CA4AC84EC652C45F
:1034100006CE2A89AE893284B304D6007D5A63145D
:103420009400014509A80C204E864A85EFF01FFB49
:103430000504E31645FFF2406244D2444249B249D2
:10344000224A05618280357122CD26CB4AC94EC7FA
:1034500006CF52C556C35AC1DEDEE2DCE6DAAA89DF
:10346000AE843289368409C51C4D99E3EFF05FB90B
:1034700097170000938747426398F40C83A4490090
:10348000DE24A18BE5C79C48F5C393070002A30483
:10349000F1029307000302D22305F10222C6930B27
:1034A0005002971A0000938A2A43054C294B4A84FC
:1034B0001C2099C3639F770DB30C2441638E0C00CD
:1034C000E6864A86A6854E85EFF0DFF3FD57630F4B
:1034D000F51C9256E69636D21C206389071CFD57D0
:1034E0001309140002C802CE3ECA02CCA30901048B
:1034F00082D483450900154656852D2713041900EB
:10350000C24751E913F7070109C713070002A309CE
:10351000E10413F7870009C71307B002A309E10408
:10352000834609001307A002638FE606F2474A8428
:1035300081462546182093051400130707FD63777D
:10354000E60AB5CA3ECE85A8971700009387C7360E
:103550006395F40083A4890025B79717000093872B
:10356000A731E39FF4F083A4C90019BFA6854E8557
:10357000EFF08FF419D97D55FA406A44DA444A498C
:10358000BA492A4A9A4A0A4BF65B665CD65C0D61D8
:103590008280050431BF330555413315AC00C98F16
:1035A0003EC82289B9B7324793064700184336C64A
:1035B000634707023ACE18209307E002631DF70421
:1035C00018309307A002631BF702B2470904138760
:1035D00047009C433AC663C107023ECA2DA8330781
:1035E000E04093E727003ACE3EC8F1B7B3876703C0
:1035F00085462E84BA973DBFFD57C5B7050402CA5C
:10360000814681472546182093051400130707FDBE
:103610006374E606F9F20C200D4617150000130539
:10362000252C092511CD971700009387672B1D8D39
:1036300093070004B397A700424505045D8D2AC88F
:103640000C201946171500001305C529130914008D
:103650002304B102C12B35C197D7FFFF9387879A07
:1036600095E74247B2471377071009CF91073EC647
:103670009257D2973ED225BDB387670385462E84E5
:10368000BA9751B79D07E19BA107D5B77800970678
:103690000000938666D726860C084E8597000000AA
:1036A000E7000000FD572A8AE314F5FCDE2493F7B7
:1036B0000704E39207EC1255C1B5780097060000A5
:1036C000938686D426860C084E85012AE1BF79713F
:1036D00056CA9C49BA8A984522D426D24ECE52CC9C
:1036E00006D64AD05AC85EC6AA892E84B284368AC3
:1036F00063D3E700BA879CC00347340419C3850726
:103700009CC01C4093F7070281C79C4089079CC05E
:103710000329040013796900631A0900130B94014B
:10372000FD5B5C449840998F634CF9041C408346D0
:10373000340493F70702B336D000A5EB1306340424
:10374000D2854E85829AFD576303F5041C401146CD
:103750009840998B544481446397C700B384E640F2
:1037600063D3040081441C4418486354F700998FC4
:10377000BE94014969047D5B63982405014509A84D
:1037800085465A86D2854E85829A631E75017D557F
:10379000B250225492540259F249624AD24A424BE0
:1037A000B24B456182800509ADBF3307D4001306D3
:1037B0000003A301C7040347540493871600A2978C
:1037C0008906A381E7049DBF85462286D2854E8562
:1037D000829AE30E65FB050945B7797122D426D29A
:1037E0004AD04ECE06D652CC56CA5AC8B689942D67
:1037F000930790063289AA842E8413863504638D3C
:10380000F60263E2D706930780056386F61863ED38
:10381000D700638E062093073004638EF60A930A5E
:1038200024042301D404C9A0930730066385F60A53
:1038300093074006E395F6FE1C40084393F60708FD
:1038400093054500C5C61C410CC363D80700130788
:10385000D002B307F040A301E4049716000093865A
:10386000E608294765A8930700076382F61663E513
:10387000D7029307E0066389F6189307F006E390F2
:10388000F6FA0C401C4313F805081385470063073C
:10389000080608C39C4385A893075007E383F6FEF8
:1038A000930780076389F61293073007E399F6F6CA
:1038B0001C43D04181459386470014C383AA070067
:1038C00056858D2601C53305554148C05C401CC84E
:1038D000A301040461A81C43930A240493864700AF
:1038E0009C4314C32301F4048547D5B793F607041A
:1038F0001C410CC3B9DAC207C18781BF93F5050427
:1039000008C3C9D99E231307F0066387E60E9716EE
:1039100000009386A6FD2947A30104044C400CC473
:1039200063C5050008406D9908C099E3B28A89CD46
:10393000B28AB3F5E702FD1AB6958C212380BA004E
:10394000B3D5E70263F0E70CA147631EF7001C4004
:10395000858B91CB58401C4863C7E7009307000351
:10396000A38FFAFEFD1A3306564110C84E87CA8649
:103970007000A2852685EFF09FD57D5A631D450B0B
:103980007D55B250225492540259F249624AD24AA9
:10399000424B45618280A382D5049716000093862E
:1039A000E6F40C40084313F805081C411105630DAB
:1039B000080208C313F7150001C793E505020CC000
:1039C0004147B9FB0C4093F5F5FD0CC0B1B79C41E4
:1039D00093E707029CC193078007A302F40497169C
:1039E00000009386E6F175BF13F8050408C3E303EE
:1039F00008FCC207C1837DBF97160000938606EFBF
:103A0000214719BFAE8735B794411C43CC4913F801
:103A10000608138547006306080008C39C438CC34F
:103A200039A008C393F606049C43F5DA8EA3232835
:103A30000400B28A25BF14485686CA852685829915
:103A4000E30045F51C40898B8DE7B2474844E35AB3
:103A5000F5F23E853DB785465686CA85268582990C
:103A6000E30065F3050A5C443247998FE345FAFEAB
:103A7000E9BF014A930A94017D5BF5B7411122C465
:103A80002A842E8523AC01CA06C6EFE05F9FFD574E
:103A90006317F500938781CB9C4391C31CC0B24050
:103AA000224441018280411122C42E848395E50085
:103AB00006C67922634905007C48AA977CC8B240B3
:103AC0002244410182805E247D777D17F98F5EA4B8
:103AD000FDB7DE25011122CC26CA4AC84EC606CE45
:103AE00093F70710AA842E843289B68991C78395EB
:103AF000E5008946014609225E247D777D17F98F0E
:103B00005EA48315E4006244F240CE864A86B24940
:103B100042492685D244056125A8411122C42E843C
:103B20008395E50006C6C928FD575A24631AF50097
:103B3000FD77FD17F98F5EA4B240224441018280D7
:103B40008567D98F5EA468C8C5BF8395E50005A8C1
:103B5000411122C42A842E85B285368623AC01CA3F
:103B600006C6EFE07F8DFD576317F500938781CB85
:103B70009C4391C31CC0B240224441018280411148
:103B800022C42A842E8523AC01CA06C6C520FD574F
:103B90006317F500938781CB9C4391C31CC0B2404F
:103BA000224441018280411122C42A842E85B2859B
:103BB00023AC01CA06C6C920FD576317F5009387D9
:103BC00081CB9C4391C31CC0B240224441018280FE
:103BD000411122C42A842E8523AC01CA06C65D2069
:103BE000FD576317F500938781CB9C4391C31CC09D
:103BF000B240224441018280411122C42A842E8590
:103C0000B285368623AC01CA06C65920FD57631714
:103C1000F500938781CB9C4391C31CC0B2402244E2
:103C20004101828093F5F50F2A966314C500014582
:103C300082801C21E38EB7FE0505C5BF828082808D
:103C4000411122C42A842E85B285368623AC01CA4E
:103C500006C6A920FD576317F500938781CB9C43C7
:103C600091C31CC0B2402244410182809307800569
:103C700023ACF1CA7D5582809307800523ACF1CA3D
:103C80007D5582809307800523ACF1CA014582806F
:103C90009307800523ACF1CA7D5582809307800588
:103CA00023ACF1CA7D55828048454C50000000008D
:103CB0000D0A3D3D3D2043483332563230332054C7
:103CC0006163746963616C20574D4C204465627573
:103CD0006720434C49203D3D3D0D00005354415465
:103CE00055532020202020202020202020202D205F
:103CF00051756572792073797374656D2073746181
:103D000074757320696E204A534F4E0D00000000F9
:103D10005345542050574D31203C302D31303030F8
:103D20003E202D20536574203335333520574C45C4
:103D300044206272696768746E6573730D000000D9
:103D40005345542050574D32203C302D31303030C7
:103D50003E202D20536574203635306E6D204C6129
:103D6000736572206272696768746E6573730D00A3
:103D7000534554204D4F4445203C302D353E2020A6
:103D800020202D20303A4F464620313A3130302520
:103D90002520323A3235252520333A4455414C20EE
:103DA000343A5354524F424520353A534F530D0A3B
:103DB000000000005345542054494D454F555420B0
:103DC0003C7365633E202D20536574206175746FCC
:103DD0002D7374616E6462792074696D656F75749A
:103DE0000D000000495350202020202020202020BA
:103DF0002020202020202D204A756D7020746F20F7
:103E0000666163746F72792055534220426F6F74FC
:103E10006C6F616465720D005245424F4F54202013
:103E2000202020202020202020202D20536F667469
:103E30002073797374656D2072657365740D00006D
:103E40003D3D3D3D3D3D3D3D3D3D3D3D3D3D3D3DA2
:103E50003D3D3D3D3D3D3D3D3D3D3D3D3D3D3D3D92
:103E60003D3D3D3D3D3D3D3D0D000000474554205D
:103E700053544154555300007B226261745F6D7648
:103E8000223A25642C2274696572223A25642C2218
:103E90007374617465223A25642C2270776D312227
:103EA0003A25642C2270776D32223A25642C2274D4
:103EB000696D656F7574223A25642C22737973637A
:103EC0006C6B223A25647D0D0A0000005345542096
:103ED00050574D31200000004F4B3A2050574D3184
:103EE0002073657420746F2025640D0A00000000A3
:103EF0005345542050574D32200000004F4B3A207C
:103F000050574D322073657420746F2025640D0A5C
:103F100000000000534554204D4F44452000000050
:103F20004F4B3A204D4F44452073657420746F20E9
:103F300025640D0A000000004552523A20496E7671
:103F4000616C6964206D6F64652028307E35290DB1
:103F5000000000005345542054494D454F5554200E
:103F6000000000004F4B3A2054494D454F55542016
:103F700073657420746F202564207365636F6E64AD
:103F8000730D0A004552523A2054696D656F75747D
:103F9000206D75737420626520317E333630302099
:103FA0007365636F6E64730D000000004953500029
:103FB000424F4F544C4F4144455200004F4B3A2022
:103FC0004A756D70696E6720746F205553422049A1
:103FD000535020426F6F746C6F6164657220696E1C
:103FE0002035306D732E2E2E0D0000005245424FAD
:103FF0004F54000052455345540000004F4B3A20A7
:104000005265626F6F74696E672E2E2E0D00000070
:104010004552523A20556E6B6E6F776E20636F6D0E
:104020006D616E6420272573272E205479706520DA
:104030002748454C502720666F7220636F6D6D6175
:104040006E64732E0D0A00000D0A5B4953505D200B
:10405000456E746572696E6720466163746F72792C
:104060002049535020426F6F746C6F6164657220F9
:104070004D6F64652E2E2E0D0000000046090000D5
:1040800056090000720900009E090000C0090000E6
:10409000DA090000E6090000080A0000260A00000C
:1040A000120C00001E0C0000260C0000300C00005A
:1040B0003C0C0000420C0000480C0000540C0000B6
:1040C000D20E0000D60E0000DE0E0000E60E00004C
:1040D000FE0E00005B5057525D20456E746572699C
:1040E0006E67204C6F772D506F7765722053746127
:1040F0006E646279204D6F64652E2E2E0D000000D7
:104100005B47554E4C494748545D20496E697420C1
:10411000436F6D706C657465642E0D005B47554E82
:104120004C494748545D20436C69636B3A204D6F9E
:1041300064652031205475726E6564204F6E0D00E9
:104140005B47554E4C494748545D20436C69636B4F
:104150003A204D6F6465203220284D61696E20320F
:104160003525290D0A0000005B47554E4C4947484C
:10417000545D20436C69636B3A204D6F6465203356
:1041800020284D61696E202B20417578290D000093
:104190005B47554E4C494748545D20436C69636BFF
:1041A0003A20416C6C204F66662C203130732063BE
:1041B0006F756E74646F776E20746F205374616EC8
:1041C0006462792E2E2E0D005B47554E4C494748B0
:1041D000545D20436C69636B3A20457869742053C1
:1041E00070656369616C204D6F6465202D3E2041D0
:1041F0006C6C204F66660D005B47554E4C49474836
:10420000545D20446F75626C6520436C69636B3A42
:10421000203130487A205374726F6265204D6F648C
:10422000650D00005B47554E4C494748545D20548E
:104230007269706C6520436C69636B3A20534F530D
:10424000204469737472657373204D6F64650D004B
:104250005B47554E4C494748545D204C6F6E672D67
:1042600070726573733A20416C6C204F6666212032
:10427000436865636B696E6720666F7220387320D0
:1042800049535020686F6C642E2E2E0D00000000E4
:104290005B47554E4C494748545D20387320686F42
:1042A0006C642072656163686564202D3E20456EF4
:1042B0007465722049535020426F6F746C6F616453
:1042C0006572210D000000005B47554E4C49474880
:1042D000545D20416C6C204F666620636F6E66698A
:1042E000726D65642C2031307320636F756E746459
:1042F0006F776E20746F205374616E6462792E2E16
:104300002E0D00005B47554E4C494748545D2054E4
:1043100075726E6564204F6E202D3E204D6F646572
:1043200020310D005B5057525D20426174746572FC
:104330007920437269746963616C20283C20322EB5
:104340003935562921204375746F66662070726F67
:1043500074656374696F6E207472696767657265EE
:10436000642E0D005B5057525D204261747465727B
:10437000792054696572205377697463683A2025FF
:1043800064202D3E2025642028566261743D2564FA
:10439000206D56290D0A00000100140000001400D1
:1043A00001001400000014000100140000003C0093
:1043B00001003C000000140001003C00000014005B
:1043C00001003C0000003C0001001400000014004B
:1043D00001001400000014000100140000008C0013
:1043E0000D0A3D3D3D3D3D3D3D3D3D3D3D3D3D3D60
:1043F0003D3D3D3D3D3D3D3D3D3D3D3D3D3D3D3DED
:104400003D3D3D3D3D3D3D3D3D3D0D002020434872
:10441000333256323033463855362054616374692E
:1044200063616C2047756E6C696768742028574D0E
:104430004C2920200D000000202053797374656DF5
:1044400020436C6F636B203A20256420487A0D0A64
:10445000000000002020555342204344432056438F
:104460005020203A20526561647920285041313132
:104470003A444D2C20504131323A4450290D00002D
:104480005B5057525D2057616B6575702066726F87
:104490006D204C6F772D506F776572205374616E6D
:1044A000646279210D0000005B5057525D204B651E
:1044B000792050726573736564206F6E2057616B4D
:1044C0006575702F426F6F743A20436865636B693E
:1044D0006E6720387320686F6C6420666F722049A5
:1044E00053502E2E2E0D00005B5057525D20382069
:1044F0007365636F6E647320686F6C6420726561AE
:1045000063686564202D3E20456E746572696E6730
:104510002049535020426F6F746C6F616465722143
:104520000D0000005B5057525D204E6F726D616C44
:10453000205475726E204F6E202D3E204D6F6465A5
:10454000203120283130302525292E0D0A00000089
:104550005B5057525D20426F6F7420696E20537418
:10456000616E646279205761697420537461746567
:1045700020284175746F20736C65657020616674C6
:1045800065722074696D656F7574206F7220726535
:1045900061647920666F722055534220686F73748E
:1045A000290D00007C190000DA180000DA1800005C
:1045B000DA180000DA180000FE180000C218000027
:1045C000DA180000101900007419000009024300F5
:1045D00002010080320904000001020201000524EA
:1045E0000010010524010001042402020524060034
:1045F000010705810308000A09040100020A0000FE
:104600000007058202400000070503024000000089
:104610001201100102000040861A0CFE0001010286
:104620000301000026034300480033003200560017
:10463000320030003300200057004D004C002000B5
:104640004400650062007500670000001203570017
:104650004D004C002D0032003000320036000000CA
:104660000001020203030303040404040404040419
:1046700005050505050505050505050505050505EA
:1046800006060606060606060606060606060606CA
:1046900006060606060606060606060606060606BA
:1046A000070707070707070707070707070707079A
:1046B000070707070707070707070707070707078A
:1046C000070707070707070707070707070707077A
:1046D000070707070707070707070707070707076A
:1046E000080808080808080808080808080808084A
:1046F000080808080808080808080808080808083A
:104700000808080808080808080808080808080829
:104710000808080808080808080808080808080819
:104720000808080808080808080808080808080809
:1047300008080808080808080808080808080808F9
:1047400008080808080808080808080808080808E9
:1047500008080808080808080808080808080808D9
:1047600043000000504F5349580000002E00000045
:104770000020202020202020202028282828282031
:104780002020202020202020202020202020202029
:104790002088101010101010101010101010101091
:1047A0001004040404040404040404101010101081
:1047B000101041414141414101010101010101014B
:1047C000010101010101010101010101101010109D
:1047D000101042424242424202020202020202021D
:1047E0000202020202020202020202021010101071
:1047F0002000000000000000000000000000000099
:1048000000000000000000000000000000000000A8
:104810000000000000000000000000000000000098
:104820000000000000000000000000000000000088
:104830000000000000000000000000000000000078
:104840000000000000000000000000000000000068
:104850000000000000000000000000000000000058
:104860000000000000000000000000000000000048
:104870000000000000000000000000000000000038
:104880000000000000000000000000000000000028
:104890000000000000000000000000000000000018
:1048A0000000000000000000000000000000000008
:1048B00000000000000000000000000000000000F8
:1048C00000000000000000000000000000000000E8
:1048D00000000000232D302B20000000686C4C00ED
:1048E0006566674546470000303132333435363728
:1048F00038394142434445460000000030313233EC
:10490000343536373839616263646566000000000B
:10491000000000000000000001020304060708096F
:104920000000000001020304010203040607080955
:104930004300000000000000000000000000000034
:104940000000000000000000000000000000000067
:104950004300000000000000000000000000000014
:104960000000000000000000000000000000000047
:1049700043000000000000000000000000000000F4
:104980000000000000000000000000000000000027
:1049900043000000000000000000000000000000D4
:1049A0000000000000000000000000000000000007
:1049B00043000000000000000000000000000000B4
:1049C00000000000000000000000000000000000E7
:1049D0004300000000000000000000000000000094
:1049E00000000000000000000000000000000000C7
:1049F0004300000000000000000000000000000074
:104A000000000000000000000000000000000000A6
:104A10009A2C00005A280000000000007047000097
:104A20006C470000B03D0000B03D0000B03D00000C
:104A3000B03D0000B03D0000B03D0000B03D0000C2
:104A4000B03D0000B03D0000FFFFFFFFFFFFFFFF94
:104A5000FFFFFFFFFFFF00000100415343494900F2
:104A60000000000000000000000000000000000046
:104A700000000000000000000000415343494900CD
:104A80000000000000000000000000000000000026
:104A90000000000000000000000000000000000016
:104AA00094480000B4480000744800000000000072
:104AB00000000000000000000000000000000000F6
:104AC00000000000000000000000000000000000E6
:104AD00000000000000000000000000000000000D6
:104AE00000000000000000000000000000000000C6
:104AF00000000000000000000000000000000000B6
:104B00000100000009000000190000001900000069
:104B10000B000000E7030000D80EE80300D8B8053A
:104B200000C201000000080002040608AC060020D4
:104B30008C010020040309040803570043004800C7
:084B40008C01002000000000C0
:00000001FF
