:040000006F20D04657
:1000040000000000000000006021000062210000E8
:10001400000000006A2C0000000000000000000046
:100024006A2C00006A2C00000000000000000000A0
:100034006A2C0000000000006A2C00000000000090
:100044006A2C00006A2C00006A2C00006A2C000054
:100054006A2C00006A2C00006A2C00006A2C000044
:100064006A2C00006A2C00006A2C00006A2C000034
:100074006A2C00006A2C00006A2C00006A2C000024
:100084006A2C00006A2C00006A2C00006A2C000014
:10009400021200006A2C00006A2C00006A2C000086
:1000A4006A2C00006A2C00006A2C00006A2C0000F4
:1000B4006A2C00006A2C00006A2C00006A2C0000E4
:1000C4006A2C00006A2C00006A2C00006A2C0000D4
:1000D4006A2C00006A2C00006A2C00006A2C0000C4
:1000E4006A2C00006A2C0000F61100006A2C000043
:0C00F4006A2C00006A2C00006A2C00003E
:10010000397101436EC619A0397141536AC866CA74
:1001100062CC5ECE19A0397101535AD056D252D456
:100120004ED64AD826DA22DC06DE330161408282CE
:1001300041114AC026C222C406C68282B24D410184
:10014000024D924C224CB24B4101024B924A224A40
:10015000B2494101024992442244B24041018280A5
:100160003D432A876373C3029377F700BDEFADE584
:10017000937606FF3D8ABA960CC34CC30CC74CC796
:100180004107E36BD7FE11E28280B306C3408A06C3
:100190009702000096966780A6002307B700A30683
:1001A000B7002306B700A305B7002305B700A304D3
:1001B000B7002304B700A303B7002303B700A302CB
:1001C000B7002302B700A301B7002301B700A300C3
:1001D000B7002300B700828093F5F50F9396850052
:1001E000D58D93960501D58D61B79396270097021B
:1001F000000096968682E78086FA9680C1171D8F4A
:100200003E96E374C3F8A5B7EFF29FF211E583A71A
:10021000818405479AAB3DBF83A701859C438297A4
:1002200003A581842905C5BFEFF29FF011E583A7DF
:10023000818405479AAB39BF83A701859C47829784
:1002400003A581843105C5BF03A7818401E58947E2
:100250001EAB8280EFF2DFED239201841C23138416
:10026000418493F7F70795E718379377070299C307
:1002700089471CA0137707041C2011CB93E71700B4
:100280001CA083A701859C4B82972285E1B5F99B31
:10029000C5BF854613854184E38AD7FE894601455B
:1002A000E396D7FE5833B7660040938606C093772F
:1002B000F7008A07B69762079C4361876359070076
:1002C00093F707034147E39EE7FA854755BF0D675C
:1002D000F98F0567CDBFEFF21FE483A481843E8AC6
:1002E000822829E8982491476316F704138701842C
:1002F00014438547639BF602B767004083A707C591
:10030000B73600208906C207C183B697860723A0A7
:10031000070093070003239CF18423200700114961
:1003200083A78184238427010DB5C147239CF184D1
:100330001D49FDB7DE28114963F38700094963F3BE
:1003400087003E849C4C4204418022858297AA8A81
:100350000145EF0030552286AA855685EF00103200
:10036000A2850145EF00B0579E280D67818F9EA89A
:10037000BE283E9493070003239CF184A2A8239BEC
:10038000E18479BF83A7818483C61181B83309458D
:1003900063EFE600B42381EED62391EAEFF25FD952
:1003A000B8A783A70185DC438297014565B38280A6
:1003B000EFF21FD883A7818403A7C1844111AC3316
:1003C000184FC833029783A78184B82705C72AC668
:1003D00015E1D82305E3BC2391EF83A70185DC4712
:1003E000829783A781843245D833B8B7B833D8A76A
:1003F00041018DB30945EDBF83A78184942393F612
:10040000F60781EA98371377F7FD98B701473A85E1
:10041000828009460947E39CC6FEB623EDFAD42341
:10042000FDF6EFF2FFD0D03337670040130707C067
:100430001375F6F7131425003A946206144061868A
:100440006355060493F6060383C501810947637C5F
:10045000B50295CABC2785CB1C40635B060293F7A7
:1004600007034147639CE7001374F50F2285EF00F3
:10047000503C930500032285EF00702783A7018578
:10048000DC4B829701473A85F1B10D67F98E6DBF5C
:10049000C164FD140D67E58FF98F0567E390E7FEF2
:1004A0001DEDB707002083C5C707EF0030451C408E
:1004B00071771307F7F8F98FC2070D67C183B98FFA
:1004C000617713070708D98FC207C1831CC08D66E7
:1004D0001840658F758FE303D7FA1CC0D5BFEF00B6
:1004E00010321C4071771307F7F8F98FC2070D67B8
:1004F000C183B98F617713070708D98FC207C183FA
:100500001CC08D661840658F758FE309D7F61CC037
:10051000D5BF03A68184B7670040938707C05432D4
:1005200093F5F6F713972500BA97E2069843E1860C
:1005300063DE06041377070303C80181094563F6E8
:1005400005092E22D9E151C3382641C3EFF25FBE1F
:10055000984363D20604E5769386F6FB758F4207CF
:100560004183E1761347070193860608558F4207BA
:10057000418398C34146944393F60603639BC600A8
:1005800083A701859C4F82970145E9B60D65698F68
:1005900065B798C3CDB7F1769386F6F8758F4207A5
:1005A00085664183358FE17693860608558F42072D
:1005B0004183416698C37D160D6585659443F18E30
:1005C000E98EE38FB6FA98C3D5BF8280EFF25FB6AB
:1005D00003A781841C3793E707021CB783A7018513
:1005E000DC4F82970145BDB603A781843E2B11E500
:1005F000CA211D8D0AAB0145828088413E958280CB
:10060000EFF21FB3B707002083C5C7070145EF000E
:10061000F02E83A781848827A1476318F50005671A
:10062000239BE1844147239CE1845D15133515002C
:1006300015B6EFF2FFAF03A9818437660040832728
:1006400006C583468900254741116385E604416458
:100650001307F4FFB7360020F98F9106B697860787
:100660008043798C060432941C202300F9001C304E
:10067000A300F9004A20EF00B0322311A9000A2498
:1006800003A98184EF00D0312312A9005A2483A743
:100690008184FAA383A78184054798A7FA2380332E
:1006A0006319070C98231377F70755E3254763155C
:1006B000E400C93925E12DA015476316E40403873A
:1006C000370063590700A14703A781841CA70D3F8A
:1006D000410149B4B82365FBDA2375F7BC27E5F778
:1006E000B767004083A707C5373700200907C2074F
:1006F000C183BA97860723A0070013070003239C32
:10070000E1849947D1B70D476315E402B433054737
:10071000638DE60083A7C1842285DC4B82970D4759
:10072000A547E303E5FA4DDD79BFDE23E5F7793D23
:1007300051B70547E310E4FEB833E31D87FCDA2325
:1007400071FB9C3793F70702F1D77D31A5B7854739
:100750006317F700AD47E31FF4FA9939A1BF894643
:10076000E31AD7FAE303F4FE8D47E315F4FA5533A1
:1007700091B719476319E40298231377F70771EBD0
:10078000BC23854603A7C1846395D7005C4FF1C3A2
:1007900089A089466394D7001C53D5BF8D46639AC0
:1007A000D70A5C53EDB761E8BA2345E7D843C17671
:1007B0009386F60F758FB7060200631CD70898233F
:1007C0001377F70705EFDE23C9E7B7070000938724
:1007D000872403A781840145231907001CCF829732
:1007E000014583A78184C166FD169A2B630FD70646
:1007F00089466303D50069EF21478DA88546631EAE
:10080000D70003A7C184C8338145184F029731E14F
:1008100083A78184BC27D5FB2DA88946631BD702FB
:10082000D833B7660040938606C01376F700931757
:100830002600B6979C4393168701E18663DA060289
:1008400093F7070383C601816375D6001377070703
:1008500079D303A7818483A7C18408339C4B8297F3
:100860008D47E310F5F883A78184254798A785B5C0
:100870008D66F58FC1BF2147631BE4009C2393F76E
:10088000F707E1FBB70700009387872099B729474F
:10089000E311E4FC982385461377F707E31BD7FAA7
:1008A000B82745DBBA2355F7D843C1769386F60FB0
:1008B000758FC166E31FD7F803A7C184C83381458C
:1008C000184F029759F5B70700009387872211B791
:1008D0008386070063D1060483A6C184EE2303C682
:1008E000C6022EC6324593160601C1826377E50023
:1008F00032479AABD6ABC532D9BBE37DB7FE637541
:10090000D70023A00184FDB73367C70265F705460A
:1009100023A0C184C5B70D4798A70D67239BE18429
:100920007DB3EFF24FFF03A48184A1441C241387FD
:10093000E7FF1377D70F2DC71387D7FF1377D70F8D
:1009400049EF1C4C85CB0628B9C05A286373970021
:10095000BA84C204C180268582971E28AA890145CF
:10096000858F1EA83E28A6973EA8992FAA85268681
:100970004E853D231E2881CF0D6781450145239B70
:10098000E184EF00C07513070003239CE1841E2857
:10099000562803A7818463EBD7008D471CA7042743
:1009A00083A7818484A7A9396FF02FFA99C395474B
:1009B000F5B799471CA7B767004083A707C5B736A7
:1009C00000208906C207C183B697860723A00700C7
:1009D00093060003239CD184D9B71D47A144E3911A
:1009E000E7FC83A7C184DC4782975DBF03C3018115
:1009F00037660040C1650568A1680147130606C057
:100A0000FD151308F8F093880808636967001365FB
:100A10000508B767004023A6A7C482809316270065
:100A2000B2969C42ED8FB3F70701D98FB3E7170158
:100A30009CC20507D9BFEFF2AFEF83A7818494274B
:100A40001387E6FF1377D70F01EFEFF0DF8883A757
:100A50008184982783A7818498A75D366FF08FEFF4
:100A600019462147E398C6FE94331547639CE60078
:100A700098231377F70719E7A8338D3F83A70185DC
:100A80009C53829783A7C1849C4782972147D9B7FB
:100A90008280EFF2EFE99387818C23A4F1840947E8
:100AA00098A7370700209306070523A6D184B70728
:100AB00000209387070A23A8F184832707058297DC
:100AC0006FF04FE9EFF24FE44111370A0020B70A07
:100AD0000020E17923170100130A8A01938A4A034F
:100AE00093890908B765004083A745C41397070198
:100AF00041832394E186139707016357071683D731
:100B000081863A84BD8B2383F184938605C06396E6
:100B1000073003A705C093876185420741839AA3E5
:100B20009A2393868185137707039AA29A238D6669
:100B30002166758F9AA303A705C0A5679387F7FB66
:100B40007D8F83A705C0B1669386F6F8F58F896619
:100B5000B58F1347070293160701130606085D8F2A
:100B6000518FC18223A0E5C033E736014207938449
:100B700061851389818537660040930500024183B2
:100B8000832606C093F606036393B60EB3E73701D8
:100B9000C166C20737660040FD160D658965C183D1
:100BA000032706C0130406C0758F698F6314B70C42
:100BB00083D78186C18BE1EB1C40A5691387F9F0CF
:100BC000F98F1CC08D3D18401440B1679387F7F82A
:100BD000F58F96209389F9FB337737011396360109
:100BE000635406008566B58F9620139626016354DC
:100BF00006008966B58F83560900C18A99C21347DA
:100C000007018356090093F6060299C213470702AB
:100C1000216693160701130606085D8F518F37660C
:100C200000402320E6C06177C18213070708558F73
:100C300042074183832606C08355090093F60603C5
:100C4000639DB602617713070708D98FC166C20793
:100C500037660040FD160D65C183032706C08E2050
:100C6000758F698F631EB70041016FF06FCD232030
:100C7000E6C039B72320F6C025B72320E6C05DBF04
:100C80002320F6C0D9BF1C40856BC207C1837C8777
:100C90003C87139747016350070C1C401387FBF8F0
:100CA000F98F1CC0EFF0FF981840A5679387F7FBFA
:100CB00014407D8FB1679387F7F8F58F96201396D0
:100CC000360163540600B3C77701962013962601B8
:100CD000635406008966B58F83560900C18A99C29C
:100CE000134707018356090093F6060299C213477A
:100CF0000702216693160701130606085D8F518FC0
:100D0000376600402320E6C06177C18213070708D9
:100D1000558F42074183832606C08355090093F609
:100D200006036397B602617713070708D98FC16678
:100D3000C20737660040FD160D65C183032706C054
:100D40008E20758F698FE301B7F22320F6C0FDB7BF
:100D50002320E6C0C9B73C87C207C187E3D407D8C0
:100D60001C401387FBF8F98F1CC0653E1840A5672F
:100D70009387F7FB14407D8FB1679387F7F8F58F62
:100D800096201396360163540600B3C77701962068
:100D900013962601635406008966B58F83560900B1
:100DA000C18A99C2134707018356090093F60602C8
:100DB00099C2134707022166931607011306060816
:100DC0005D8F518F376600402320E6C06177C18276
:100DD00013070708558F42074183832606C08355B2
:100DE000090093F606036397B602617713070708B5
:100DF000D98FC166C20737660040FD160D65C183F5
:100E0000032706C08E20758F698FE30FB7E4232078
:100E1000F6C0FDB72320E6C0C9B713972700369761
:100E20001443C206C18274873487C206C18663DD5B
:100E30000600FD1714438A070566D6971306F6F8D1
:100E40009C43F18E14C382973C8793F70708E38B8A
:100E500007C883C76184B7660040938606C01397AE
:100E600027003697FD1714438A07D2972566130685
:100E7000F6F09C43F18E14C38297ADB1B7370020D2
:100E80000506BE950586860511E282801C31182173
:100E90009105A207D98F239EF5FE09057D16EDB7B2
:100EA000B73700200506BE950586860511E28280CB
:100EB0009C4109057D16231FF5FE9105C5BF61996B
:100EC00042054181B767004023A8A7C48280B76765
:100ED0000040938707C00A053E951C4165771307BC
:100EE000F798F98FDD8DC205C1810CC18280B7678B
:100EF0000040938707C00A053E951C41657713079C
:100F0000F7FBF98FC20713F70501C18319C393C714
:100F1000070113F7050219C393C707026177130787
:100F20000708D98FC207C1831CC118411377070373
:100F3000E31CB7FE8280B7670040938707C00A05AD
:100F40003E951C4171771307F7F8F98FC207139785
:100F50003501C183635407000567B98F13972501D5
:100F6000635407000967B98F617713070708D98FA2
:100F7000C207C183C1661CC1FD160D661841758F7D
:100F8000718F6313B70082801CC1CDBFB76700406B
:100F9000938707C00A053E951C4171771307F7F840
:100FA000F98FC2070D67C183B98F617713070708EF
:100FB000D98FC207C183C1661CC1FD160D661841D9
:100FC000758F718F6313C70082801CC1CDBFB76757
:100FD0000040938707C00A053E951C41056713072B
:100FE000F7E0F98F617713070708D98FC207C1832C
:100FF0001CC18280EFF2CF93D93F6FF0AF95B767F6
:101000000040938707C00A053E951441C1671387C6
:10101000F7FF9397160163DD07001C41F98F056701
:101020001307F7F0F98F316713070708D98F1CC131
:101030008280B7670040938707C00A053E951C4130
:1010400093F7070491CF1C4141677D17F98F05671E
:101050001307F7F0F98F21671307070CD98F1CC10D
:101060008280B767004083A707C50E058581C20748
:10107000C1833E95B73700203E95060586050CC115
:101080008280B767004083A707C50E058581C20728
:10109000C1833E95B737002091073E95060586052A
:1010A0000CC18280B767004083A707C50E05C20741
:1010B000C1833E95B73700203E9506050A21828000
:1010C000B767004083A707C50E05C207C1833E95D9
:1010D000B737002091073E9506050A218280B76741
:1010E000004083A707C50E05C207C1833E95B737E9
:1010F000002089073E9506050CC18280B767004035
:1011000083A707C513173500C207C183BA973737BE
:1011100000201907BA971307E00386076373B70423
:1011200013D75500FD8981E57D17420741832A07C2
:10113000A166558F98C30DE5B707002083C7C70781
:101140001307E0036376F70213D75700FD8B81E79F
:101150007D17420741832A07E1775D8F239EE18453
:10116000828013D71500858991C105072A07D9B751
:1011700013D71700858B91C305072A07C5B7B76733
:10118000004083A707C50E05C207C1833E95B73748
:10119000002099073E95060508411375F53F8280AA
:1011A000935785001375F50F22055D8D8280376793
:1011B0000040F177232207C4938707F0239AF18434
:1011C000B167938707F02320F7C401458280EFE2DF
:1011D0003FF632849374F507268542042E894180B8
:1011E000D1352286AA854A8551392685A285C53DF5
:1011F00001456FE03FF637050400EF10F050730033
:101200002030012473002030EFE29FF201116800CA
:1012100002C602C802CA02CC02CEEF1030713247B9
:10122000B74795089387074009456300F702B7E77A
:10123000B8059387078005456309F700B777DC0297
:10124000938707C06315F7000145EF10706B854564
:1012500037058000EF10507B05616FE0BFEFEFE2D4
:101260003FED375500001305052BEF2050500D477B
:1012700023AAE1866FE01FEEEFE29FEB37550000F7
:101280001305C52CEF20B04E03C7218D11C715479C
:1012900023AAE1866FE01FEC0547DDBFEFE25FE9BF
:1012A000011137050400EF103046B707040005446C
:1012B0003EC80808C1473ECC22CE02CAEF10303EDD
:1012C0009307401228007C8422C623050100EF10FA
:1012D000B0569307A00328007C84EF10F0550561F9
:1012E0006FE05FE7EFE2DFE4AA842E8411458545D5
:1012F000EF10B06FB1CCB766004083A706C441675A
:101300007517F98F23A0F6C4B717014003A74780CC
:10131000B716F0FFFD16758F23A2E78003A7C780DD
:10132000F9769386F67F758F23A6E78003A747801B
:10133000B7460400558F23A2E78037470240832732
:10134000078021C893E727002320F7806FE09FE004
:1013500037670040832707C4B716F0FFFD1693E7F1
:101360002700C207C1832320F7C4B717014003A792
:101370004780758F23A2E78003A7C780F9769386FD
:10138000F67F758F23A6E78003A74780B736030053
:1013900055B7F59B55BF8280EFE29FD9397109455A
:1013A000F93B01CD2A840945213BAA8522860A857D
:1013B000C53CA2850A85EF10F0010945C13E2161B7
:1013C0006FE05FD9EFE2DFD6238D0184EF10500488
:1013D0006FE05FD8EFE2DFD58D476312F5029384AB
:1013E000A185802009EC13053008D5338547930586
:1013F00000030D459CA0E53C22856FE0BFD5054468
:10140000E5BFEFE2FFD237680040032708C5C1659A
:101410001385F5FF83D6C185B7370020698F138602
:101420006700329706071843938505C00111F98DAF
:10143000638CD500832708C593F606C0E98FB29761
:1014400086079843D98E94C3B766004083A746C4E5
:1014500013878186C207C1831EA31A2383D74185C0
:10146000138481867D8F1377072009CF4167130787
:10147000F7DF23A2E6C49386E18598220507137758
:10148000F70F98A21A20F98FC207C18763D407000B
:10149000EFF04FE31E2003D74185F98F93F7074004
:1014A00089CFC1679387F7BF376700402322F7C40E
:1014B000B707002083A7470582971A2083D7418565
:1014C0007D8F9316270163D806003967B766004001
:1014D0007D1723A2E6C41A20F98F13973701635AA8
:1014E0000700BD6737670040FD172322F7C4014599
:1014F000F92B03D741851E20F98F13974701635EAF
:10150000070083A7C181638F070EF929BD6737677D
:1015100000409387F77F2322F7C41E2003D741851D
:10152000F98F93F70710E1CFC167376700409386C3
:10153000F7EF2322D7C4032687C493860186931529
:10154000060163DA050A9042050690C28C420D46F8
:101550006375B60A032607C4FD17218A59EE0326D0
:1015600007C4938541867D8E3765004090C11387FF
:1015700041860146130305C0A14893152600338810
:101580006500032808000010A2953378F80023A016
:1015900005FF0506E31316FF10431366160010C37C
:1015A00010437D8E2320C5C41043799A10C318437D
:1015B000F98F2320F5C437670040832747C493F78A
:1015C0000740E5DFC1679387F7BF37650040C16516
:1015D0002322F7C4130505C08147FD152148139741
:1015E000270010103A96032606FE2A9785076D8E6F
:1015F00010C3E39607FF23A006001D45C929056116
:101600006FE05FB50945E12111B783C7218D81C71F
:10161000154723AAE1868280114723AAE1868280AA
:10162000828091E5854733B5A7000605828009458C
:10163000828011E583A781841D479AAB8280138540
:1016400041818280EFE2DFAEED376FE0BFB003A7EC
:1016500081849306100209451C2393F7F707639CC6
:10166000D70214336384F602930700026395F602EF
:10167000B717000093874764EFE29FAB1CCF231995
:1016800007000145829701456FE0DFACB717000006
:1016900093872763D5B7828003A7818493061002BE
:1016A00001451C3318231377F707631AD700938774
:1016B000E7FD93F7F70F05453335F5000605828002
:1016C000EFE21FA783A7818423850700CD2CB7678E
:1016D0000040856637660040938707C09386F6F022
:1016E000930506C298439107758F23AEE7FEE39BEF
:1016F000B7FE9307F00F2322F6C4EFF05FAB8145EE
:10170000014523AA0186F93E5145EF1070628545D7
:101710000545C93E6FE01FA4EFE29FA1156703478F
:10172000F72E83A78184014598B723950700EFF032
:101730000FF9930500200145EFF06FF9C145014510
:10174000EFF0EFFA930500040145EFF09F93930546
:1017500000080145EFF0FF900145EFF0BF89B707A2
:10176000002083C5C7070145EFF05F990145EFF001
:10177000FF8137670040032607C0C1679386F7FFE4
:101780009317160163DF0700832707C0F58F85666F
:101790009386F6F0F58FB16693860608D58F2320E1
:1017A000F7C037670040832707C093F7070485C356
:1017B000832707C0C166FD16F58F85669386F6F010
:1017C000F58FA1669386060CD58F2320F7C093056D
:1017D00000600545EFF0AFEF930500020545EFF01F
:1017E0000FF19305000C0545EFF0BF8781450545D6
:1017F000EFF06FF437670040832747C093F7070483
:1018000085C3832747C0C166FD16F58F856693861D
:10181000F6F0F58FA1669386060CD58F2322F7C0CC
:1018200037670040032647C0C1679386F7FF9317C9
:10183000160163DF0700832747C0F58F856693860F
:10184000F6F0F58FB16693860608D58F2322F7C090
:1018500081450945EFF0AFE781450945EFF02FE9F4
:10186000930500100945EFF0DF8193050004094559
:10187000EFF0DF888D650945EFF0EFEB376700404B
:10188000032687C0C1679386F7FF9317160163DFAE
:101890000700832787C0F58F85669386F6F0F58F5E
:1018A000B16693860608D58F2324F7C037670040BA
:1018B000832787C093F7070485C3832787C0C16642
:1018C000FD16F58F85669386F6F0F58FA1669386F3
:1018D000060CD58F2324F7C081450D45EFF02FDF8F
:1018E000930500020D45EFF08FE0930500140D45C0
:1018F000EFF02FF781450D45EFF0EFE3376700403C
:101900008327C7C093F7070485C38327C7C0C16671
:10191000FD16F58F85669386F6F0F58FA1669386A2
:10192000060CD58F2326F7C0376700400326C7C0B3
:10193000C1679386F7FF9317160163DF07008327BC
:10194000C7C0F58F85669386F6F0F58FB1669386EE
:101950000608D58F2326F7C00145EFF02F89238D88
:101960000184054723AAE1866FE0CFFEEFE24FFC3A
:1019700093858180EFE05FC76FE0CFFDEFE24FFB23
:10198000B70500209385052BEFE01FC66FE08FFCA5
:1019900083A78184AC33914763EEB700EFE24FF940
:1019A000B7070020938707088E05BE95EFE0DFC3D9
:1019B0006FE04FFA01458280828082808280B76723
:1019C0000040054723A0E7C423A007C4096723A25A
:1019D00007C4130707C0239AE1840967130707C0E8
:1019E00023A0E7C401458280EFE28FF4B76700408F
:1019F00083A707C4376700404168C207C183814697
:101A0000130307C07D189385418EA14813962600C5
:101A10003305660008412E9685063375050108C218
:101A2000E39616FF93E607402320D7C493E61740BA
:101A3000F99BC207C1832320D7C493E60740232024
:101A4000D7C4B766004003A746C41377074065DFD5
:101A500041671307F7BF23A2E6C441683767004018
:101A60008146130307C07D18A148139626003385CD
:101A7000C50008411A9685063375050108C2E3962C
:101A800016FF93E787402320F7C4832707C4C207C4
:101A9000C18393E747002320F7C4EFF04FFC6FE0CA
:101AA0006FEBEFE2EFE837640040832704C4C2071E
:101AB000C183ED9BC207C1832320F4C4EFF0CFFBA9
:101AC000B167938707F02320F4C46FE0AFE8EFE23B
:101AD0002FE69D471384C1866303F50008C01C40B0
:101AE0001547636DF70015678A0713078736BA979E
:101AF0009C43828783A7818781E76537994711A037
:101B000095471CC039A0713F91471CC0054723ACC5
:101B1000E1866FE02FE489475CA08D47DDB75C204C
:101B2000FD1793F7F70F5CA05C2093F7F70FF5F321
:101B30009147C1BF37670040832707C4C207C183ED
:101B400093E707012320F7C495471CC0A9475CA071
:101B5000C9B75C20FD1793F7F70F5CA05C2093F7E3
:101B6000F70FC5FB37670040832707C4C207C1834F
:101B7000BD9BC207C1832320F7C499471CC023AC77
:101B8000018641BFEFE2CFDA9307803E9305803EA6
:101B900063E3A700AA85C20585679387072CC181E7
:101BA000B385F5029307803E37050040B3D5F502B3
:101BB000C205C181EF1090046FE0CFD9EFE24FD79B
:101BC0009307803E9305803E63E3A700AA85C20584
:101BD00085679387072CC181B385F5029307803E03
:101BE00037050040B3D5F502C205C181EF105001A1
:101BF0006FE04FD6EFE2CFD3814537050040EF10BD
:101C0000E07F814537050040EF10807F6FE08FD483
:101C1000EFE20FD22205498E13950501518D9307EE
:101C2000800873B007800F100000E146370680007F
:101C300037180140C14713070880B375C5001CCB96
:101C4000B5C1010001000100010001000100010017
:101C5000010001000100010001000100010001007C
:101C6000010001000100010001005CCB0100010046
:101C7000010001000100010001000100010001005C
:101C8000FD160582CDFAB7170140414723AAE78028
:101C90009307800873A007801305C003EF10F005B9
:101CA0006FE04FCB010001000100010001000100C5
:101CB00001000100010001005CCB010001000100F6
:101CC000010001000100010001000100010001000C
:101CD00001000100010001000100010001000100FC
:101CE000010079BF23A2A188239001888280EFE2BE
:101CF0002FC401468145014523A20188113F6FE0B1
:101D00006FC5EFE2EFC2138701881E239546850752
:101D1000C207C1831EA303A741887D1763E2E608BB
:101D200095660A0793860638369718430287014658
:101D30009305400B01452DA81306C00D9305000522
:101D4000D5BF13072003B3F7E7026147636AF704BF
:101D50000146930540061305400B19A85147B3F7F8
:101D6000E7022547636EF702014681451305C00D62
:101D700045356FE02FBE2947B3F7E702114763618E
:101D8000F7021306800C9305800C6DB77947B3F703
:101D9000E70239476366F7001306800C814565BF8B
:101DA0000146814541BFEFE2AFB8B7240140214968
:101DB0000144938404408545268595460546EF10E9
:101DC000600185452685EF00707F89452685EF10E7
:101DD000600C65DD2685EF10600B7D192A94E31CED
:101DE00009FC135534008567420513840777418148
:101DF00033058502FD173355F502420541816FE039
:101E00006FB5EFE2EFB23715014085451305058048
:101E1000EF10401F7D15133515006FE0AFB3EFE2F3
:101E20002FB1371501409305000413050580EF100D
:101E3000601D133515006FE0EFB1EFE26FAFD137E2
:101E40001387A1880DC91E238507C207C1831EA35E
:101E5000239F0186130770076365F70001456FE054
:101E60006FAF93878188982375FB054798A3A38E4E
:101E700001861145EDB71623F516C206C1829305FA
:101E80004002138681889387D18763E9D5001422A5
:101E900091E69423850694A3239F018623000600E0
:101EA0009023231007005DDA9385E1879A219386BA
:101EB000E1870507420741839AA1E145E3F0E5FA8E
:101EC000054705456307E600094709456303E60042
:101ED0000D45238007002390060051B7EFE24FA580
:101EE0003D3F1387C1871C2319C593B7170008A36B
:101EF0003E856FE02FA6B337F0008607CDBFEFE237
:101F00002FA33755000013058539EF204006EF0059
:101F10001043EFF03FCEE13B3725014081451305EB
:101F20000540EF007066814513050020EF10E02B9F
:101F3000C93D05E513052003EF10805F8545370592
:101F40000010EF10602C0545EF1020150545EF102F
:101F5000401AEF10E0156FE0EF9F2945EF10405D4C
:101F6000C1BFEFE2EF9C375500001305853EEF201F
:101F70000000EF00D03C854537050010EF10C02869
:101F8000B757435737170020938717822328F7FE48
:101F90005145EF10E059B707EFBE37E700E09387F0
:101FA00007083CC76FE00F9BEFE28F9839718545BA
:101FB00011453714014002D002D202D4EF10E022C2
:101FC00085449147130504800C10231091023ED4E0
:101FD000EF00307493070004130504802310F1020E
:101FE0000C10930780043ED4EF00B0728545114574
:101FF00002CA02CC02CE02C402C62318010002D0DB
:1020000002D202D402D6EF10401E85450545EF10DE
:10201000A01FB14713050480FC820D49E1474C081D
:102020003ECE4ACCEF00F06E85679387F72B2C00ED
:10203000370500403EC602C4EF10C020C167938739
:1020400007060C10370500403ED02313010223146D
:102050000102EF104025A14537050040EF10C037C1
:102060000C1037050040EF10402DA145370500400A
:10207000EF106037854537050040EF104034854547
:1020800037050040EF1020328545114502D002D2BD
:1020900002D4EF108015C147130504802310F1020C
:1020A0000C10C1473ED44AD2EF00B066130504803D
:1020B000C145EF00D076130600028145081002CA20
:1020C00002CC02CEEFE0CF89854513054020EF100A
:1020D000C0113165EF10600489474C081305048076
:1020E000FC823724014002CEEF00B06213050440A9
:1020F000EF003040B7070E000C10130504403ED629
:10210000230A910202D002D202D402D8EF00704218
:10211000854513050440EF00304713050440EF00E8
:10212000B047930404402685EF00B0476DFD1305CA
:10213000044037240140EF00504713040440228537
:10214000EF0050476DFDEFF0FFAAEFF05FBA375593
:1021500000001305453CEF10906121616FD09FFF97
:1021600001A0B707EFBE37E700E0938707083CC739
:1021700001A0EFD2FFFB4111239BA188239CB188D2
:102180002EC6EFF03FA0B2452E85EFF03FA34101F0
:102190006FD05FFCEFD2DFF983C7A18A91CB03A791
:1021A0000189894781451305803E6311F70281A0AB
:1021B00083A7C18981E78145014509A803A7018952
:1021C00089466318D7008145130520035D376FD01A
:1021D0007FF8FD179146E3E0F6FE95668A07938641
:1021E0004641B6979C43828785476DBF814513055D
:1021F000A00FE9BF85479305803E75B783C7618A05
:10220000DDDB85471305E0156304F7001305803E09
:1022100081456DBF83C7018A93962700996793878D
:10222000879AB6979C23E9BFEFD29FF0EFF0BFB734
:102230002390A1828567938757B82A841387A18941
:1022400063E2A7041C23850793F7F70F1CA3054738
:10225000637CF7023765000013054593EF1030519A
:10226000EFF05F99014681451305F00FEFF05F9A9B
:102270001305C012EF10C02BEFF07FA7EFF03FC89F
:102280006FD05FED2300070085679386B7C183A5F4
:1022900001891387018963E3860489471CC31043BE
:1022A000630AB60037650000A28613054597EF1054
:1022B000D03ACD3585671387F7E00545636D870014
:1022C000138777D40945636887009387B7C10D45A5
:1022D00063E387001145EFF0FFA05DB7938677D4E5
:1022E00063EB860089466396D5009387D7C4E3F8ED
:1022F00087FA854765B7938797D7E3F287FA232054
:10230000070071BFEFD2DFE223AE018823A8018866
:102310002392018A2394018A2383018A23960188C8
:102320002385018A238D0188EFF0DF8CEFF03F9C3D
:102330003755000013058542EF1070436FD09FE1C1
:10234000EFD21FDF054723AEE1882392018AE93DE2
:10235000EFF05FE43765000013058590EF10F02F74
:102360006FD05FDFEFD2DFDC23AEA1882392018A3A
:1023700001E98145EFF0FFDFEFF07F976FD09FDD40
:10238000EFF09FEAEFF01FE1D5BFEFD2FFD7411189
:10239000EFF0BFAA2A84EFF07FB485479384C18908
:1023A0006312F5082385A18AEFF0DFDE014693056D
:1023B000F00F0145EFF0DF8519C82392018A094724
:1023C0006301E414636F870685476307F40C944048
:1023D00091476399F6161387818A1E238507C207E2
:1023E000C18363F1F6489387618A2310070098231D
:1023F0001337170098A3EFF0FFD99C406395074669
:1024000083C7A18A639107461387418A1E238507E4
:10241000C207C1831EA303D7218263EAE716EFF048
:102420001FAEB5A28947E319F5F82385018AEFF0BD
:102430007FD69C4081E7EFF09F8BBDBFEFF0DFDEE2
:10244000A5BF8D476300F40E9147E312F4F8814570
:10245000014523A00400EFF0DFD1EFF05F8937558D
:10246000000013058552EF10903001441309702AC3
:10247000B7590000EFF0FF9839D905044204294507
:102480004180EF10E00AE37789FE13854956EF108B
:10249000102EEFF01FADF9BF9C4089EF80C0EFF028
:1024A000BFD8EFF03FCF3755000013058544EF103C
:1024B000102C31BF639C870098C0EFF0BFCD37551B
:1024C000000013054546EF10501911B7639BE70054
:1024D0008D479CC0EFF01FCC375500001305854891
:1024E000F9B7F517E365F7EE0145814523A0040030
:1024F000EFF03FC8EFF0AFFF375500001305454B35
:102500007DB791479CC0054715452394018A2383D5
:10251000E18AEFF02FFDEFF0FFC7375500001305FC
:10252000054D71B795479CC019452380018A2391B9
:10253000018AEFF02FFBEFF0FFC5375500001305C0
:10254000C54FB5B79547E39AF6EA9385018A938616
:10255000218A9C219A221966139527001306869AD0
:1025600005072A964207322241839AA2636DC72E3D
:1025700085074947B3F7E702239006009CA1A5BD54
:102580001EA39C4089E783C7A18AE38F07E6EFF08B
:102590004FF7B757000083A9474413844190375A37
:1025A0000000930AC4004E8BEF00406701E5410133
:1025B0006FD01FB9EF00C068E34B05FEB547630558
:1025C000F500A947631BF526138741891C23E9DF22
:1025D000A29793058A5922852380070023000700CC
:1025E000EF10B0191DE503D8218293074006335838
:1025F000F80283D7818903D7618983A6018903D62D
:1026000001828C40375500001305055AEF10F00485
:1026100061BFB755000025469385C55F2285EF1041
:10262000B01B29ED13059400EF10D0029307803EF4
:1026300063D2A7041305803E42054181938B6189D3
:102640002390AB00EFF00FD483DB0B002392018AC1
:102650005E85EF10A061DA85EF106036EF10E06D57
:102660002A8637550000AE8613058560DE85EF109B
:10267000C07E1DBFE35205FC01457DBFB75500007C
:1026800025469385C5622285EF10101539E913059B
:102690009400EF10207C9307803E63D0A7041305BD
:1026A000803E42054181938B81892390AB00EFF0FE
:1026B000EFD083DB0B002392018A5E85EF10005B75
:1026C000CE85EF10C02FEF1040672A8637550000E7
:1026D000AE8613058563DE8559BFE35405FC0145CD
:1026E000C9B7B755000025469385C5652285EF100B
:1026F000B00E15E913059400EF10C07595472AC672
:1027000063ECA700EFF01FC6B24537550000130574
:102710008566EF10807449BD375500001305456884
:10272000EF10F00451B5B755000031469385C569E7
:102730002285EF10700A1DE95685EF10A07113076E
:10274000F5FF93077007AA8563EDE700930740063E
:10275000B307F502375500001305C56A2391F182CE
:102760004DBF375500001305056D5DBFB75500001F
:102770009385056F2285EF10500011E93755000051
:102780001305456FEF10A07EEFF0AFFD31BDB755DB
:102790000000938545722285EF10207E15E13755A4
:1027A00000001305C572EF10807C5145EF005058B2
:1027B000B707EFBE37E700E0938707083CC7EDB3E4
:1027C000B7550000938505742285EF10007B25E145
:1027D0003755000013058574EF10607937550000F8
:1027E00013054577EF10A078375500001305057ADB
:1027F000EF10E077375500001305C57CEF10207708
:10280000375500001305457FEF1020653765000040
:102810001305C584EF10A075376500001305C58743
:10282000EF10E074376500001305058BD5BD3765E3
:102830000000A2851305058EE9BD930705FEC207BA
:10284000C1831307E005E361F7D6138741891C2391
:102850009306E003E3EAF6D493861700A29714A345
:1028600088A399B31EA31387C1881E23CD4685076D
:10287000C207C183E3F6F6D023100700EFF0DF9A1A
:1028800009B3EFD2FF8A0545EF00A07A5122EF008D
:102890007044716513050520EF00F04C37650000AA
:1028A0001305059FEF10A06C376500001305C5A147
:1028B000EF10E06B83A5418237650000130585A406
:1028C000EF10A05937650000130545A6EF10206AE8
:1028D00037650000130505A9EF1060693705001082
:1028E0008545EF0070120545EF00C07F11C9054511
:1028F000EF003000376500001305C5ABEF1020670F
:10290000EFF08FEA2924EFF0FF9FEFF08FCF31C572
:1029100037650000130505AEEF10606501449304B0
:10292000F03137690000EFF0CFCD09E9EFF05FA19A
:10293000EFF0BFA52945EF00B03FDDBF050442041D
:1029400029454180EF00D03EE3FF84FC130509B127
:10295000EF10E061EFF0EFE0F9B737650000130525
:1029600045B4EF10C060E9B7B71702409843B70607
:10297000FFF01367170098C3D843758FD8C39843E7
:10298000B706F7FEFD16758F98C39843B706FCFF90
:10299000FD16758F98C3D843B70601FFFD16758FD6
:1029A000D8C337079F0098C7B746024003A70680E1
:1029B0001367070123A0E680D843B706C1FFFD16C1
:1029C000D8C3D843D8C3D84313670740D8C3D84324
:1029D000758FD8C3D843B7062800558FD8C39843FE
:1029E000B7060001558F98C3984393166700E3DD3F
:1029F00006FED843B7160240719BD8C3D84313676D
:102A00002700D8C32147DC42B18BE39EE7FE8280DA
:102A1000B7160240DC421146B18B138741826385B1
:102A2000C70021466388C702B7177A00938707203B
:102A30001CC3B7170240DC43918393F6F700B70736
:102A400000209387470CB69794231C43B3D7D70035
:102A50001CC38280DC42D4424166C983BD8BF18EA7
:102A6000890745466393C700C94781EEB7460240D0
:102A700083A60680C18A89CEB7167A00938606207F
:102A800021A8B7160240D4421396E600E35606FE8C
:102A9000B7163D0093860690B387D70251BF03A7B0
:102AA000418795476314F70683C7A185A5E383D6BD
:102AB000018B9387218B9E23C206C182C207C183EB
:102AC0001387218B6384F604EFD28FE6138541C40C
:102AD0000146138841A4930800043303F80003431C
:102AE00003000506850742062300650093F7F71FDC
:102AF00041826385F6000505E31116FF938541C405
:102B00000D451EA3EFE01F8D6FD0CFE48280EFD282
:102B10002FE22396018A2397018A2398018A239919
:102B2000018A238D0184EFE02FEEEFD09FF6EFE0D6
:102B3000EFF685450545EFE0EFFA6FD0AFE1EFD254
:102B40002FDF81450145EFE0EFF981453705800032
:102B5000652DB7E700E0414723A2E7180F100000FA
:102B60003707000423A2E7180F10000023AA0186EC
:102B7000238D01846FD00FDE39C9B9C903A74187FE
:102B800095476317F704EFD2AFDA0144138741A4E6
:102B9000638F85009386018B9E221386218B1222E0
:102BA000850793F7F71F6399C700EFF05FEFEFF02A
:102BB0001FEF22856FD00FDA922233038500034383
:102BC00003003A969EA2230066000504D1B7814512
:102BD0002E8582800147938641946313B7008280DB
:102BE0001386C18A1E221388E18A035808008507CC
:102BF00093F7F70F638C070103580600330EE500C7
:102C0000034E0E0036981EA22300C8010507F1B737
:102C1000EFD20FD2EFF0BFE86FD0CFD39387C18A46
:102C20001387E18A9623122363E6C6008A231E23B4
:102C30001D8D82801A238A23198D13050510828029
:102C400083D6C18A9387E18A9A237D5542074183BF
:102C5000630CD70096231387419436979623082355
:102C6000850693F6F60F96A3828001A097E1FF1FD9
:102C7000938141E4172100201301C138173500006A
:102C80001305452497D5FF1F9385C5371386018407
:102C900063FAC5008322050023A0550011059105A4
:102CA000E3EAC5FE13850184938581C86377B50087
:102CB000232005001105E36DB5FEFD42739002BCB3
:102CC0008D4273904280930280087390023097D2B5
:102CD000FFFF9382623393E2320073905230EFF041
:102CE000BFC897020000938202BA73901234730037
:102CF0002030EFD2EFC3B727014093870740631C12
:102D0000F500854513050020392B8145130500206A
:102D1000192B6FD02FC4B737014093870780E31A70
:102D2000F5FE854513050040FD298145130500404A
:102D3000C5B75C413707F1E01307F7EF944D7D8F7E
:102D40009C41D58FD44DD58FD441A206D58FD98F34
:102D50005CC11C4537F7F1FF1307D77FD4457D8F42
:102D60009C49D58F94458606D58FD98F1CC55C5557
:102D7000370710FF7D177D8FDC29FD1793F7F70FBD
:102D8000D207D98F5CD582801C4589C593E717008F
:102D90001CC58280F99BEDBF1C4593E787001CC5CD
:102DA000828008450D81058982801C4593E7470094
:102DB0001CC5828008450981058982801C4591C512
:102DC00037075000D98F1CC582803707B0FF7D17A9
:102DD000F98FD5BFA54763F7B7048D47138765FF04
:102DE0003307F7020328C5009D47B397E70093C751
:102DF000F7FFB3F70701B396E600DD8E54C5994798
:102E000063E3C70495477D163306F6025859FD471C
:102E1000B397C70093C7F7FFF98F3396C5005D8E50
:102E200050D982800D473387E502032805019D476D
:102E3000B397E70093C7F7FFB3F70701B396E60030
:102E4000DD8E14C96DBFB14763E2C70295476516B1
:102E50003306F6021859FD47B397C70093C7F7FF2B
:102E6000F98F3396C5005D8E10D9828095474D1637
:102E70003306F6025855FD47B397C70093C7F7FFCF
:102E8000F98FB395C500DD8D4CD58280684542052C
:102E90004181828008416D8D3335A0008280584188
:102EA000032805004C4537060140930706403E972E
:102EB0009346F8FFB1C583250640F58D2320B64023
:102EC000D043F18ED4C31443B3E6060114C31841B2
:102ED00090479346F7FF758E90C7D047F18ED4C7C1
:102EE000144541466399C6009447D98E94C7D44788
:102EF000558FD8C78280B6979443558F98C38280E8
:102F00001C43F58F1CC38280B707014023AAA7404A
:102F100082809C4513F7070113F8F70001C7D841D9
:102F20003368E80037270240145B3707000F758FBE
:102F30004DEB8546238AD18A371701406315E5009A
:102F40009A2135839AA18E2113F7F50F39C31841C1
:102F50008146854E3D4F930F800293028004214E9F
:102F60003396DE00B3F8C50063111603939826006C
:102F700033131F011343F3FF3377E300B318180132
:102F800033E7E8006397F70750C98506E39AC6FD63
:102F900018C11307F00F6375B70454412146854EDD
:102FA0003D4F930F800293028004414EB398CE00B0
:102FB00033F715016392E802131726000117331344
:102FC000EF001343F3FFB376D3003317E800D98E35
:102FD0006395F703232A15010506E319C6FD54C1BD
:102FE000828037170140E310E5F603C7418B21DFEC
:102FF00081BFE39C57F810C949BFE39F57FC2328C2
:103000001501D9BFB71701406316F50083C7418B7F
:1030100091C3B58108456D8D3335A0008280B71707
:1030200001406316F50083C7418B91C3B5814CC93C
:10303000828023ACA18A828003A7818B85471421DB
:103040006310F7021C31639CE7023C21960793E76B
:1030500007F837E700E093F7F70F36972300F740BC
:10306000054793D756003317D700544189CE93872D
:1030700007048A07B7E600E0B69798C38280EDF3AD
:103080003C219607F9B793870706B7E600E08A0761
:10309000B69798C30F1000008280377700405C43DA
:1030A00009C593E707105CC3828093F7F7EFE5BF8C
:1030B000B777004098431367470098C39843136756
:1030C000270098C3B7F700E003A707D113674700AD
:1030D00023A8E7D003A707D15D9B23A8E7D07300FF
:1030E00050108280B7770040DC437D8D3335A000DF
:1030F0008280B777004098430A05598D88C3828043
:10310000B7170240D843B70640FFFD16758FD8C3E6
:10311000D8435A05598DC8C38280B7160240DC4295
:1031200051777D17F98F5D8DC8C2828037170240B5
:103130005C439146B18B6385D700A1466382D70675
:10314000B7177A00938707201CC1371602405C42EC
:10315000370700201307470D9183BD8BBA9794233F
:103160001C41B3D7D7005CC15442A1829D8ABA9654
:103170009422B3D6D70014C55442AD829D8A3697A7
:103180001823B3D7E7005CC55842398393763700DC
:103190001387818236971823B3D7E7021CC9828030
:1031A0005C435843C166C983BD8B758F8907C5468B
:1031B0006393D700C94701EF3747024003270780D1
:1031C000418B09CF37177A001307072021A837173B
:1031D000024058439316E700E3D606FE37173D003A
:1031E00013070790B387E70285B799C537170240E1
:1031F0001C4F5D8D08CF8280B7170240984F134552
:10320000F5FF798D88CF828099C5371702405C4FD2
:103210005D8D48CF8280B7170240D84F1345F5FF28
:10322000798DC8CF828099C5371702405C475D8D84
:1032300048C78280B7170240D8471345F5FF798DFC
:10324000C8C782801E2137370140130707C0C20755
:10325000C1836300E50237070040630CE5001307F4
:1032600007406308E500371700401307078063161F
:10327000E500BA2193F7F7F8D98FFA2193F7F7CF42
:10328000C207C183D98F1EA1DE215EB59E211EB566
:10329000B7370140938707C06314F5009C251EB91A
:1032A00085475EA982801E3103D88500C207C1838D
:1032B00093F7F7EFC207C1831EB11E3156215A2D75
:1032C000C207139606014207962141831377C7F878
:1032D000558FB621C18393F7F7DFB3E60601A20647
:1032E000D58FB7360140C207938606C04182C1839D
:1032F000631FD502FD769386F67FF58FB62503D83A
:10330000C500A206D58FD621C207C183A20693F7B6
:10331000F7BFD58FF576FD16F18EF225C207C18372
:10332000336606011206D18E13960601418252A120
:103330005AADFA215ABD1EB182801A31FD77FD17B0
:10334000F98F1EB10358050256215E2D6577922133
:103350001307F7CF7D8FF9772206FD17518FB3F74B
:103360000701B22103D88500C20642073366060171
:103370003206D18F37360140C207130606C0C1821C
:103380004183C183631AC50071767D16F18ED22503
:103390001A06D18EC206C18256A15AADFA21231057
:1033A000E5041EB182801E2189C593E717001EA186
:1033B0008280C207C183F99BC207C183CDBF1E2192
:1033C00089C593E707081EA18280C207C18393F7CE
:1033D000F7F7C207C183C5BF5E2DC207C183DD9B5E
:1033E000DD8D4EAD82805A2DFD779387F77FF98F63
:1033F000A205CD8FC207C1835EAD82804EBD8280A3
:103400002310B5048280EFC2BFD21A29F577FD17C9
:10341000F98FFA2101112A84D98F1EA99A25DE215C
:103420005625AE84D98FBA25D98F7D771307379F5C
:10343000758FD98F5EA55E29DA25C207C18393F700
:10344000F7CFD98F5EA96800EFF05FCEB747014094
:10345000938707806316F404E2476545B335F502A8
:10346000904081460A063305F502C92293064006BC
:103470003357D502120793574700B387F6021D8DC5
:1034800093174500138527039307F06363FCA70098
:1034900013050701420541810AA405616FC09FCB56
:1034A000D24765BF3355D502598DEDB791C55E251D
:1034B0000967D98F5EA582805A25F977FD17F98FA4
:1034C000D5BF93F5F51F4EA182800A216D8D33354E
:1034D000A000828083A7418237177A001307072054
:1034E000B3D7E70293F7F70F238FF18A1307803ED4
:1034F000B387E702239EF18A8280B7F700E0D843C2
:103500008146799BD8C303C7E18B3306A70290CBD2
:10351000D4CB98431367070198C3984313671702E6
:1035200098C3D843058B75DF9843799B98C38280F5
:10353000B7F700E0D8438146799BD8C303D7C18B46
:103540003306A70290CBD4CB98431367070198C3E7
:1035500098431367170298C3D843058B75DF9843C8
:10356000799B98C38280EFC2BFBC2A841165011188
:1035700085451105EFF07FC7930700207C82371542
:1035800001408D473EC44C00E147130505803EC60F
:10359000EFF03F9822C837440140B70708000C08F5
:1035A000130504803ECC02CA231E0100EFF0BFE5E4
:1035B000854513050480EFF07FEF05616FC09FB96B
:1035C000EFC27FB5B7440140AE893289014493848C
:1035D000048063492401CA854E85EFF0EFD94A85FE
:1035E0006FC0BFB6930500042685EFF01FEE7DD9AE
:1035F000B38789008385070026850504C205C1813C
:10360000EFF03FECF9B71387C1821C43938681C862
:103610003E95636BD500B75600209386068063E520
:10362000A60008C33E858280FD57EDBFB687B288ED
:103630002A832E88639B061463F8C50A4167636B6F
:10364000E61AB70700016360F63493568601E14736
:10365000172700001307075C36971823BA9713073C
:1036600000021D8F19CB3398E500B357F500B3184E
:10367000E60033E807013313E50013D6080133559C
:10368000C80293960801C182935703013377C80299
:10369000B385A60242073368F700637AB8004698FC
:1036A0009307F5FF636418016365B8303E853308FE
:1036B000B8403357C8024203135303013378C8029A
:1036C000B386E602420833686800637BD8004698F8
:1036D0009307F7FF6365180179176363D8003E8786
:1036E0004205598D8145828001E60547B358C702DE
:1036F000416763E8E80EB707000163EAF82893D64C
:103700008801E147172700001307C7503697142395
:10371000BE9693070002958FFDE7939E08013387BD
:10372000154113DF080193DE0E0185459357030110
:103730003355E7033377E703B306D5034207D98F41
:1037400063FAD700C6971307F5FF63E4170163E533
:10375000D7263A85958F33D7E703420313530301E6
:10376000B3F7E703B30ED703C207B3E7670063FB02
:10377000D701C6979306F7FF63E51701791763E34F
:10378000D70136874205598D828063E1D504C16730
:1037900063E1F604B707000163E3F61E13D7860161
:1037A0006148972700009387E746BA979823130E3E
:1037B00000024297330EEE40631A0E0C63EDB61C06
:1037C0003335C5001345150081458280814501458B
:1037D00082809307F00F63F3D71C13D7860021482C
:1037E000C9B71307F00FC686E37E17F193D688009A
:1037F000A14709BF1307F00FB286E37BC7E49356D6
:103800008600A147B1B5B398F80033D6D50013DFD1
:103810000801335EE6033397F500B356D500558FA4
:10382000939E080193DE0E013313F50093550701B3
:10383000B376E603B387CE03C206CD8E63FBF600F4
:10384000C6961306FEFF63E4161763F2F616791E9A
:10385000C6969D8E33D6E60393170701C183B3F650
:10386000E6033385CE02139706015D8F637BA700C5
:1038700046979307F6FF636817136376A7127916C6
:10388000469793150E01098FD18D4DB5B357E600BC
:10389000B396C601DD8E33D3E50013DF0601B357BF
:1038A000E303939E060193DE0E013398C50133575F
:1038B000E50033680701935808013316C6013373D6
:1038C000E303B385FE024203B368130163FBB80050
:1038D000B6981387F7FF63EAD80C63F8B80CF917AA
:1038E000B698B388B84033D7E803420813580801A4
:1038F000B3F8E8033383EE02C208B3E5080163FBC3
:103900006500B6951308F7FF63EDD50863FB6508FE
:103910007917B695C207416FD98F1307FFFFB3F62A
:10392000E70093D80701718F4182B38EE602B38519
:103930006540B386C60213D80E013387E802BA96F3
:10394000C2963386C80263F3E6007A9693D80601DE
:10395000469663E2C5026385C5003E858145828047
:1039600041677D17F98EC206B3FEEE003315C5011F
:10397000F696E374D5FE1385F7FF8145828013D751
:103980000601414839BD93560601C147D1B193D6CE
:103990000801C14785BB81450545828036870148BE
:1039A00009B5428785BF3E86E9BDBA871DBF328E05
:1039B0004DB579154698E5B97915C69761BB39714A
:1039C000935775014AD856D25ECE931A9500135973
:1039D000F50106DE22DC26DA4ED652D45AD093F711
:1039E000F70F93DA9A00CA8B638207121307F00F5E
:1039F0006384E7128E0A37070004B3EAEA00138AE9
:103A000017F80144014B93D775019394950093F7F0
:103A1000F70FA58093D9F501FDC71307F00F638752
:103A2000E7028E04938717F837070004D98C330A0E
:103A3000FA408146558C172700001307A7150A0482
:103A40003A941C4033493901BA978287130A1AF015
:103A5000F9E88946558C172700001307A7170A04B1
:103A60003A941C4033493901BA97828701491307B8
:103A7000F00FB707400013959700F2506254931768
:103A8000770125817E095D8D33652501D254425928
:103A9000B259225A925A025BF24B2161828013077B
:103AA000F00F8147C9BFA68ACE8B368B8947630941
:103AB000FB1A8D47E30CFBFA85476308FB0A1307E3
:103AC000FA0713F91B006355E01293F77A0099C7C0
:103AD00093F7FA0091466383D700910A93974A00BF
:103AE00063D90700B70700F8FD17B3FAFA00130708
:103AF0000A089307E00FE3C4E7FA93976A00A583E7
:103B00001377F70F8DBFB1E48546A9B763940A0216
:103B10001144014A054BC5BD63990A002144130AAB
:103B2000F00F094BCDB58D4631B73144130AF00F74
:103B30000D4BD1BD56852EC67D249307B5FFB39A94
:103B4000FA009307A0F8338AA7400144014BB2451D
:103B50005DBD2685492C1307B5FFB307AA00B394B2
:103B6000E400138A67078146F1B513F91B0001478A
:103B7000814711B74166139554007D16935705018F
:103B8000698E63FA9A0AB3D5FA027D1AD68601477E
:103B90003388C502B3F6F602C206558F637B070170
:103BA0002A979386F5FF6368A70A6376070BF915D2
:103BB0002A9733070741B356F7023377F702B38AE0
:103BC000C6029317070163FB5701AA971387F6FFF5
:103BD00063E1A70863FF5707F916AA97C205B38ADE
:103BE0005741D58DB33A5001B3EA5501CA8BC1BDD7
:103BF0008546998E11C76D4601478147E34DD6E64C
:103C0000130AEA09339A4A01B3D7DA00B33A4001FA
:103C1000B3E7570113F7770019C713F7F700914679
:103C20006303D700910713975700634807029A0769
:103C3000A583014789B593D61A00B3D5F602139729
:103C4000FA0141833388C502B1B7CE8B368B814AE6
:103C5000B1BDBA8661B7B685A9BF0547814721BD09
:103C600013F91B001307F00F814731B5411106C648
:103C700022C415CD2A84852A9307E0093387A740FB
:103C80009307600963C0E704A1469377F70F63D5F4
:103C9000A60061153314A4002604258026041355BC
:103CA0009400B2402244DE075D8D410182800144D0
:103CB000260413559400B24022448147DE075D8DEF
:103CC000410182809307900963DDE7009307B50106
:103CD0009546B317F400898EB337F0003354D400FF
:103CE0005D8C954763D6A7009307B5FF3314F400A6
:103CF000B70600FCFD16937774003376D40085C3B5
:103D00009377F4009145638CB70011069317560022
:103D100063D707009307F009758E3387A740131404
:103D200066002580260413559400B2402244937700
:103D3000F70FDE075D8D4101828013577501137700
:103D4000F70F41119307170022C426C213149500E0
:103D500006C693F7E70F25809354F50185C793575F
:103D60003400130707387604B2075207B18313955E
:103D7000F401D98FC98FB240228522449244BE8576
:103D80004101828005EB39C42285B128A94763C669
:103D9000A7042D47098F930755013357E4003314C7
:103DA000F4009317C70013079038098FB183137776
:103DB000F77F5DBF01CC13573400B7070800D98FD8
:103DC000B2077604B1831307F07F79BF1307F07F42
:103DD000814759BF0147814741BF130755FF33173B
:103DE000E40001447DBFC167637CF5029307F00FD7
:103DF0001307000263EBA70097270000938787E172
:103E0000AA9788233305A740828021819727000045
:103E1000938747E0AA97882361473305A7408280AC
:103E2000B7070001636DF500618197270000938754
:103E300067DEAA97882321473305A7408280418106
:103E400097270000938707DDAA978823414733050A
:103E5000A74082802946814505A639713EDA2ED2D7
:103E600032D436D63AD842DC46DE9387018322CC60
:103E7000804326CA06CEAA8409C41C4C99E3228535
:103E8000292F0C4454102686228536C6EF00503A5E
:103E9000F2406244D24421618280011126CA4AC89C
:103EA00006CE22CC4EC652C4AA842E8901C51C4D12
:103EB00091E3E5259C4C804499E32685F92D9727CD
:103EC0000000938727E7631BF402C0405E24A18BA8
:103ED000B1C71C48A1C7FD59294A1C4483450900A4
:103EE000FD17B1E91CC463DD07062286A9452685B6
:103EF0005D24FD576308F502294535A0972700008A
:103F0000938747E56314F4008044C9B797270000FE
:103F1000938747E0E31CF4FAC0444DBFA285268591
:103F20000D2E55D97D55F2406244D2444249B249E2
:103F3000224A056182801CC4050963D70700184C1A
:103F400063CAE700638845011C401387170018C047
:103F50008CA361B7228626853D2CE31035F9D9B7AD
:103F60001C401387170018C0294798A371B793877F
:103F70000183AA8588436FF05FF201114AC84EC6DB
:103F800052C406CE22CC26CA2A89AE89054A050922
:103F90000344F9FFEF00207822951C318D8B639448
:103FA000470113040402850983C4F9FFEF00A076DA
:103FB00026951831A6870D8B631447019387040259
:103FC0003305F44011E1E1F7F2406244D244424942
:103FD000B249224A0561828001114AC84EC652C4C4
:103FE00056C206CE22CC26CA2A89AE89B30AC5009B
:103FF000054A638D2A0305090344F9FF292F2295F9
:104000001C318D8B6394470113040402850983C41A
:10401000F9FF112726951831A6870D8B63144701E8
:10402000938704023305F44019E1E1F70145F240BA
:104030006244D2444249B249224A924A056182808E
:1040400079714AD04ECE06D622D426D2AA892E899C
:104050009304190003C4F4FF3A8536C632C42EC255
:104060003AC07D2522951C3102479245A18B2246FC
:10407000B246D1E39307D0026311F4089C200543B4
:1040800093042900E5C641476390E6021307000345
:10409000639CE7009C201307800593F7F70D63925C
:1040A000E70C9C30C1468904B70800806314030004
:1040B00093C8F8FF33FFD80201480145A54FE54EEC
:1040C000FD5233DED802138707FD63E3EF04BA879E
:1040D00063DED704630D58007D58636AAE00631435
:1040E000AE006346FF0005483385A6023E95850471
:1040F00083C7F4FFC9BF2689A1BF9307B002630538
:10410000F400A2870143BDBF9C2093042900DDBFBA
:104110001387F7FB63E5EE00938797FC55BF138782
:10412000F7F963E5EE00938797FA5DB7FD57631FD4
:10413000F8009307200223A0F900468519EEB2503B
:10414000225492540259F24945618280630403006B
:104150003305A0406DD6630408009385F4FF0CC2BC
:10416000F9BF93070003A9F2A1463DBF130700035F
:10417000E382E7F2A9460DBF938701839C43B28691
:10418000985309E717C7FF1F130707FC2E86AA8558
:104190003E856FF0FFEA011122CC26CA4AC806CE3E
:1041A0004EC6AA842E89328401C51C4D91E3F526A2
:1041B00097270000938707B86317F406C0401C4C8C
:1041C0001CC45E24A18BC1C31C48B5CF1C48084049
:1041D0009379F90F1379F90F1D8D5C486346F5004B
:1041E000A2852685692C25E51C440505FD171CC400
:1041F0001C401387170018C0238037015C48638870
:10420000A7005E24858B81CBA9476316F900A285A0
:104210002685B5240DEDF24062444A85D2444249D8
:10422000B24905618280972700009387A7B2631483
:10423000F400804469B7972700009387A7ADE31087
:10424000F4F8C044ADBFA2852685212041D17D5917
:10425000D9B741119387018326C2844322C44AC03F
:1042600006C62A892E8489C49C4C99E32685352666
:1042700097270000938707AC631BF402C040031725
:10428000C40093170701C18393F68700ADEA93F644
:10429000070195EEA5472320F900136707045AA4E8
:1042A0007D55B240224492440249410182809727C1
:1042B0000000938727AA6314F4008044C9B79727A6
:1042C0000000938727A5E31CF4FAC0444DBF918BEF
:1042D0009DC34C5889C9930744046384F5004A85FB
:1042E000AD23232A04025E242322040093F7B7FDA2
:1042F0005EA41C481CC05E2493E787005EA41C4893
:1043000099EB5E241307002093F707286385E700E5
:10431000A2854A858D295E2413F717001DC35C48CA
:1043200023240400B307F0401CCC1C480145B5FB16
:104330008317C40013F707082DD793E707045EA47B
:1043400085B7898B014791E3584818C4F9BFDE252A
:10435000011122CC26CA06CE4AC84EC613F78700E2
:10436000AA842E8479EBD841634DE000B841634ABA
:10437000E0000145F2406244D2444249B24905613D
:10438000828058547DD703A904009396370123A057
:10439000040063DB060670485E24918B99C75C407D
:1043A0001D8E5C5899C33C401D8E5C540C50814658
:1043B00026858297FD575A24631DF5009440F547E2
:1043C00063E8D706B70740208507B3D7D700858BAA
:1043D000A5C31C48232204001CC09317370163D8CF
:1043E0000700FD576314F5009C4091E368C84C58E2
:1043F00023A02401BDDD930744046384F5002685D2
:10440000A921232A0402B5B70C500146854626850A
:104410000297FD572A86E311F5F89C40B5DF7547F2
:104420006385E70059476393E70423A0240191B70C
:10443000136707045AA47D5535BF83A90501E38A94
:1044400009F203A905008D8B23A0350133093941F9
:10445000014791E3D84918C4E35D20F11C540C5086
:10446000CA864E86268582976347A0005E2493E71E
:1044700007045EA4C9B7AA993309A940F1BF9C49B2
:10448000A5C3011122CC06CE2A8411C51C4D81E79B
:104490002EC62122B245972700009387A789639CE7
:1044A000F5004C408397C5009DC722856244F240C9
:1044B00005616FF0DFE9972700009387A789639470
:1044C000F5000C44C5B7972700009387A784E39BAA
:1044D000F5FC4C44C1BFF240624401450561828055
:1044E00001458280411122C406C62A844EA572A5C8
:1044F000232005002322050023240500232205068E
:1045000023280500232A0500232C05002146814588
:104510001305C505EFB0DFC497170000938787B771
:104520005CD0971700009387A7B91CD49717000099
:10453000938787BD5CD4971700009387E7BF00D0AF
:104540001CD8B24022444101828097050000938527
:1045500045F391AA411126C2130680069384F5FF04
:10456000B384C4024AC02E8922C406C69385440778
:1045700049262A8401CD2320050023222501310567
:1045800008C4138684068145EFB09FBD2285B240E2
:10459000224492440249410182801C4DA5E7411109
:1045A00006C622C497070000938767FA1CD5938735
:1045B00081839C4323240504232605042328050422
:1045C0006314F50085471CCD2A84352848C0228510
:1045D0001D2808C42285052848C448400146914545
:1045E000EFF05FF008440546A545EFF0BFEF484403
:1045F0000946C945EFF01FEF85471CCCB240224465
:1046000041018280828041119387818326C2844345
:104610004AC006C69C4C22C42A8981E72685EFF051
:10462000DFF7938484048044DC40FD1763D60700E1
:104630009C40B9CF8440C5BF0317C40039E7C17798
:1046400085072322040623200400232204002324B8
:1046500004005CC423280400232A0400232C040043
:10466000214681451305C405EFB09FAF232A0402FC
:10467000232C040223240404232604042285B240AC
:10468000224492440249410182801304840671BF8E
:1046900091454A85EFF01FEC88C049FDB1472320C2
:1046A000F9000144E1BF797122D44AD052CC56CAF4
:1046B0005AC85EC606D626D24ECE2A8AAE8A1304C1
:1046C00085040149054BFD5B09ECB25022544A8533
:1046D00092540259F249624AD24A424BB24B456166
:1046E0008280044483294400FD1963D409000040FA
:1046F000E1BFDE24637BFB008397E40063877701DF
:10470000A6855285829A3369A90093848406E9BFFD
:104710000325C50E8280938701839C439C5389E7C0
:1047200097C7FF1F938747A203A5C70E8280197101
:10473000A6DAAE848395E500A2DC86DE328463DBF4
:104740000500DE2423A0060093F7070885E79307FA
:1047500000401DA0300836C6EF007025B246E34287
:1047600005FE7247BD67F98F7977BA9793B717003F
:104770009CC2F1BF930700041CC0F6506654D65487
:10478000014509618280DE25011122CC06CE26CAB0
:104790004AC8898B2E8489CF930774041CC01CC817
:1047A00085475CC8F2406244D24442490561828038
:1047B00074003000AA84EFF09FF7A2452A8926856D
:1047C0000D2A19E98317C40013F7072061FFF19B35
:1047D00093E727005EA4C9B797070000938727D700
:1047E0009CD45E2408C008C893E707085EA4A247CB
:1047F0005CC8B24781CF8315E4002685EF00D01D49
:1048000011C55E24F19B93E717005EA45E24336913
:10481000F9002316240179B791ED41116C0001458F
:1048200001CA795591C61C229CC108223335A000CB
:1048300041018280014509CA795599C61C229CC153
:1048400008223335A00082808280DDC183A7C5FFA6
:10485000411122C406C626C21384C5FF63D30700D4
:104860003E94AA84EF00101E9387018C9C4381EF35
:104870002322040023A0818C2244B2402685924446
:1048800041016F00501C637EF40014403307D400D4
:104890006396E7009843DC43369718C05CC0D9BFE5
:1048A000BA87D84319C3E37DE4FE94433386D70027
:1048B000631F86001040B29694C33386D700E31D71
:1048C000C7FA10435843B29694C3D8C375B76375FB
:1048D000C400B1479CC04DB71040B306C400631676
:1048E000D70014435843B29614C058C0C0C369B728
:1048F0008280011126CA93843500F19806CE22CC1D
:104900004AC84EC6A104B14763F3F404B14463E25C
:10491000B4042A89EF0010139387018C98433A84DA
:1049200039E09387418C9C4391E781454A85252F47
:1049300023A2A18CA6854A853D27FD596319350719
:10494000B1472320F9004A85EF00F00F29A0E3D0FA
:1049500004FCB1471CC10145F2406244D2444249C3
:10496000B249056182801C40858F63CF0702AD4646
:1049700063F6F6001CC03E9404C031A05C40631393
:10498000870223A0F18C4A85EF00F00B1305B400D9
:104990009307440061993307F5405DDF3A94898FAE
:1049A0001CC05DBF5CC3C5B72287404095BF1304E0
:1049B00035007198E30285FCB305A4404A8565255E
:1049C000E31C35FBB5BF1C46FD171CC663DA0700A8
:1049D000184E63C5E700A9476394F5006FF0AFFB7D
:1049E0001C422E851387170018C28CA382800111E8
:1049F00022CC26CA4AC84EC652C406CE2A89AE89DF
:104A00003284B304D6007D5A63149400014509A88A
:104A10000C204E864A85EFF01FFB0504E31645FF88
:104A2000F2406244D2444249B249224A056182803E
:104A3000357122CD26CB4AC94EC706CF52C556C3C3
:104A40005AC1DEDEE2DCE6DAAA89AE843289368437
:104A500009C51C4D99E3EFF05FB4971700009387E9
:104A6000672D6398F40C83A44900DE24A18BE5C76D
:104A70009C48F5C393070002A304F10293070003C7
:104A800002D22305F10222C6930B5002971A0000AE
:104A9000938A4A2F054C294B4A841C2099C3639F53
:104AA000770DB30C2441638E0C00E6864A86A685FA
:104AB0004E85EFF0DFF3FD57630FF51C9256E69637
:104AC00036D21C206389071CFD571309140002C845
:104AD00002CE3ECA02CCA309010482D48345090058
:104AE00015465685A12713041900C24751E913F74B
:104AF000070109C713070002A309E10413F78700A0
:104B000009C71307B002A309E1048346090013078C
:104B1000A002638FE606F2474A84814625461820A4
:104B200093051400130707FD6377E60AB5CA3ECE66
:104B300085A8971700009387E7216395F40083A465
:104B4000890025B7971700009387C71CE39FF4F0EF
:104B500083A4C90019BFA6854E85EFF08FEF19D940
:104B60007D55FA406A44DA444A49BA492A4A9A4A7F
:104B70000A4BF65B665CD65C0D618280050431BF32
:104B8000330555413315AC00C98F3EC82289B9B7EA
:104B9000324793064700184336C6634707023ACEAA
:104BA00018209307E002631DF70418309307A00252
:104BB000631BF702B2470904138747009C433AC6B8
:104BC00063C107023ECA2DA83307E04093E72700E0
:104BD0003ACE3EC8F1B7B387670385462E84BA97AD
:104BE0003DBFFD57C5B7050402CA8146814725462A
:104BF000182093051400130707FD6374E606F9F205
:104C00000C200D461715000013054518052511CD7C
:104C100097170000938787171D8D93070004B3979C
:104C2000A700424505045D8D2AC80C2019461715BA
:104C300000001305E515130914002304B102FD2338
:104C400035C197B7FFFF9387E73B95E74247B247E8
:104C50001377071009CF91073EC69257D2973ED2DD
:104C600025BDB387670385462E84BA9751B79D0744
:104C7000E19BA107D5B7780097060000938666D719
:104C800026860C084E8597000000E7000000FD57BF
:104C90002A8AE314F5FCDE2493F70704E39207EC79
:104CA0001255C1B5780097060000938686D42686F3
:104CB0000C084E85012AE1BF797156CA9C49BA8A0F
:104CC000984522D426D24ECE52CC06D64AD05AC8C7
:104CD0005EC6AA892E84B284368A63D3E700BA8777
:104CE0009CC00347340419C385079CC01C4093F73C
:104CF000070281C79C4089079CC0032904001379DF
:104D00006900631A0900130B9401FD5B5C44984031
:104D1000998F634CF9041C408346340493F70702CF
:104D2000B336D000A5EB13063404D2854E85829AA3
:104D3000FD576303F5041C4011469840998B544479
:104D400081446397C700B384E64063D30400814481
:104D50001C4418486354F700998FBE9401496904B4
:104D60007D5B63982405014509A885465A86D2854E
:104D70004E85829A631E75017D55B250225492541D
:104D80000259F249624AD24A424BB24B4561828093
:104D90000509ADBF3307D40013060003A301C70400
:104DA0000347540493871600A2978906A381E7045A
:104DB0009DBF85462286D2854E85829AE30E65FB8D
:104DC000050945B7797122D426D24AD04ECE06D6EF
:104DD00052CC56CA5AC8B689942D93079006328988
:104DE000AA842E8413863504638DF60263E2D70607
:104DF000930780056386F61863EDD700638E06205F
:104E000093073004638EF60A930A24042301D40422
:104E1000C9A0930730066385F60A93074006E39519
:104E2000F6FE1C40084393F6070893054500C5C6E7
:104E30001C410CC363D807001307D002B307F0402E
:104E4000A301E40497160000938606F5294765A898
:104E5000930700076382F61663E5D7029307E0061F
:104E60006389F6189307F006E390F6FA0C401C43AA
:104E700013F80508138547006307080608C39C4319
:104E800085A893075007E383F6FE9307800763899D
:104E9000F61293073007E399F6F61C43D04181459B
:104EA0009386470014C383AA07005685412601C58F
:104EB0003305554148C05C401CC8A301040461A8E7
:104EC0001C43930A2404938647009C4314C3230184
:104ED000F4048547D5B793F607041C410CC3B9DA2F
:104EE000C207C18781BF93F5050408C3C9D99E23B2
:104EF0001307F0066387E60E971600009386C6E94F
:104F00002947A30104044C400CC463C505000840B4
:104F10006D9908C099E3B28A89CDB28AB3F5E702E8
:104F2000FD1AB6958C212380BA00B3D5E70263F051
:104F3000E70CA147631EF7001C40858B91CB5840BE
:104F40001C4863C7E70093070003A38FFAFEFD1A0E
:104F50003306564110C84E87CA867000A285268542
:104F6000EFF09FD57D5A631D450B7D55B2502254FD
:104F700092540259F249624AD24A424B45618280B8
:104F8000A382D50497160000938606E10C400843DF
:104F900013F805081C411105630D080208C313F737
:104FA000150001C793E505020CC04147B9FB0C4051
:104FB00093F5F5FD0CC0B1B79C4193E707029CC186
:104FC00093078007A302F40497160000938606DE79
:104FD00075BF13F8050408C3E30308FCC207C183C7
:104FE0007DBF97160000938626DB214719BFAE8749
:104FF00035B794411C43CC4913F806081385470084
:105000006306080008C39C438CC339A008C393F609
:1050100006049C43F5DA8EA323280400B28A25BF38
:1050200014485686CA8526858299E30045F51C40BA
:10503000898B8DE7B2474844E35AF5F23E853DB788
:1050400085465686CA8526858299E30065F3050A5A
:105050005C443247998FE345FAFEE9BF014A930A5F
:1050600094017D5BF5B7411122C42A842E8523A2C9
:1050700001C806C6EFE02FD9FD576317F5009387E7
:1050800041C89C4391C31CC0B2402244410182806C
:10509000411122C42E848395E50006C6752263491A
:1050A00005007C48AA977CC8B24022444101828016
:1050B0005E247D777D17F98F5EA4FDB7DE25011193
:1050C00022CC26CA4AC84EC606CE93F70710AA8439
:1050D0002E843289B68991C78395E50089460146B9
:1050E00005225E247D777D17F98F5EA48315E40089
:1050F0006244F240CE864A86B24942492685D2446D
:10510000056199A8411122C42E848395E50006C645
:10511000C528FD575A24631AF500FD77FD17F98F4E
:105120005EA4B2402244410182808567D98F5EA48B
:1051300068C8C5BF8395E500B9A089CD9307F00F76
:1051400063F7C7009307A0081CC17D55828090A11A
:105150000545828001458280411122C42A842E8522
:10516000B285368623A201C806C6EFE06FC5FD579B
:105170006317F500938741C89C4391C31CC0B2409C
:10518000224441018280411122C42A842E8523A217
:1051900001C806C6C520FD576317F500938741C8AF
:1051A0009C4391C31CC0B240224441018280411102
:1051B00022C42A842E85B28523A201C806C6C9202E
:1051C000FD576317F500938741C89C4391C31CC0EA
:1051D000B240224441018280411122C42A842E859A
:1051E00023A201C806C65D20FD576317F50093870B
:1051F00041C89C4391C31CC0B240224441018280FB
:10520000411122C42A842E85B285368623A201C884
:1052100006C65920FD576317F500938741C89C4384
:1052200091C31CC0B24022444101828093F5F50F26
:105230002A966314C500014582801C21E38EB7FEC7
:105240000505C5BF82808280411122C42A842E8533
:10525000B285368623A201C806C6A920FD5763176A
:10526000F500938741C89C4391C31CC0B2402244BF
:10527000410182809307800523A2F1C87D55828079
:105280009307800523A2F1C87D558280930780058E
:1052900023A2F1C8014582809307800523A2F1C8AB
:1052A0007D5582809307800523A2F1C87D558280B9
:1052B00075736220656E746572206C6F7720706FF5
:1052C000776572206D6F64650D0000007573622054
:1052D0006C65617665206C6F7720706F77657220E2
:1052E0006D6F64650D00000009024300020100803B
:1052F000320904000001020201000524001001052A
:10530000240100010424020205240600010705818E
:105310000340000109040100020A00000007050221
:105320000240000007058302400000001201100146
:1053300002000040861A0CFE00010102000100007C
:105340001603550053004200200053006500720010
:10535000690061006C0000000E03770063006800C4
:105360002E0063006E000000F41A0000061B00000F
:10537000161B00001E1B0000341B0000521B000007
:105380002E1D0000381D0000421D00005C1D0000A5
:10539000761D00008C1D00005B5057525D20456E4D
:1053A000746572696E6720556C7472612D4C6F77ED
:1053B00020506F776572205374616E6462792E2E6F
:1053C0002E0D00005B4253505D20556E6966696585
:1053D0006420486172647761726520496E69742047
:1053E000446F6E652E0D00005B4953505D20536F76
:1053F000667477617265206A756D7020746F2066BF
:105400006163746F727920426F6F746C6F61646551
:1054100072210D00E8210000EC210000F4210000C1
:10542000FC210000142200005B47554E4C494748C0
:10543000545D20496E697420436F6D706C657465AE
:10544000642E0D00000020415B47554E4C494748F3
:10545000545D20436C69636B3A204D6F6465203165
:105460000D0000005B47554E4C494748545D2043B2
:105470006C69636B3A204D6F6465203220283235A9
:105480002525290D0A0000005B47554E4C49474829
:10549000545D20436C69636B3A204D6F6465203323
:1054A00020284D61696E202B204C61736572290D97
:1054B000000000005B47554E4C494748545D20436F
:1054C0006C69636B3A20416C6C204F66660D00007E
:1054D0005B47554E4C494748545D20446F75626C9C
:1054E0006520436C69636B3A203130487A205374ED
:1054F000726F6265204D6F64650D00005B47554E0D
:105500004C494748545D20547269706C6520436C67
:1055100069636B3A20534F53204469737472657307
:1055200073204D6F64650D005B47554E4C494748ED
:10553000545D204C6F6E672050726573733A204142
:105540006C6C204F66662E20436865636B696E67DE
:105550002038732049535020686F6C642E2E2E0D16
:10556000000000005B47554E4C494748545D2038C9
:10557000732072656163686564202D3E204A756DF5
:105580007020746F2049535020426F6F746C6F61AC
:10559000646572210D0000005354415455530000BE
:1055A0005B5354415455535D2053746174653A20E4
:1055B00025642C20566261743A202564206D562C97
:1055C00020426174546965723A2025642C2050573A
:1055D0004D313A2025642F313030302C2050574D3A
:1055E000323A2025642F313030302C2054696D65DB
:1055F0006F75743A202564730D0A000053455420DA
:1056000050574D31200000005B4F4B5D20536574B7
:105610002050574D31203D2025642F31303030202F
:1056200028252E31662525290D0A000053455420D2
:1056300050574D32200000005B4F4B5D2053657486
:105640002050574D32203D2025642F3130303020FE
:1056500028252E31662525290D0A000053455420A2
:105660004D4F4445200000005B4F4B5D204D6F6463
:105670006520737769746368656420746F2025649E
:105680000D0A00005B4552525D20496E76616C69DF
:1056900064206D6F646520302D350D005345542016
:1056A00054494D454F555420000000005B4F4B5D61
:1056B00020536574205374616E6462792054696D5F
:1056C000656F7574203D202564730D0A000000008D
:1056D0005B4552525D2054696D656F75742072612F
:1056E0006E67653A20317E313230730D0000000064
:1056F000495350005B5359535D204A756D702074B7
:105700006F20426F6F746C6F616465722072657197
:1057100075657374656420766961205553422E2E39
:105720002E0D00005245424F4F5400005B53595319
:105730005D205265626F6F74696E672E2E2E0D00AC
:1057400048454C50000000000D0A3D3D3D2054618D
:1057500063746963616C2047756E6C696768742057
:10576000434C4920436F6D6D616E6473203D3D3D38
:105770000D00000020205354415455532020202078
:10578000202020202020202020203A20476574203F
:10579000616C6C2074656C656D657472790D0000C8
:1057A00020205345542050574D31203C302D31306E
:1057B00030303E2020203A20536574204D61696EC0
:1057C00020574C454420647574790D0020205345C2
:1057D000542050574D32203C302D313030303E2057
:1057E00020203A20536574204C61736572206475E3
:1057F00074790D002020534554204D4F4445203CE2
:10580000302D353E2020202020203A205365742062
:1058100073746174652028303A4F66662C20313AE3
:1058200031303025252C20323A323525252C2033B5
:105830003A4475616C2C20343A5374726F62652C53
:1058400020353A534F53290D0A00000020205345BC
:10585000542054494D454F5554203C312D31323060
:105860003E203A20536574206175746F2D736C650A
:105870006570207365636F6E64730D00202049535B
:1058800050202020202020202020202020202020E8
:1058900020203A204A756D7020746F206661637411
:1058A0006F727920426F6F746C6F616465720D0066
:1058B00020205245424F4F542020202020202020DD
:1058C0002020202020203A20536F667420726573B8
:1058D00065742073797374656D0D0A0D0000000006
:1058E0005B4552525D20556E6B6E6F776E20636F15
:1058F0006D6D616E643A2025732E20547970652099
:1059000048454C502E0D0A005B47554E4C494748C0
:10591000545D205475726E6564204F6E202D3E20BC
:105920004D6F6465203120283130302525290D0A3E
:10593000000000005B5057525D2042617474657234
:105940007920437269746963616C20283C20322E8F
:105950003935562921204375746F66662070726F41
:1059600074656374696F6E207472696767657265C8
:10597000642E0D005B5057525D2042617474657255
:10598000792054696572205377697463683A2025D9
:1059900064202D3E2025642028566261743D2564D4
:1059A000206D56290D0A00000100140000001400AB
:1059B00001001400000014000100140000003C006D
:1059C00001003C000000140001003C000000140035
:1059D00001003C0000003C00010014000000140025
:1059E00001001400000014000100140000008C00ED
:1059F0000D0A3D3D3D3D3D3D3D3D3D3D3D3D3D3D3A
:105A00003D3D3D3D3D3D3D3D3D3D3D3D3D3D3D3DC6
:105A10003D3D3D3D3D3D3D3D3D3D0D00202043484C
:105A200033325632303320546163746963616C20C1
:105A300047756E6C696768742028574D4C2920564D
:105A4000332E30200D000000202053797374656DD3
:105A500020436C6F636B203A20256420487A0D0A3E
:105A60000000000020205553424420434443205668
:105A70004350203A205265616479202850413131E9
:105A80003A444D2C20504131323A4450290D000007
:105A90003D3D3D3D3D3D3D3D3D3D3D3D3D3D3D3D36
:105AA0003D3D3D3D3D3D3D3D3D3D3D3D3D3D3D3D26
:105AB0003D3D3D3D3D3D3D3D0D0000005B5057529D
:105AC0005D2057616B6575702066726F6D20537431
:105AD000616E646279204D6F6465210D00000000E5
